:020000040800F2
:100000000002002015050008B10400086D04000876
:10001000C1040008D1040008E10400080000000049
:100020000000000000000000000000005104000873
:10003000F104000800000000350400080105000874
:10004000AD010008AD010008AD010008AD010008D8
:10005000AD010008AD010008A50A0008A50A0008C6
:10006000A50A0008A50A0008A50A0008AD010008B5
:10007000AD010008AD010008AD010008AD010008A8
:10008000AD010008AD010008AD010008AD01000898
:10009000AD010008AD010008AD010008A50A000887
:1000A000AD010008AD010008AD010008AD01000878
:1000B000F5130008AD010008AD010008AD0100080E
:1000C000AD010008AD010008AD010008AD01000858
:1000D000AD010008AD010008AD010008D10800081D
:1000E000A50A0008AD0100080000000000000000A3
:1000F0000000000000000000000000000000000000
:1001000000000000AD010008FB130008AD0100086D
:10011000AD010008D7080008AD010008AD010008D6
:10012000AD010008AD010008AD010008AD010008F7
:10013000AD010008AD010008AD010008AD010008E7
:10014000AD010008AD010008AD010008AD010008D7
:10015000AD010008AD010008AD010008AD010008C7
:10016000AD010008AD010008AD010008AD010008B7
:10017000AD010008AD010008AD010008000000005D
:10018000AD010008AD010008AD010008AD01000897
:10019000AD010008AD010008AD010008AD01000887
:1001A000AD010008AD010008AD01000800F0A8B9DC
:1001B00000F0B8BA7047000070B50C46064600F073
:1001C000A1FA094B094A1D682C44944202D8084AF6
:1001D000944207D20C2333604FF0FF3500F09AFAB7
:1001E000284670BD1C60F9E70002002000000520D1
:1001F000F81900201946104600F0A0BA194610461A
:1002000000F0A4BA132303604FF0FF3070471323AC
:1002100003604FF0FF307047132303604FF0FF304F
:10022000704702294FF0000303608CBF00200120BB
:10023000704700001349144B10B50C68002084422D
:1002400094FAA4F1B1FA81F1104C186008BF4FF094
:10025000FF310F4B54F821101A680968A1F1080406
:1002600094420ED022B11079092804BF0A201071DF
:10027000092201F8042C074A31F9021C11801C6084
:10028000012010BD98020020A4020020AC02002032
:10029000A00200209C020020082930B503791AD959
:1002A000082B14D842791A4B53F8225000F1080455
:1002B0007DB12D68856053F822502C6043F82240B0
:1002C000144A44790123A340146823431360017145
:1002D00030BD8460F2E7082BF9D945790C4B53F80F
:1002E00025203AB11468A2420BBF0022246843F8CB
:1002F00025201460427953F82230002BE7D1054CB9
:10030000012303FA02F2236823EA02032360DEE7F3
:10031000AC0200209802002008B5094B1B681A792E
:10032000082A02D95B79834205D900F0F6F918B1A1
:10033000044B01221A6008BDBDE8084000F072B805
:10034000A0020020A402002008B500F0DBF9094B50
:10035000094A1B88094D1BB2002442F82340084A71
:10036000286813682146013B1360FFF795FF2C6056
:1003700000F054F89C020020EC020020A0020020B3
:10038000A8020020134423F0030310B54FF0773286
:100390001C1F43F8042C620742BF4FF0883243F819
:1003A000082CA3F108044FF0807344E902030D4BBD
:1003B00044F80C3C0022032344E905322246012381
:1003C000022044E9073042F8201D0B2342F8043D87
:1003D000013B032BFAD120466FF0020340F8443D65
:1003E00010BD00BF490300080548064A064B0168D6
:1003F000914201D1984201D3181A70470430F6E7B0
:1004000000000020FEE7FEE700020020EFF3088076
:1004100070470000004870470000002000F076F9A7
:1004200001DFFEE7024A536843F080535360704790
:1004300000ED00E0EFF3098020E9F00F40F804ED53
:1004400002490968086000F003F80000A0020020DB
:10045000FFF7F0FE04480068016801C9B1E8F00F39
:1004600081F3098800470000A00200200D4B0E4ACE
:100470000E496846904203D8984201D9002102E013
:1004800009468D46012104207246024202D1EFF353
:10049000088001E0EFF309802DE9F00F6B4600F0D2
:1004A0006FF800BF58010020000005200002002066
:1004B00008B50249042000F00FFD00BF9D3300087D
:1004C00008B50249062000F007FD00BF8A33000886
:1004D00008B50249072000F0FFFC00BF64310008A6
:1004E00008B50249082000F0F7FC00BFA933000856
:1004F00008B50249092000F0EFFC00BF7631000882
:1005000008B502490A2000F0E7FC00BF8831000866
:100510007047704708B5FFF7FBFF6A46114B124959
:10052000934213D3114A124B12498B4211D3124BEF
:10053000124A0021934211D3FFF7EBFF00F0A8FC11
:1005400001F0B8FEBDE8084000F000BD43F8041B10
:10055000E6E752F8040F43F8040BE6E743F8041B00
:10056000E8E700BF00000020FEE7FEE77C39000856
:10057000000200209802002098020020F8190020B4
:100580002DE9F04F9A46494B8FB093469A6B0392F0
:100590005A6B04929F6ADA6A05921A6BDB6B0793B7
:1005A000434B06921A68434B9A420446884602D04F
:1005B000414801F02BFFB8F1000F4ED03F4801F049
:1005C00025FF00252E463E4801F020FF39463D48D4
:1005D00001F0A8FE05993C4801F0A4FE06993B48AD
:1005E00001F0A0FE07993A4801F09CFE3A0403D5B9
:1005F0000399384801F096FE3B0603D50499364826
:1006000001F090FE354801F001FF5946344801F0F1
:1006100089FEB8F1000F1BD1324801F0F7FE3146D8
:10062000314801F07FFE6946304BC91A03D5494273
:100630002F4801F077FE20468268C36801698C4626
:1006400041698E46AD46514691E8F00F4168006819
:1006500001BE2849052000F03FFCD4E90230D4E96E
:100660000669D4E9001208902069099060690A902F
:1006700019F4007F20480B91CDE90C230CBF04F145
:10068000200504F1240501F0C1FE089B00930B999D
:100690001A48DDE90C2301F045FECDF80090334601
:1006A000DDE90912164801F03DFE8CE700ED00E09F
:1006B00000000020FEE7FEE796310008AC3100089C
:1006C000713200087A3200088A3200089A32000833
:1006D000AA320008BA320008CA320008DA3200082A
:1006E000DF320008F13200082233000858010020F0
:1006F0004A33000877330008DB310008F631000880
:1007000033320008EFF3108072B6704762B6EFF331
:100710001080704780F310887047EFF30580C0B2F7
:1007200070470000034B044A4FF4E131002000F011
:1007300071B800BF04020020F51000080A46014607
:10074000014800F0E2BC00BF0402002010B50A46D8
:100750000C460146002000F029F8204610BD00009C
:1007600038B514230E4A4343D458E569AA0608D580
:100770000C4BA18C03EBC002C9B253F83030506867
:1007800098472B0742BF236A43F008032362064BB6
:100790001B681BB1BDE83840FFF744BE38BD00BF41
:1007A000C0330008B0030020A4020020012810B5C7
:1007B0000AD8142358430A4B1B580A44914207D1C4
:1007C000DA695206FCD510BD0649032000F084FB0F
:1007D00011F8010BDC692406FCD580B21885EDE721
:1007E000C0330008E8330008012808B503D90749D9
:1007F000032000F071FB064B142202FB0030BDE821
:1008000008404168807C00F031BD00BFE83300083B
:10081000C033000801282DE9F84304460E46174668
:1008200003D92749032000F057FBDFF8A080254AB1
:10083000142505FB008542F83070D5F80C9002EBCA
:10084000C00201215360484600F048F8484600F0D5
:1008500011F9697C484600F0DBF84FB1D5F80890F3
:100860000021484600F03AF8297C484600F0D0F8CC
:100870002046FFF7B9FF14235C4308EB040558F842
:100880000440A87C002323606360A36000F0D2FCD6
:10089000B0FBF6F080B2E0607FB1EB7C01215AB290
:1008A00003F01F0301FA03F35209074941F822300C
:1008B0002D2323600020BDE8F8830923F9E700BF5A
:1008C000E8330008B003002000E100E0C033000876
:1008D0000020FFF745BF0120FFF742BFF8B50D46E6
:1008E0000127C0F3832120F00F0400F00F0607FA60
:1008F00001F1032000F0BAFC06FA07FC032322688A
:1009000003FA0CF3D84302402260226805F0030189
:1009100001FA0CF111432160E2681040E060E168E7
:10092000C5F3810202FA0CF20A43E2606268B74042
:1009300022EA070767606268C5F30015B5401543F2
:100940006560A2681343A3600020F8BD2DE9F04163
:1009500000F00F0415462B4A42F8343002EBC40273
:10096000069B5360884601210646C0F3832708464C
:1009700000F07CFC41463046FFF7B0FF042C224BD0
:1009800037DCA11D01228A401A60204B01229868A1
:1009900002FA04F1C94308409860D3F808C005EA98
:1009A0000200A04040EA0C009860D8680140D9607D
:1009B000D540D968A54004F00C0404F1804404F546
:1009C00080340D43DD6006F00301A06889000F2527
:1009D0008D4020EA0500A060A0688F40074302FA1E
:1009E00006F6A7605E611A6816431E600020BDE827
:1009F000F081092C02DC4FF40002C5E74FF480724D
:100A00005A60C2E7C003002000E100E0000401409A
:100A100020F00F03F0B500F00F041D6867000326F7
:100A2000BE4025EA06051D601D680222072C02FA59
:100A300007F242EA050294BF002401241A6003EB86
:100A4000840300F007001A6A80000F24844022EA21
:100A500004021A621A6A01FA00F010431862F0BD2B
:100A600020F00F0300F00F001A69012303FA00F0D1
:100A70001040704720F00F02012300F00F0003FA2E
:100A800000F09061704720F00F0200F00F0010306E
:100A9000012303FA00F09061704709B1FFF7EABF44
:100AA000FFF7F1BF2DE9F0410F4D104F6E692A6835
:100AB000002416404FF0010808FA04F3334206D030
:100AC0006B6107EBC40357F8342058689047013432
:100AD000102CF1D1064B1B681BB1BDE8F041FFF7AC
:100AE000A1BCBDE8F08100BF00040140C0030020AC
:100AF000A4020020002000F02BBC0000034B19686A
:100B0000024611B9084600F003BC704740040020BB
:100B100010B5094A136843B19C6881688C4207D3B9
:100B200003D15C6841688C4202D90360106010BD3B
:100B30001A461B68EFE700BF48040020F0B51E4EC0
:100B40001E4D33681E4C013333601E4B00201A6863
:100B500018602B68226019460746B44621B1DCF8BC
:100B600000E08E68764513D900B129607FB100217D
:100B70003960FAB183B15168586881428CBF194617
:100B80001146084612681B6842B903602160F0BD37
:100B90000F4601200968E1E71146F2E70BB9026050
:100BA000F4E755685E68B5428CBF1D461546056082
:100BB0002846E7E72360EAE74404002048040020D1
:100BC000500400204C0400202DE9F0412B4F2C4C08
:100BD00001233B60236893B9FFF7B0FFFFF78AFF5B
:100BE0000130FBD000254FF0000823685BB9FFF708
:100BF00081FF854222D9FFF7A1FF0025F5E7FFF726
:100C000079FF0546EFE75E68FFF774FF854204D879
:100C1000864202D9361A132EE9D823685E68FFF798
:100C200069FF854201D88642F7D823681A68226096
:100C3000C3E90188D3E903209047D6E723686BB165
:100C40005E68FFF757FF143E14308642CDD3002371
:100C50003B603046BDE8F041FFF750BFFFF74AFF69
:100C600085420646C7D810F1150F04D9FFF742FF99
:100C70008642FBD9BFE74FF0FF36E8E7400400208B
:100C800050040020144A1368834210D11B6813607B
:100C90001BB158681438FFF731BF4FF0FF30FAE747
:100CA0009842196801D1116070471A460B46002B13
:100CB000F6D10A4A13681BB9094A136833B9704759
:100CC00098421968EFD01A460B46F4E79842196823
:100CD000E9D01A460B46F1E7500400204C040020EE
:100CE0004804002008B500231846054A054900F0CD
:100CF00041FB4FF0FF30BDE80840FFF7FFBE00BFEB
:100D0000C90B000840420F00F8B504460D46FFF736
:100D1000F1FE002385420746236011D3A5F11E038F
:100D200083420DD21E35FFF7E5FE8542FBD3FFF768
:100D3000E1FE8542FBD8D4E9033098470020F8BD96
:100D4000FFF7E0FC636806460BB9A36813B12046C1
:100D5000FFF798FF194B65601A681B68BD4238BFE2
:100D60000132A260A2689A4206D92046FFF7D0FE5F
:100D70003046FFF7CFFCE1E7BD4210D9104B1A68AF
:100D8000194612B15068854215D222601C600B686A
:100D90009C42EDD1A5F11400FFF7B0FEE8E7094A47
:100DA000136813B159688D4202D223601460DFE7E3
:100DB0001A461B68F5E713461268E2E74404002070
:100DC000500400204C04002038B50446FFF79AFC7C
:100DD000636805460BB9A36813B12046FFF752FFBD
:100DE0002846BDE83840FFF795BCC36870B5044697
:100DF0000D46C3B1FFF7E8FF1D2D0CD8FFF77AFEB3
:100E00000646FFF777FE801B8542FAD8D4E9033007
:100E1000BDE870401847FFF76DFE29182046BDE871
:100E20007040FFF771BF70BD2DE9F04704460E46D4
:100E300015461AB9BDE8F047FFF7D7BFFFF762FCC8
:100E4000636807460BB9A36813B12046FFF71AFF82
:100E5000DFF830A0FFF74EFEDAF800808146FFF79A
:100E600049FE8145F6D83618454428BF013520464D
:100E70006660A560FFF74CFE3846BDE8F047FFF717
:100E800049BC00BF4404002008B5FFF73BFCFEE767
:100E900038B500F0C1F90B4C0B4D0C480121FFF7A0
:100EA0001DFD4FF48043A36101212846FFF716FD85
:100EB0000121A9610648FFF711FD4FF40043A3612A
:100EC00038BD00BF000C0048000400480E0C00486C
:100ED0000F0C00487047000008B50F4B1A680C460D
:100EE0009AB9012203281A6003D171460B4801F018
:100EF00019FA21460A4801F015FA00F019F90948D3
:100F000001F010FA084801F00DFAFFF7FBFBFFF7BC
:100F1000E1FFFFF7B9FF00BF54040020413700088C
:100F2000FA330008223400081634000808B500F02F
:100F30004DFB034801F0F6F900F00EFB002008BD60
:100F40002434000808B500F0C3F8FCE71FB5FFF72C
:100F5000D9FB0E4B0E481B68029300240D4B0093E7
:100F60000F220C234FF48071019400F03BF80A4BE0
:100F70000A481B68CDE90143094B009307220C2363
:100F80004FF4C06100F02EF8FFF748FA1802002075
:100F900058040020450F00081C02002058050020BE
:100FA0002D0F000838B50B79082B03D90849032009
:100FB000FFF792FF4C7901F10802036813B98B60C7
:100FC000026038BD13F8035CAC42F8D31846F4E76E
:100FD000E8330008031F53F8042F9A42FBD0181A75
:100FE000704700000F2A2DE9F74F05468B469146C2
:100FF0009A4633D810F003031BBFC3F10403ED1866
:101000000B46CB1A303B23F003031AF0080F05EB15
:10101000030419D12D6003E012600432A242FBD315
:101020000193FFF76FFB2849019B8046012251F88D
:10103000226017B2AEB10132212AF8D14046FFF743
:1010400069FB6FF08A073AE02A46E7E7012120466C
:10105000FFF722F94046FFF75DFB30E06FF0150720
:101060002DE041F822402A46E780DDE90C01FFF738
:1010700089F90E9B154AA3624FF0FF33C4E9073686
:101080001368206001331AF0010F6562C4F82CB0B8
:1010900084F805902671C4E90266C4E90466A66175
:1010A0001360D3D10A212046FFF7F6F81AF0040F97
:1010B000D0D14046FFF72EFB4846FFF72DF93846C2
:1010C00003B0BDE8F08F00BFEC020020A8020020B2
:1010D000074A08B5136923F004031361FFF712FBF5
:1010E000BFF34F8F30BFBDE80840FFF713BB00BF11
:1010F00000ED00E038B5054600F09EF9044605F124
:10110000100000F0D5FA204638BDF8B504460D466B
:10111000164600F1100732462946204600F079F9BC
:1011200000B1F8BD0121384600F092FAF3E7000063
:101130002DE9F04F2D4B2E4A1B882E492E48DFF803
:10114000CC90DFF8CCA0DFF8CCB08BB00126ADF8A6
:10115000243001F0E7F8FFF747F90546FFF75AF9A1
:101160000446FFF753F92A46009023464FF40071D6
:10117000224801F0D7F825EAE5754FF4007759F8D1
:1011800026401CB394F80480E26A5AF82830606A5A
:10119000079317440692FFF71DFF069AB4F906104D
:1011A000079B101A22680592626ACDE90302E26A7F
:1011B00002926279019209AAB8F1080FC8BF013200
:1011C00000920544A26A584601F0ACF80136212E7F
:1011D000D5D10B4B0093CDE901750A4A0A4819464F
:1011E00001F0A0F80BB0BDE8F08F00BF7734000825
:1011F000793400087F34000884340008CC340008B7
:10120000523500085435000858350008EC0200201B
:10121000783500081635000808B500F06FFA4FF071
:101220008051002000F022F800F08EFABDE808405E
:1012300000F015B9034A044B00280CBF10461846AD
:10124000704700BF002D3101005A6202044A054B6D
:10125000002818BF1346044A105C5843704700BF6B
:10126000005A6202002D3101FF350008042808D819
:10127000DFE800F0030A0F1419000D4A936D1943BB
:101280009165BFF34F8F7047094A136E194311667A
:10129000F7E7074A936C19439164F2E7044AD36C69
:1012A0001943D164EDE7024A136D19431165E8E76C
:1012B000001002402DE9F843124ADFF85080030184
:1012C0000746D5582E69EB6800241E4008EBC0097C
:1012D0000223A340334209D0EA68D9F8040022EA85
:1012E0000303EB60214658F8373098470134042C4B
:1012F000EED1054B1B681BB1BDE8F843FFF792B870
:10130000BDE8F88304360008A4020020580B002032
:10131000032910B516DC0D4B00011C181858636822
:101320001A4001F10C0300EB83035A6002690223A7
:1013300003FA01F122EA01020261C3681943C160A4
:10134000002010BD4FF0FF30FBE700BF043600085F
:101350000001024B1B58586A704700BF0436000852
:10136000034B00011A58136843F0010313607047E0
:101370000436000801282DE9F84305460F4630D809
:10138000194E1A49040106EB040841F8302098F878
:101390000C9001EBC00148464B60D8F80810FFF7ED
:1013A00065FF3659D8F8043000243460484674602C
:1013B000F362FFF74BFF98F80D20B0FBF7F0012325
:1013C000013851B202F01F02B062490973619340C3
:1013D000074A284642F82130FFF7C2FF2046BDE801
:1013E000F8834FF0FF30FAE704360008580B00206E
:1013F00000E100E00020FFF75DBF0120FFF75ABFCA
:1014000082680168531C83604368013B1340C85CD9
:101410007047F8B505460F46164614461CB1AA6833
:10142000EB689A4201D1301BF8BD2846FFF7E8FF70
:10143000013C07F8010BF1E7C268436830B58468E6
:10144000121B9A4208D0C2680468013B1340551C25
:10145000C560E154002030BD4FF0FF30FBE770471E
:1014600080F00101014800F05DBF00BFA236000816
:1014700007B5009313460A460146034800F052FFA1
:1014800003B05DF804FB00BFCA36000807B500933F
:1014900013460A460146034800F044FF03B05DF8D6
:1014A00004FB00BF0837000807B50F4B1A7801325C
:1014B0001A700E4A0192D722009200210122332095
:1014C00000F080FB022806D1094800F02BFF002025
:1014D00003B05DF804FB032801D10648F5E70128B5
:1014E000F5D10548F1E700BF680B0020200200207D
:1014F00045370008653700088337000830B50546D2
:1015000085B000200E4CFFF723FF2268801A0D4A99
:1015100090420FD929460C4800F004FF0B4B0C4AAF
:10152000029300230092019306224FF4C061094800
:10153000FFF758FD0020FFF70BFF206005B030BD1E
:101540006C0B002020A10700303600083F36000851
:10155000A9140008700B002010B5154A07CA88B0FE
:1015600005AB83E807001946012000F0B3FA00211B
:1015700003AB08220846002400F00CFB00940D4B3E
:101580000D4801220821FFF7E1F9A04205DA0B48D6
:1015900000F03CFF012008B010BD094800F036FF04
:1015A000084800F033FF084800F030FF2046F2E71B
:1015B00024360008FD1400080D0800484B360008CA
:1015C0005F360008753600089836000808B5FFF742
:1015D00089FBBDE8084000F001B800002DE9F341A7
:1015E000174C184D184FDFF8648004F14006297A33
:1015F0002B68656011F0FB0FA36001D008291BD197
:10160000E7606868FFF76AF96B7A13F0060F08D095
:1016100003F00403ADF80030E36869465B682846D0
:1016200098472046103400F0DDFDB44205F10C056A
:10163000DDD102B0BDE8F081C4F80C80E1E700BF65
:101640007011002098370008D0380008DC380008F6
:1016500070B504460D46FFF755F8236806463BB9BA
:101660004FF0FF332360FFF755F80125284670BD82
:10167000C5B10E4B1D6802212846FEF70DFE2368FA
:1016800001330AD105F1080323600023AB60304623
:10169000FFF740F8FEF7C6FEE7E729462046FFF7CA
:1016A00081FCF4E7FFF736F8E0E700BFA002002076
:1016B00070B50446FFF726F8256806461DB9BDE853
:1016C0007040FFF727B86B1C02D100232360F6E7B8
:1016D00028460A2150F808392360FEF7DDFD23680B
:1016E00013B94FF0FF33236015F8034C3046FFF772
:1016F00011F82046BDE87040FEF70EBE0F4BD3F840
:10170000882042F4700210B5C3F888200C4A9A6011
:101710000C4C102283F822200021DA776018013166
:101720005B2980F80023F9D11A6942F010021A618E
:101730005A6942F400725A6110BD00BF00ED00E02A
:101740000000000800E100E038B5FEF7DBFF1C4DAB
:101750000023AB61044600F05BFD42F20153AB6035
:101760002B469A6802F00C02042AFAD1154A40F27C
:10177000047111604FF480721A60B9221A601A68FD
:101780009107FCD54FF04062C3F888200E4ADA601A
:101790001A6842F080721A601A689201FCD59A6841
:1017A00042F003029A609A6802F00C020C2AFAD105
:1017B00000F03AFD2046BDE83840FEF7ABBF00BF61
:1017C0000010024000200240511400012DE9F043B6
:1017D000314C324FDFF8D890C5B006460025304670
:1017E00000F04FFC80B965B12B4C2D48217800F0FA
:1017F00099FD237D002B46D02A48FFF759FF00238F
:10180000637045B0BDE8F0836946304600F014FBD4
:101810009DF80030202B26D005D8042B16D0224965
:101820000320FFF759FB222B29D0232BF7D19DF85A
:1018300006102278914205D19DF805309DF804509C
:10184000A370CCE7194800F06DFDC8E73B68D3F8FA
:101850000880B8F1000FC2D004ABDDE902129DF898
:101860000400C047BBE7237D2BB1039AA06904A9FC
:1018700000F044FDB3E73B68D3F80480E9E748464D
:1018800000F050FDABE7054B1B681B68002BB6D082
:10189000A0789847B3E700BFB8110020B01100202E
:1018A0007E380008B4110020E833000837380008FB
:1018B0006838000808B5044800F0D8FB0348BDE8C4
:1018C0000840FFF7F5BE00BFD81300202C0200200F
:1018D00073B50D4D0D4B00930C46C02306468DF895
:1018E00006102868ADF8043069460722FEF75EFF4F
:1018F000224631462868FEF759FF2146044800F089
:1019000011FD02B070BD00BFE8190020415424440D
:10191000C338000837B50C4C4FF0000C251D0123CF
:10192000CDE9003C13460A460146284600F040FB3C
:10193000284600F0A6FBC1B204F11C0003B0BDE8CC
:101940003040FFF7C5BF00BFB8110020F7B50D4606
:101950009DF820100229164604461F46099A18D001
:10196000D72911D0B9B9214633462A4600970C48E9
:1019700000F03CFA0A4800F084FBC1B2094803B009
:10198000BDE8F040FFF7A4BF0C23054800F0ECF9D8
:10199000E9E75023F9E704490320FFF79DFA00BF68
:1019A000BC110020D4110020E83300082D4C2E4E2D
:1019B0008FB5274601213046FFF74AFE25782B4890
:1019C000ADBB00F05EFB0328F4D903232A46694629
:1019D0002648274D00F084FB9DF80030C02B02D133
:1019E0009DF801309BB10121204800F0BDFB21484A
:1019F00000F098FC00231D483B702B7000F041FB69
:101A00000228D7D801213046FFF722FED2E7012372
:101A100003211648237000F0A7FB9DF8021016481A
:101A2000297000F07FFC3046FFF742FEC2E7104D00
:101A300000F027FB2B789842BCD300220B49684664
:101A400000F02AFB6846FFF7C1FE68462D7800F0DB
:101A500018FB291A89B2054800F086FB0023237081
:101A6000A8E700BFD51200202C020020D8130020C8
:101A7000D61200209D380008A2380008000000009F
:101A800010B501211048FFF7E3FD0DA3D3E90023B2
:101A90000D4800F0E9FB04460B48FFF709FE3CB98E
:101AA0000A4B5C709B78002B14BF0320022010BDF2
:101AB000074800F037FC0120F9E700BFAFF30080D2
:101AC00080C3C90100000000B4110020B81100203B
:101AD0001138000830B5134B134D196085B02860DC
:101AE0004FF480721149124800F086FA114B0293AC
:101AF0000024114B0093062223464FF4C061019449
:101B00000E48FFF76FFA23460D4A28684FF4165126
:101B1000FEF780FE18B10B490320FFF7DDF905B091
:101B200030BD00BFB0110020E8190020D7120020FE
:101B3000D813002029380008AD190008E813002048
:101B4000B5180008E833000838B50F4C637823B1A6
:101B50000E4800F0E7FB002038BD01254FF48072ED
:101B600004F11C01201D2375A370657000F044FA78
:101B7000074B197820464A1900F8041B1A702A46A8
:101B800000F0FEF92846E7E7B8110020F637000814
:101B9000D4120020F8B504460D4616461F46FFF73E
:101BA000D3FF60B106480123037587613246294699
:101BB0002046FFF7AFFEBDE8F840FFF761BFF8BD74
:101BC000B81100202DE9F743DDF82C909DF828800E
:101BD00004460D4616461F46FFF7B6FF78B1094B7F
:101BE00001221A752946CDE900893B463246204636
:101BF000FFF7ACFE03B0BDE8F043FFF741BF03B011
:101C0000BDE8F083B8110020022806D0032806D0D2
:101C100010F1FF3018BF01207047082070470220E4
:101C20007047000008B502490320FFF755F900BFCF
:101C3000E833000813B502A90023012201F8053D8D
:101C4000044600F07CFA9DF8030082090AD0D30014
:101C500002A900F03F00984041F8040D204600F032
:101C60006EFA019802B010BDF0B585B004AE3F2900
:101C7000074646F80C1D08D80122314600F0C3F98A
:101C800048B316490320FFF727F9B1F5804F2CBF61
:101C900002250125B1F5800F28BF032504AB2B4495
:101CA00004A913F80C3C03EB851301F8013D012254
:101CB00000F0A9F90028E4D16B1E044656FA83F619
:101CC0000122311B384600F09EF90028D9D1013499
:101CD000E3B29D42F4D105B0F0BD00BFE833000887
:101CE00073B50E466D46044601222946304600F083
:101CF00026FA08B1FFF796FF3046FFF79BFF0190E9
:101D000095E8030084E80300204602B070BD73B577
:101D10006E460D46044601463046FFF7E1FF96E861
:101D200003002B1D83E803002046FFF783FFFF28F5
:101D3000E86001D9FFF776FF82B205F11001204675
:101D400002B0BDE8704000F0FAB938B50446154657
:101D500000F08CF908B1FFF765FF29462046BDE881
:101D60003840FFF781BF0000F8B505460E461F4614
:101D700014461AB91C490320FFF7AEF8322100F0CF
:101D800075F90028F6D13146284600F06FF9002891
:101D9000F0D1D72E25D12178284600F067F9002808
:101DA000E8D16178284600F061F90028E2D1A178F5
:101DB000284600F05BF90028DCD1A078C0F30110C0
:101DC000FFF722FFE1780646284600F04FF9002889
:101DD000D0D1B2B2211D284600F015F90028C9D192
:101DE000F8BD3A462146F6E7E8330008F8B50F4655
:101DF0002021044616461D4600F038F918B10D4959
:101E00000320FFF769F83946204600F02FF9002833
:101E1000F5D131462046FFF727FF29462046FFF738
:101E200023FFAAB20699204600F0EDF80028E6D17B
:101E3000F8BD00BFE8330008F0B589B00D460122B7
:101E40000DF10601044600F07AF918B14B49032060
:101E5000FFF742F89DF806309A09D90903F03F03CD
:101E6000202B8DF806302B7002D007D8042BEDD133
:101E700029462046FFF74BFF09B0F0BD222B02F0A8
:101E800001020BD0232BE1D129716A71A91D012216
:101E9000204600F054F90028EED0D7E7002AD5D02C
:101EA0000029D3D101220DF10701204600F047F9A6
:101EB0000028CBD19DF80730D72BC7D102AA2B1D04
:101EC0001746143518685968164603C60833AB42DE
:101ED0003246F7D11868306099889B79B371B18028
:101EE00001223946204600F02AF902220DF10A01AA
:101EF000204600F024F9BDF80A3001225BBA03A99C
:101F00002046ADF80A3000F01AF901220DF10D015A
:101F1000204600F014F901220DF10F01204600F0D7
:101F20000EF9012204A9204600F009F901220DF161
:101F30001101204600F003F901220DF112012046A3
:101F400000F0FDF801220DF11301204600F0F7F832
:101F500001220DF11501204600F0F1F801220DF1EA
:101F60001601204600F0EBF89DF81500C0F30110B3
:101F7000FFF74AFE0DF1170182B289E7E833000846
:101F8000D20138B50D4642F0340101F0B4010446E7
:101F900000F06CF818B105490320FEF79DFF2946B3
:101FA000204600F063F80028F5D138BDE83300087A
:101FB000F8B50E469DF81C101D46C9019DF8183055
:101FC00041F0010141EA831101F0C10104461746C5
:101FD00000F04CF818B107490320FEF77DFF3146A9
:101FE00020463A46FFF7B1FE29462046BDE8F840B4
:101FF000FFF73ABEE83300080023013A816082808F
:102000000360037370472DE9F041057B0446884661
:10201000164635BB43880088834202EB030C0BD283
:10202000604520DDA068184400F068F963881E440C
:1020300066802846BDE8F081A7886745F2DAFF1A76
:10204000BFB2D61BB6B2B0420DD9A0683A4618440A
:1020500000F054F9324608EB0701A06800F04EF991
:10206000E6E71625E5E741F28A35E2E707B502AB78
:10207000012203F8011D1946FFF7C5FF03B05DF803
:1020800004FB028843889A4285BF8088C018981A4A
:10209000801A80B27047000070B5054608461C469D
:1020A0001646FFF7EEFFA04203D20C490320FEF7CD
:1020B00013FF888834448442F7DC0A888B68AB605D
:1020C00016442E800B88A8801C44A3B2984238BFC7
:1020D0001B1A6B8001232B7370BD00BFE83300080F
:1020E000F8B50E46054611461F461BB1FFF7C9FF5E
:1020F000874221D82B88A8880B44A96893FBF0F26B
:1021000000FB123294B211443A4492FBF0F300FB0C
:10211000132292B2944205D83A46304600F0EEF8C7
:102120000020F8BD001B84B22246304600F0E6F8DD
:102130003A1BA9683019F1E741F28A30F1E738B566
:102140001446134600220546FFF7CAFF58B92A88ED
:10215000A988224492B28A422A8082BFB2FBF1F35C
:1021600001FB13222A8038BD10B5044619B1FFF7D0
:1021700088FF81420DD82388A288194489B29142F0
:10218000218004D9B1FBF2F302FB1311218000205E
:1021900001E041F28A3010BDB1F9002008B5437A60
:1021A00032B903F001014068FEF777FC012008BD59
:1021B000DB43F6E738B5447A40680D46FEF750FC3D
:1021C00000B1E443284604F0010420F8024B042245
:1021D000002100F09EF81223EB80012038BD6FF043
:1021E00085007047094B1A6860B1002101601AB977
:1021F0001860104670471A461368002BFBD1106018
:10220000184670476FF01200704700BFEC190020AD
:10221000044B1A6842F480721A601A685205FCD5A1
:10222000704700BF001002407047012310B5836063
:1022300003684068194600F108040A6832B90A21A7
:10224000FEF72AF8BDE81040FEF7ECB8944208D13A
:1022500082680A601A68002AF1D14FF0FF321A60D2
:10226000EDE71146E9E7000010B519460F4B88B0BD
:102270001B680193044600231046029350EA0103B1
:10228000009408D00A4B06930A46014603A8CDF8ED
:102290001CD0FEF7C9FD01212046FFF7D9F903A89C
:1022A000FEF792FD0298404208B010BDA002002047
:1022B0002B22000870B50D4E0D4CA41BA410002558
:1022C000A54209D10B4E0C4CFDF772FFA41BA410C4
:1022D0000025A54205D170BD56F825309847013537
:1022E000EEE756F8253098470135F2E780390008C7
:1022F00080390008803900088039000810B5431E75
:102300000A44914200D110BD11F8014B03F8014F6E
:10231000F7E702440346934200D1704703F8011BDC
:10232000F9E700000FB40A4B13B51C6824B1A36988
:1023300013B9204600F022FA05AB049AA168019374
:10234000204600F0D9FB02B0BDE8104004B0704751
:102350003002002070B50E46054618B183690BB9EE
:1023600000F00CFAAB69AC6813B9284600F006FA25
:10237000234B9C4217D16C68A3891B071DD5236989
:10238000DBB1013EA36816F8011F013BA360E9B968
:10239000002B2EDA22460A21284600F03FF80130B1
:1023A00011D00A2011E0174B9C4201D1AC68E3E741
:1023B000154B9C4208BFEC68DEE72146284600F03A
:1023C0007FF80028DDD04FF0FF3070BD002B04DA1D
:1023D000A2699A4206DC0A2904D023685A1C2260AA
:1023E0001970CFE72246284600F018F80130C9D10D
:1023F000E9E723680A205A1C22601870E5E700BF4D
:102400000C3900082C390008EC380008024B014652
:102410001868FFF79FBF00BF30020020F8B50E46D6
:102420001446054618B183690BB900F0A7F9214B92
:102430009C422AD16C68A369A360A3891A072ED590
:10244000236963B323692068C01A6369F6B28342C3
:10245000374604DC2146284600F026F928BBA3684D
:10246000013BA36023685A1C22601E70636901301F
:10247000834204D0A389DB0719D50A2E17D1214640
:10248000284600F011F990B10FE00B4B9C4201D1AE
:10249000AC68D0E7094B9C4208BFEC68CBE721460B
:1024A000284600F00DF80028CCD04FF0FF37384612
:1024B000F8BD00BF0C3900082C390008EC380008C2
:1024C000324B70B51D6806460C4625B1AB6913B991
:1024D000284600F053F92E4B9C420FD16C68B4F99A
:1024E0000C309AB215072CD4D00611D409223260D0
:1024F00043F04003A3814FF0FF303EE0254B9C4268
:1025000001D1AC68EBE7244B9C4208BFEC68E6E7DE
:10251000510712D5616B41B104F14403994202D0D5
:10252000304600F019FA00236363A38923F02403E3
:10253000A3810023636023692360A38943F0080318
:10254000A38123694BB9A38903F42073B3F5007FFA
:1025500003D02146304600F0BFF9A28912F00103F2
:102560000CD00023A36063695B42A361236953B964
:10257000B4F90C3013F08000BAD170BD920758BF87
:102580006369A360F2E70020F7E700BF3002002094
:102590000C3900082C390008EC3800088A892DE92C
:1025A000F041054610070C4658D44B68002B05DC5B
:1025B0000B6C002B02DC0020BDE8F081E66A002EE7
:1025C000F9D0002312F480522F68216A2B6032D098
:1025D000606DA3895A0705D56368C01A636B0BB198
:1025E000236CC01A00230246E66A216A2846B047D7
:1025F000431CA38906D129681D2948D8294ACA4005
:10260000D60744D500226260D9042269226004D52D
:10261000421C01D12B6803B96065616B2F600029F2
:10262000C9D004F14403994202D0284600F094F93D
:1026300000206063C0E701232846B047411CC8D191
:102640002B68002BC5D01D2B01D0162B01D12F607C
:10265000B1E7A38943F04003A381ADE70F69002FE1
:10266000A9D093070E6808BF4B690F6018BF0023FD
:10267000A6EB07088B60B8F1000F9CDD43463A4695
:10268000216AA66A2846B047002806DCA38943F0E1
:102690004003A3814FF0FF308EE70744A8EB00080A
:1026A000E9E700BF0100402038B50B6905460C463C
:1026B000DBB118B183690BB900F060F80C4B9C4298
:1026C00009D16C68B4F90C307BB121462846BDE8CD
:1026D0003840FFF763BF074B9C4201D1AC68F1E77C
:1026E000054B9C4208BFEC68ECE7002038BD00BFFA
:1026F0000C3900082C390008EC380008002310B50C
:102700000446C0E90033836081814366C281C0E929
:1027100004338361194608225C30FFF7FAFD054B4C
:102720006362054BA362054BE362054B246223639E
:1027300010BD00BF35300008573000088F3000084A
:10274000B3300008014900F085B800BFA926000891
:1027500070B54A1E682555430E4605F1740100F018
:1027600049F9044640B10021C0E900160C30A060D0
:1027700005F16802FFF7CDFD204670BD836910B5F5
:10278000044633BBC0E912330365124B124A1B687F
:102790008262984204BF0123836100F01FF86060E9
:1027A000204600F01BF8A060204600F017F8002239
:1027B000E06004216068FFF7A1FF01220921A06801
:1027C000FFF79CFF02221221E068FFF797FF012329
:1027D000A36110BDE838000845270008F8B51B4B79
:1027E0001E68B369074613B93046FFF7C7FF48367E
:1027F000D6E90134013B03D5336833B13668F7E7D6
:10280000B4F90C506DB16834F4E704213846FFF791
:102810009FFF30600028F1D10C233B600446204626
:10282000F8BD0B4B6566C4E90055A560C4E90335E6
:10283000C4E905550822294604F15C00FFF769FD4B
:10284000C4E90D55C4E91255E9E700BFE8380008AE
:102850000100FFFF2DE9F8438046894600F1480456
:10286000002614B93046BDE8F883D4E90175013F6C
:1028700001D52468F5E7AB89012B07D9B5F90E30EE
:10288000013303D029464046C84706436835EEE782
:1028900070B50E46B1F90E10002996B014461D46CB
:1028A00007DA00232B60B3891A0610D44FF4806333
:1028B0000EE06A46FDF7B0FC0028F2DB019A02F454
:1028C0007042A2F500535A425A412A60EEE7402373
:1028D0000020236016B070BD8B8973B59D07064636
:1028E0000C4607D504F1470323602361012363618C
:1028F00002B070BD01AB6A46FFF7CAFF00990546FA
:10290000304600F077F848B9B4F90C309A05EFD4A6
:1029100023F0030343F00203A381E3E70D4BB3620B
:10292000A389206043F08003A381009B6361019B26
:1029300020615BB1B4F90E103046FDF772FC28B18E
:10294000A38923F0030343F00103A381A3891D435B
:10295000A581CDE74527000838B50546002945D0B3
:1029600051F8043C0C1F002BB8BFE41800F0F8FB32
:102970001F4A1368104633B9636014602846BDE8E7
:10298000384000F0EEBBA3420CD921686218934294
:1029900004BF1A685B68636004BF52182260046059
:1029A000ECE713465A680AB1A242FAD919685818D6
:1029B000A0420BD120680144581882421960DDD131
:1029C000106852685A6001441960D7E702D90C2395
:1029D0002B60D3E7206821188A4204BF116852682F
:1029E000626004BF091821605C60C7E738BD00BFA2
:1029F000F019002070B5CD1C25F0030508350C2D0D
:102A000038BF0C25002D064601DBA94203D90C2353
:102A10003360002070BD00F0A3FB214A14682146FA
:102A200091B9204C23681BB93046FDF7C5FB2060E7
:102A300029463046FDF7C0FB431C24D10C233360EC
:102A4000304600F08EFBE4E70B685B1B18D40B2BC1
:102A50000FD90B60CD50CC18304600F082FB04F14A
:102A60000B00231D20F00700C31AD3D05A42E250B6
:102A7000D0E78C424B6816BF636013600C46EBE7EF
:102A80000C464968CCE7C41C24F00304A04205D0DE
:102A9000211A3046FDF790FB0130CFD02560DBE7EF
:102AA000F0190020F41900209368013B002B10B4AA
:102AB000936007DA9469A34201DB0A2902D110BCB2
:102AC000FFF7ACBC1368581C10601970084610BCA6
:102AD0007047F8B506460F461446D518AC4201D1EA
:102AE000002007E03A4614F8011B3046FFF7DCFFF0
:102AF000431CF3D1F8BD00002DE9F04F0C469DB00A
:102B000017461D46064618B183690BB9FFF736FE16
:102B10007C4B9C4258D17468A38918075ED5236901
:102B2000002B5BD00023099320238DF8293030231C
:102B30008DF82A3003954FF0010BB846454615F83D
:102B4000013B0BB1252B54D1B8EB070A0BD05346F0
:102B50003A4621463046FFF7BCFF013000F0C28004
:102B6000099B5344099398F80030002B00F0BA8079
:102B700000234FF0FF32CDE90523049307938DF82E
:102B800053301A93A846052218F8011B5E4800F03E
:102B900097FA049B78BBD90644BF20228DF85320B6
:102BA0001A0744BF2B228DF853202A782A2A2AD0CC
:102BB000079AA84600200A25414611F8013B303B00
:102BC000092B69D960B324E0504B9C4201D1B46811
:102BD000A2E74F4B9C4208BFF4689DE72146304670
:102BE000FFF76EFC00289DD04FF0FF301DB0BDE810
:102BF000F08FA846A2E7444A801A0BFA00F0184367
:102C000004904546BEE7039A111D12680391002AFD
:102C100001DB079204E0524243F00203079204935F
:102C200098F800302E2B0ED198F801302A2B38D18D
:102C3000039B1A1D1B680392002BB8BF4FF0FF3394
:102C400008F102080593334D98F800100322284636
:102C500000F036FA40B14023401B03FA00F0049B19
:102C6000034308F10108049398F800102A488DF8EE
:102C70002810062208F1010700F022FA002837D0B8
:102C8000264B1BBB039B073323F007030833039337
:102C9000099B4B44099350E705FB0232012088460B
:102CA0008AE7002308F10108059319460A254046E2
:102CB00010F8012B303A092A03D9002BC3D0059113
:102CC000C1E705FB012101238046F0E703AB009338
:102CD0002246134B04A93046AFF30080B0F1FF3F0A
:102CE0008146D5D1A3895B063FF57EAF09987DE784
:102CF00003AB009322460A4B04A9304600F088F843
:102D0000ECE700BF0C3900084C3900082C390008EA
:102D1000EC3800085239000856390008000000005D
:102D2000D32A00082DE9F04791461F468A680B69AF
:102D3000DDF820809342B8BF1346C9F8003091F8FF
:102D4000432006460C4612B10133C9F8003023680F
:102D5000990642BFD9F800300233C9F8003025681F
:102D600015F0060507D104F1190AE368D9F8002027
:102D70009B1AAB4228DC94F843302268003318BF1A
:102D8000012392062DD404F1430239463046C04750
:102D9000013020D02368E568D9F8002003F006034D
:102DA000042B08BFAD1AA36822690CBF25EAE5759C
:102DB00000259342C4BF9B1AED184FF000091A3446
:102DC0004D451AD1002008E00123524639463046CD
:102DD000C047013003D14FF0FF30BDE8F087013527
:102DE000C3E7E1185A1C302081F84300224494F8CC
:102DF000451082F843100233C5E7012322463946C5
:102E00003046C0470130E6D009F10109D8E700009B
:102E10002DE9F04301F1430C0C46097E85B06E2983
:102E20001746064698460C9A00F0B38022D86329CC
:102E300036D00AD8002900F0B980582900F08380E4
:102E400004F1420584F8421032E0642901D0692976
:102E5000F6D120681368050603F104012AD51B6822
:102E60001160002B03DA2D225B4284F843206F4867
:102E70000A2239E0732900F09D8008D86F2920D0FC
:102E80007029DDD1236843F02003236003E0752916
:102E900017D07829D4D1782384F84530644855E098
:102EA0001368191D1B68116004F1420584F8423053
:102EB00001238CE01B68116010F0400F18BF1BB29B
:102EC000CFE713682568181D1060280601D51B6818
:102ED00002E06806FBD51B8854486F2914BF0A22FC
:102EE0000822002184F843106568A560002DC0F217
:102EF0009580216821F004012160002B3DD1002D37
:102F000040F08E806546082A0BD12368DB0708D580
:102F1000236962689A42DEBF302305F8013C05F15F
:102F2000FF35ACEB05032361CDF800803B4603AAD7
:102F300021463046FFF7F6FE01304DD14FF0FF300D
:102F400005B0BDE8F083394884F84510136821685E
:102F50001D1D1B6815600A060BD5CA0744BF41F04A
:102F6000200121601BB9226822F020022260102279
:102F7000B7E74D0648BF9BB2EFE76546B3FBF2F1FA
:102F800002FB1133C35C05F8013D0B460029F5D166
:102F9000B9E7136825686169181D106028061B6869
:102FA00001D5196002E06A06FBD519800023236170
:102FB0006546B9E71368191D11601D686268002134
:102FC000284600F07DF808B1401B6060636823610B
:102FD000002384F84330A7E723692A463946304660
:102FE000C0470130AAD023689B0713D4E068039B35
:102FF0009842B8BF1846A3E701234A4639463046EF
:10300000C04701309AD00135E368039A9B1AAB425E
:10301000F2DCEBE7002504F11909F5E7002BACD150
:10302000037884F8423004F142056CE75D3900080A
:103030006E39000810B50C46B1F90E10FDF7DAF83C
:103040000028ABBF636DA3891B1823F48053ACBF6A
:103050006365A38110BD2DE9F0411F468B89DB0517
:1030600005460C46164605D502230022B1F90E107E
:10307000FDF7CDF8A389B4F90E1023F48053A38192
:1030800032463B462846BDE8F041FDF7B7B810B5DB
:103090000C46B1F90E10FDF7BAF8431CA38915BF11
:1030A000606523F4805343F48053A38118BFA38148
:1030B00010BDB1F90E10FDF7A5B80000000000002A
:1030C00001F0FF01102A2BDB10F0070F08D010F8D9
:1030D000013B013A8B422DD010F0070F42B3F6D1DD
:1030E000F0B441EA012141EA014122F007047FF0F6
:1030F00000070023F0E80256083C85EA010586EA4D
:10310000010685FA47F5A3FA87F586FA47F6A5FA88
:1031100087F68EB9EED1F0BC01F0FF0102F0070294
:1031200032B110F8013B013A83EA010313B1F8D13F
:103130000020704701387047002D06BF3546033820
:10314000073815F0010F07D1013015F4807F02BF59
:10315000013015F4C03F0130F0BC0138704700BFAA
:1031600070477047425553204641554C54204841C2
:103170004E444C4552004445425547204D4F4E2049
:1031800048414E444C45520044554D4D592048410C
:103190004E444C4552000A49535220737461636B8C
:1031A000206F766572666C6F776564005374616337
:1031B0006B20706F696E74657220636F72727570C8
:1031C0007465642C20726573657420746F20746F4D
:1031D00070206F6620737461636B000A436F6E74B6
:1031E000657874206265666F7265206861726466D6
:1031F00061756C743A0020202072303A20307825B6
:1032000030386C780A20202072313A20307825300E
:10321000386C780A20202072323A203078253038F5
:103220006C780A20202072333A2030782530386CB0
:10323000780A0020207231323A2030782530386CFC
:10324000780A2020206C723A2030782530386C784B
:103250000A20202070633A2030782530386C780AB4
:1032600020207073723A2030782530386C780A0A42
:10327000004653522F4641523A0020434653523A99
:103280002030782530386C780A0020484653523A6E
:103290002030782530386C780A0020444653523A62
:1032A0002030782530386C780A0020414653523A55
:1032B0002030782530386C780A0020424641523A56
:1032C0002030782530386C780A004D4D4641523A0E
:1032D0002030782530386C780A004D6973630045DA
:1032E00058435F5245543A2030782530386C780A7C
:1032F00000417474656D7074696E6720746F20721C
:1033000065636F6E73747275637420737461746532
:1033100020666F7220646562756767696E672E2E1E
:103320002E00496E204744423A0A202073657420DB
:103330002470633D3078256C780A20206672616DB8
:103340006520300A202062740A000A495352207313
:103350007461636B206F766572666C6F776564204D
:103360006279206174206C65617374202564206229
:10337000797465732E0A0048415244204641554CE9
:10338000542048414E444C4552004D454D204D413E
:103390004E4147452048414E444C4552004E4D4910
:1033A0002048414E444C4552005553414745204624
:1033B00041554C542048414E444C455200000000B9
:1033C00000480040000004000508004804080048C8
:1033D000070700270050004000001000020C0048C2
:1033E0000C080048080800354641494C4544204136
:1033F0005353455254494F4E2E002A2A2A205249EF
:103400004F54206B65726E656C2070616E69633A13
:103410000A25730A0A002A2A2A2068616C746564E6
:103420002E0A0A006D61696E28293A205468697372
:103430002069732052494F542120285665727369C0
:103440006F6E3A20554E4B4E4F574E20286275698D
:103450006C646469723A202F686F6D652F766167BE
:1034600072616E742F52494F5429290A0069646CA5
:1034700065006D61696E005F517374617465006E03
:10348000616D650009706964207C20252D323173DF
:103490007C20252D397351207C20707269207C207E
:1034A000737461636B202028207573656429207C08
:1034B0002062617365206164647220207C206375E2
:1034C0007272656E7420202020200A000920202DB1
:1034D000207C206973725F737461636B20202020ED
:1034E00020202020202020207C202D202020202073
:1034F0002020202D207C2020202D207C2025366996
:10350000202825356929207C2025313070207C2019
:10351000253130700A000925336869207C20252D6B
:10352000323073207C20252D387320252E317320D6
:103530007C20253369207C202536692028253569A3
:1035400029207C2025313070207C202531307020CE
:103550000A007C0053554D000925357320252D3276
:1035600031737C2531337325367320253669202845
:10357000253569290A000000A4350008AC3500088B
:10358000B5350008BE350008C4350008CC35000844
:10359000D5350008DE350008E7350008EF350008AE
:1035A000F735000873746F7070656400736C65653F
:1035B00070696E6700626C206D7574657800626C6E
:1035C00020727800626C2073656E6400626C2072F9
:1035D00065706C7900626C20616E79666C00626C5B
:1035E00020616C6C666C00626C206D626F7800729A
:1035F000756E6E696E670070656E64696E67000255
:103600000200000000000040FFFFFFFF010000007B
:10361000001C0000000C0040FFFFFFFF080000003E
:103620000032000061140008711400088D140008B5
:10363000507265737365642042544E25640A0073AA
:10364000656E6420746872656164005B4641494C34
:1036500045445D20696E69742042544E3021004F0C
:103660006E2D626F61726420627574746F6E207467
:103670006573740A00202D2D2054727920707265B4
:103680007373696E6720627574746F6E7320746FE4
:1036900020746573742E0A005B535543434553539E
:1036A0005D006D6F64656D20636F6D6D616E64208C
:1036B000636F6D706C6574656420287375636365F2
:1036C0007373203D202569290A006D6F64656D20A4
:1036D00072657475726E2066696C652064617461D0
:1036E0002066696C65202569206F666673657420A5
:1036F000256C692073697A6520256C69206275667E
:103700006665722025700A006D6F64656D207772A2
:103710006974652066696C652064617461206669FE
:103720006C65202569206F666673657420256C6959
:103730002073697A6520256C6920627566666572FA
:103740002025700A00436F6D6D616E6420636F6D9C
:10375000706C6574656420737563636573736675F7
:103760006C6C790A00436F6D6D616E6420636F6DE0
:10377000706C657465642077697468206572726F17
:10378000720A00436F6D6D616E642074696D6564CB
:10379000206F75740A000000C83700080708004849
:1037A00001000000D33700080704004801000000B2
:1037B000DD3700080E04004801000000E63700086D
:1037C0000D080048080000004C4431286772656508
:1037D0006E29004C443228626C756529004C4433D4
:1037E000287265642900423128557365722062751C
:1037F00074746F6E29007072657620636F6D6D61F1
:103800006E64207374696C6C206163746976650AF8
:10381000002121212074696D656F75742C20756EEF
:103820006C6F636B696E670A006F7373375F6D6FE0
:1038300064656D5F727800726563656976656420A2
:1038400072657370207769746820756E657870652D
:1038500063746564207461675F696420282569204A
:103860007673202569290A00726563656976656447
:1038700020726573702066726F6D3A200A00636F64
:103880006D6D616E642077697468207461672025AE
:103890006920636F6D706C657465640A00736B6991
:1038A0007000666F756E64206865616465722C20B7
:1038B0007061796C6F61642073697A65203D2025A1
:1038C000690A003E2025692062797465730A000048
:1038D000B5210008DF21000881000000B5210008A3
:1038E000992100084500000034020020000000007B
:1038F00000000000000000000000000000000000C8
:1039000000000000000000000000000000000000B7
:1039100000000000000000000000000000000000A7
:103920000000000000000000000000000000000097
:103930000000000000000000000000000000000087
:10394000000000000000000000000000232D302BCC
:103950002000686C4C006566674546470030313290
:1039600033343536373839414243444546003031E7
:103970003233343536373839616263646566000046
:10398000FC1900207003002040000000000000002F
:1039900000000000000000006D34000872340008D0
:1039A000060010010000000000000000FFFFFFFF04
:1039B00034020020000000000C3900082C390008F7
:1039C000EC380008000000000000000000000000CB
:1039D00000000000000000000000000000000000E7
:1039E00000000000000000000000000000000000D7
:1039F00000000000000000000000000000000000C7
:103A000000000000000000000000000000000000B6
:083A1000000000002821000065
:0400000508000515D5
:00000001FF
