:020000040800F2
:100000000002002015050008B10400086D04000876
:10001000C1040008D1040008E10400080000000049
:100020000000000000000000000000005104000873
:10003000F104000800000000350400080105000874
:10004000AD010008AD010008AD010008AD010008D8
:10005000AD010008AD010008BD0A0008BD0A000896
:10006000BD0A0008BD0A0008BD0A0008AD0100086D
:10007000AD010008AD010008AD010008AD010008A8
:10008000AD010008AD010008AD010008AD01000898
:10009000AD010008AD010008AD010008BD0A00086F
:1000A000AD010008AD010008AD010008AD01000878
:1000B00091140008AD010008AD010008AD01000871
:1000C000AD010008AD010008AD010008AD01000858
:1000D000AD010008AD010008AD010008D10800081D
:1000E000BD0A0008AD01000800000000000000008B
:1000F0000000000000000000000000000000000000
:1001000000000000AD01000897140008AD010008D0
:10011000AD010008D7080008AD010008AD010008D6
:10012000AD010008AD010008AD010008AD010008F7
:10013000AD010008AD010008AD010008AD010008E7
:10014000AD010008AD010008AD010008AD010008D7
:10015000AD010008AD010008AD010008AD010008C7
:10016000AD010008AD010008AD010008AD010008B7
:10017000AD010008AD010008AD010008000000005D
:10018000AD010008AD010008AD010008AD01000897
:10019000AD010008AD010008AD010008AD01000887
:1001A000AD010008AD010008AD01000800F0A8B9DC
:1001B00000F0B8BA7047000070B50C46064600F073
:1001C000A1FA094B094A1D682C44944202D8084AF6
:1001D000944207D20C2333604FF0FF3500F09AFAB7
:1001E000284670BD1C60F9E70002002000000520D1
:1001F000701A00201946104600F0A0BA19461046A1
:1002000000F0A4BA132303604FF0FF3070471323AC
:1002100003604FF0FF307047132303604FF0FF304F
:10022000704702294FF0000303608CBF00200120BB
:10023000704700001349144B10B50C68002084422D
:1002400094FAA4F1B1FA81F1104C186008BF4FF094
:10025000FF310F4B54F821101A680968A1F1080406
:1002600094420ED022B11079092804BF0A201071DF
:10027000092201F8042C074A31F9021C11801C6084
:10028000012010BDC4020020D0020020D8020020AE
:10029000CC020020C8020020082930B503791AD901
:1002A000082B14D842791A4B53F8225000F1080455
:1002B0007DB12D68856053F822502C6043F82240B0
:1002C000144A44790123A340146823431360017145
:1002D00030BD8460F2E7082BF9D945790C4B53F80F
:1002E00025203AB11468A2420BBF0022246843F8CB
:1002F00025201460427953F82230002BE7D1054CB9
:10030000012303FA02F2236823EA02032360DEE7F3
:10031000D8020020C402002008B5094B1B681A79D6
:10032000082A02D95B79834205D900F0F6F918B1A1
:10033000044B01221A6008BDBDE8084000F072B805
:10034000CC020020D002002008B500F0DBF9094BF8
:10035000094A1B88094D1BB2002442F82340084A71
:10036000286813682146013B1360FFF795FF2C6056
:1003700000F054F8C802002018030020CC0200202E
:10038000D4020020134423F0030310B54FF077325A
:100390001C1F43F8042C620742BF4FF0883243F819
:1003A000082CA3F108044FF0807344E902030D4BBD
:1003B00044F80C3C0022032344E905322246012381
:1003C000022044E9073042F8201D0B2342F8043D87
:1003D000013B032BFAD120466FF0020340F8443D65
:1003E00010BD00BF490300080548064A064B0168D6
:1003F000914201D1984201D3181A70470430F6E7B0
:1004000000000020FEE7FEE700020020EFF3088076
:1004100070470000004870470000002000F076F9A7
:1004200001DFFEE7024A536843F080535360704790
:1004300000ED00E0EFF3098020E9F00F40F804ED53
:1004400002490968086000F003F80000CC020020AF
:10045000FFF7F0FE04480068016801C9B1E8F00F39
:1004600081F3098800470000CC0200200D4B0E4AA2
:100470000E496846904203D8984201D9002102E013
:1004800009468D46012104207246024202D1EFF353
:10049000088001E0EFF309802DE9F00F6B4600F0D2
:1004A0006FF800BF58010020000005200002002066
:1004B00008B50249042000F027FD00BFDD3C00081C
:1004C00008B50249062000F01FFD00BFCA3C000825
:1004D00008B50249072000F017FD00BFA43A000844
:1004E00008B50249082000F00FFD00BFE93C0008F4
:1004F00008B50249092000F007FD00BFB63A000820
:1005000008B502490A2000F0FFFC00BFC83A000805
:100510007047704708B5FFF7FBFF6A46114B124959
:10052000934213D3114A124B12498B4211D3124BEF
:10053000124A0021934211D3FFF7EBFF00F0B4FC05
:1005400002F056FBBDE8084000F018BD43F8041B5C
:10055000E6E752F8040F43F8040BE6E743F8041B00
:10056000E8E700BF00000020FEE7FEE7B444000813
:1005700000020020C4020020C4020020701A0020E3
:100580002DE9F04F9A46494B8FB093469A6B0392F0
:100590005A6B04929F6ADA6A05921A6BDB6B0793B7
:1005A000434B06921A68434B9A420446884602D04F
:1005B000414802F0C9FBB8F1000F4ED03F4802F0AD
:1005C000C3FB00252E463E4802F0BEFB39463D489F
:1005D00002F046FB05993C4802F042FB06993B4875
:1005E00002F03EFB07993A4802F03AFB3A0403D581
:1005F0000399384802F034FB3B0603D5049936488A
:1006000002F02EFB354802F09FFB5946344802F0B9
:1006100027FBB8F1000F1BD1324802F095FB3146A1
:10062000314802F01DFB6946304BC91A03D54942D7
:100630002F4802F015FB20468268C36801698C468A
:1006400041698E46AD46514691E8F00F4168006819
:1006500001BE2849052000F057FCD4E90230D4E956
:100660000669D4E9001208902069099060690A902F
:1006700019F4007F20480B91CDE90C230CBF04F145
:10068000200504F1240502F05FFB089B00930B9901
:100690001A48DDE90C2302F0E3FACDF80090334666
:1006A000DDE90912164802F0DBFA8CE700ED00E004
:1006B00000000020FEE7FEE7D63A0008EC3A00080A
:1006C000B13B0008BA3B0008CA3B0008DA3B00080F
:1006D000EA3B0008FA3B00080A3C00081A3C000804
:1006E0001F3C0008313C0008623C00085801002013
:1006F0008A3C0008B73C00081B3B0008363B00085A
:10070000733B0008EFF3108072B6704762B6EFF3E8
:100710001080704780F310887047EFF30580C0B2F7
:1007200070470000034B044A4FF4E131002000F011
:1007300071B800BF04020020411100080A460146BA
:10074000014800F008BD00BF0402002010B50A46B1
:100750000C460146002000F029F8204610BD00009C
:1007600038B514230E4A4343D458E569AA0608D580
:100770000C4BA18C03EBC002C9B253F83030506867
:1007800098472B0742BF236A43F008032362064BB6
:100790001B681BB1BDE83840FFF744BE38BD00BF41
:1007A000003D0008DC030020D0020020012810B525
:1007B0000AD8142358430A4B1B580A44914207D1C4
:1007C000DA695206FCD510BD9321064800F098FC6A
:1007D00011F8010BDC692406FCD580B21885EDE721
:1007E000003D0008283D0008012808B503D9C621AE
:1007F000064800F085FC064B142202FB0030BDE8E1
:1008000008404168807C00F057BD00BF283D0008CB
:10081000003D000801282DE9F84304460E4617461E
:1008200003D93521264800F06BFCDFF8A080254A6B
:10083000142505FB008542F83070D5F80C9002EBCA
:10084000C00201215360484600F048F8484600F0D5
:100850001DF9697C484600F0DBF84FB1D5F80890E7
:100860000021484600F03AF8297C484600F0D0F8CC
:100870002046FFF7B9FF14235C4308EB040558F842
:100880000440A87C002323606360A36000F0F8FCB0
:10089000B0FBF6F080B2E0607FB1EB7C01215AB290
:1008A00003F01F0301FA03F35209074941F822300C
:1008B0002D2323600020BDE8F8830923F9E700BF5A
:1008C000283D0008DC03002000E100E0003D0008B6
:1008D0000020FFF745BF0120FFF742BFF8B50D46E6
:1008E0000127C0F3832120F00F0400F00F0607FA60
:1008F00001F1032000F0E0FC06FA07FC0323226864
:1009000003FA0CF3D84302402260226805F0030189
:1009100001FA0CF111432160E2681040E060E168E7
:10092000C5F3810202FA0CF20A43E2606268B74042
:1009300022EA070767606268C5F30015B5401543F2
:100940006560A2681343A3600020F8BD2DE9F04163
:1009500000F00F0415462B4A42F8343002EBC40273
:10096000069B5360884601210646C0F3832708464C
:1009700000F0A2FC41463046FFF7B0FF042C224BAA
:1009800037DCA11D01228A401A60204B01229868A1
:1009900002FA04F1C94308409860D3F808C005EA98
:1009A0000200A04040EA0C009860D8680140D9607D
:1009B000D540D968A54004F00C0404F1804404F546
:1009C00080340D43DD6006F00301A06889000F2527
:1009D0008D4020EA0500A060A0688F40074302FA1E
:1009E00006F6A7605E611A6816431E600020BDE827
:1009F000F081092C02DC4FF40002C5E74FF480724D
:100A00005A60C2E7EC03002000E100E0000401406E
:100A100020F00F03F0B500F00F041D6867000326F7
:100A2000BE4025EA06051D601D680222072C02FA59
:100A300007F242EA050294BF002401241A6003EB86
:100A4000840300F007001A6A80000F24844022EA21
:100A500004021A621A6A01FA00F010431862F0BD2B
:100A6000044B00F00F011A68012088401043186001
:100A7000704700BF0004014020F00F0300F00F009A
:100A80001A69012303FA00F01040704720F00F02AA
:100A9000012300F00F0003FA00F09061704720F08E
:100AA0000F0200F00F001030012303FA00F09061F4
:100AB000704709B1FFF7EABFFFF7F1BF2DE9F04139
:100AC0000F4D104F6E692A68002416404FF0010840
:100AD00008FA04F3334206D06B6107EBC40357F8FE
:100AE0003420586890470134102CF1D1064B1B6814
:100AF0001BB1BDE8F041FFF795BCBDE8F08100BF38
:100B000000040140EC030020D0020020002000F08F
:100B10006DBC0000034B1968024611B9084600F08D
:100B200045BC70476C04002010B5094A136843B1F6
:100B30009C6881688C4207D303D15C6841688C4211
:100B400002D90360106010BD1A461B68EFE700BFB2
:100B500074040020F0B51E4E1E4D33681E4C013348
:100B600033601E4B00201A6818602B6822601946FB
:100B70000746B44621B1DCF800E08E68764513D90B
:100B800000B129607FB100213960FAB183B15168A9
:100B9000586881428CBF19461146084612681B6886
:100BA00042B903602160F0BD0F4601200968E1E70A
:100BB0001146F2E70BB90260F4E755685E68B5428A
:100BC0008CBF1D46154605602846E7E72360EAE727
:100BD00070040020740400207C04002078040020AD
:100BE0002DE9F0412B4F2C4C01233B60236893B936
:100BF000FFF7B0FFFFF78AFF0130FBD000254FF071
:100C0000000823685BB9FFF781FF854222D9FFF70F
:100C1000A1FF0025F5E7FFF779FF0546EFE75E68DE
:100C2000FFF774FF854204D8864202D9361A132E84
:100C3000E9D823685E68FFF769FF854201D88642DC
:100C4000F7D823681A682260C3E90188D3E9032032
:100C50009047D6E723686BB15E68FFF757FF143EF5
:100C600014308642CDD300233B603046BDE8F041CE
:100C7000FFF750BFFFF74AFF85420646C7D810F17D
:100C8000150F04D9FFF742FF8642FBD9BFE74FF0AB
:100C9000FF36E8E76C0400207C040020144A136847
:100CA000834210D11B6813601BB158681438FFF7DA
:100CB00031BF4FF0FF30FAE79842196801D1116057
:100CC00070471A460B46002BF6D10A4A13681BB927
:100CD000094A136833B9704798421968EFD01A4629
:100CE0000B46F4E798421968E9D01A460B46F1E73B
:100CF0007C040020780400207404002008B5002340
:100D00001846054A054900F083FB4FF0FF30BDE867
:100D10000840FFF7FFBE00BFE10B000840420F0094
:100D2000F8B504460D46FFF7F1FE0023854207465D
:100D3000236011D3A5F11E0383420DD21E35FFF7A8
:100D4000E5FE8542FBD3FFF7E1FE8542FBD8D4E9FF
:100D5000033098470020F8BDFFF7D4FC63680646CF
:100D60000BB9A36813B12046FFF798FF194B6560D4
:100D70001A681B68BD4238BF0132A260A2689A425D
:100D800006D92046FFF7D0FE3046FFF7C3FCE1E767
:100D9000BD4210D9104B1A68194612B150688542ED
:100DA00015D222601C600B689C42EDD1A5F11400A5
:100DB000FFF7B0FEE8E7094A136813B159688D429E
:100DC00002D223601460DFE71A461B68F5E713467A
:100DD0001268E2E7700400207C0400207804002000
:100DE00038B50446FFF78EFC636805460BB9A36867
:100DF00013B12046FFF752FF2846BDE83840FFF701
:100E000089BCC36870B504460D46C3B1FFF7E8FF5F
:100E10001D2D0CD8FFF77AFE0646FFF777FE801BE4
:100E20008542FAD8D4E90330BDE870401847FFF78F
:100E30006DFE29182046BDE87040FFF771BF70BDF8
:100E40002DE9F04704460E4615461AB9BDE8F047AD
:100E5000FFF7D7BFFFF756FC636807460BB9A368D7
:100E600013B12046FFF71AFFDFF830A0FFF74EFE60
:100E7000DAF800808146FFF749FE8145F6D836183A
:100E8000454428BF013520466660A560FFF74CFE4B
:100E90003846BDE8F047FFF73DBC00BF70040020B6
:100EA00008B5FFF72FFCFEE738B500F0DBF90F4C73
:100EB0000F4D10480121FFF711FD4FF48043A3614E
:100EC00001212846FFF70AFD0121A9610A48FFF721
:100ED00005FD4FF40043A36100210848FFF7FEFC25
:100EE00000210748BDE83840FFF7F8BC000C004877
:100EF000000400480E0C00480F0C00480018004881
:100F0000011800487047000008B50F4B1A680C46DE
:100F10009AB9012203281A6003D171460B4801F0E7
:100F20009FFE21460A4801F09BFE00F027F9094880
:100F300001F096FE084801F093FEFFF7E3FBFFF790
:100F4000E1FFFFF7ADFF00BF8004002074410008FF
:100F5000593D0008813D0008753D000808B500F0C6
:100F60006DFC034801F07CFE00F086FB002008BD0C
:100F7000833D000808B500F0D1F8FCE71FB5FFF786
:100F8000C1FB0E4B0E481B68029300240D4B0093CF
:100F90000F220C234FF48071019400F03BF80A4BB0
:100FA0000A481B68CDE90143094B009307220C2333
:100FB0004FF4C06100F02EF8FFF730FA180200205D
:100FC00084040020750F00081C0200208405002006
:100FD0005D0F000838B50B79082B03D9712108483B
:100FE00000F08EF84C7901F10802036813B98B60A8
:100FF000026038BD13F8035CAC42F8D31846F4E73E
:10100000D63D0008031F53F8042F9A42FBD0181A4C
:10101000704700000F2A2DE9F74F05468B46914691
:101020009A4633D810F003031BBFC3F10403ED1835
:101030000B46CB1A303B23F003031AF0080F05EBE5
:10104000030419D12D6003E012600432A242FBD3E5
:101050000193FFF757FB2849019B8046012251F875
:10106000226017B2AEB10132212AF8D14046FFF713
:1010700051FB6FF08A073AE02A46E7E70121204654
:10108000FFF70AF94046FFF745FB30E06FF0150720
:101090002DE041F822402A46E780DDE90C01FFF708
:1010A00071F90E9B154AA3624FF0FF33C4E907366E
:1010B0001368206001331AF0010F6562C4F82CB088
:1010C00084F805902671C4E90266C4E90466A66145
:1010D0001360D3D10A212046FFF7DEF81AF0040F7F
:1010E000D0D14046FFF716FB4846FFF715F93846C2
:1010F00003B0BDE8F08F00BF18030020D402002029
:101100000A4608B50146034801F0AAFD024903203A
:10111000FFF7FAFEE43D0008473D0008074A08B51E
:10112000136923F004031361FFF7ECFABFF34F8F49
:1011300030BFBDE80840FFF7EDBA00BF00ED00E0AA
:1011400038B5054600F0C6F9044605F1100000F078
:10115000E7FB204638BDF8B504460D46164600F1BB
:10116000100732462946204600F0A1F900B1F8BD2B
:101170000121384600F0A4FBF3E700002DE9F04F11
:101180002D4B2E4A1B882E492E48DFF8CC90DFF8D5
:10119000CCA0DFF8CCB08BB00126ADF8243001F044
:1011A0005FFDFFF721F90546FFF734F90446FFF725
:1011B0002DF92A46009023464FF40071224801F091
:1011C0004FFD25EAE5754FF4007759F826401CB32A
:1011D00094F80480E26A5AF82830606A079317444A
:1011E0000692FFF70FFF069AB4F90610079B101A34
:1011F00022680592626ACDE90302E26A029262798C
:10120000019209AAB8F1080FC8BF01320092054443
:10121000A26A584601F024FD0136212ED5D10B4B90
:101220000093CDE901750A4A0A48194601F018FDF4
:101230000BB0BDE8F08F00BFEE3D0008F03D0008A8
:10124000F63D0008FB3D0008433E0008C93E00088B
:10125000CB3E0008CF3E000818030020F03E0008F7
:101260008D3E000808B500F081FB4FF08051002052
:1012700000F022F800F0A0FBBDE8084000F03DB906
:10128000034A044B00280CBF10461846704700BFA5
:10129000002D3101005A6202044A054B002818BF94
:1012A0001346044A105C5843704700BF005A62025C
:1012B000002D3101773F0008042808D8DFE800F04E
:1012C000030A0F1419000D4A936D19439165BFF37A
:1012D0004F8F7047094A136E19431166F7E7074AA3
:1012E000936C19439164F2E7044AD36C1943D164B7
:1012F000EDE7024A136D19431165E8E7001002405B
:10130000042821D8DFE800F003090F151B000F4A5D
:10131000936D23EA0101916570470C4A136E23EA2D
:10132000010111667047094A936C23EA0101916437
:101330007047064AD36C23EA0101D1647047034A1F
:10134000136D23EA01011165704700BF00100240D0
:101350002DE9F843124ADFF8508003010746D558BB
:101360002E69EB6800241E4008EBC0090223A3404D
:10137000334209D0EA68D9F8040022EA0303EB609B
:10138000214658F8373098470134042CEED1054BEC
:101390001B681BB1BDE8F843FFF744B8BDE8F8830C
:1013A0007C3F0008D0020020840B0020032910B5E8
:1013B00016DC0D4B00011C18185863681A4001F127
:1013C0000C0300EB83035A600269022303FA01F164
:1013D00022EA01020261C3681943C160002010BD06
:1013E0004FF0FF30FBE700BF7C3F00080001024BDD
:1013F0001B58586A704700BF7C3F0008034B000130
:101400001A58136843F00103136070477C3F0008CB
:1014100001282DE9F84305460F4630D8194E1A49E0
:10142000040106EB040841F8302098F80C9001EB19
:10143000C00148464B60D8F80810FFF73DFF365909
:10144000D8F804300024346048467460F362FFF733
:1014500023FF98F80D20B0FBF7F00123013851B2BB
:1014600002F01F02B062490973619340074A28469F
:1014700042F82130FFF7C2FF2046BDE8F8834FF065
:10148000FF30FAE77C3F0008840B002000E100E019
:101490000020FFF75DBF0120FFF75ABF8268016897
:1014A000531C83604368013B1340C85C7047F8B528
:1014B00005460F46164614461CB1AA68EB689A42C8
:1014C00001D1301BF8BD2846FFF7E8FF013C07F8C3
:1014D000010BF1E7C268436830B58468121B9A4279
:1014E00008D0C2680468013B1340551CC560E15434
:1014F000002030BD4FF0FF30FBE7002001F01ABAAA
:1015000008B50020FFF772FF08BD000010B50B48BA
:101510000B4C01F019FCFFF7F3FF2268801A094A0F
:10152000904206D8084801F00FFCFFF7E9FF074B8F
:101530001860FFF7E5FF206010BD00BFBA3F00084C
:10154000AC0B00203F420F00CA3F0008B40B002044
:1015500038B50B4C054601F0F7FB2268012A05D18E
:10156000084801F0F1FB284600F044F923682BB944
:10157000054801F0E9FB284600F018F9002038BDC5
:10158000BC0B0020654000086E40000810B50B4CF5
:10159000FFF7B6FF2268801A094A90420AD9094A21
:1015A0001368012B83F001010CBF07480748116045
:1015B00001F0CAFBFFF7A4FF206010BDC01100209E
:1015C00020A10700BC0B00209C3F0008AA3F000898
:1015D00008B50949094800F031FA10B1084801F08E
:1015E000B3FB064800F089FA20B10648BDE8084080
:1015F00001F0AABB08BD00BF38400008940B0020D2
:10160000F43F00080740000813B500240094094B7C
:10161000094801222146FFF799F9A04205DA074857
:1016200001F092FB204602B010BD0348FFF718FA04
:101630000120F8E78D15000800180048E03F000879
:1016400013B500240094094B094801222146FFF7F5
:101650007DF9A04205DA074801F076FB204602B08A
:1016600010BD0348FFF7FCF90120F8E70D1500084D
:101670000D0400481D4000082DE9F043234C244E82
:10168000244DDFF8AC80244FDFF8A89001232360BD
:10169000224B002285B01A60FFF79AFFFFF7B4FFD4
:1016A000FFF7CEFF00F06CF8FFF72AFF3060FFF77E
:1016B00027FF2860FFF724FF194B1860FFF720FF72
:1016C0003368C01A404517D801232360FFF718FF7D
:1016D0002B68C01A4845F1D9FFF712FF114B02934E
:1016E000114A286000230092019306224FF4C06142
:1016F0000E48FFF78FFCE1E72368012BDED10023C2
:101700003846236001F020FBD8E700BFB80B00206B
:10171000B40B0020B00B00205C400008BC0B002084
:10172000AC0B00205040000851150008C00B0020F1
:10173000FF23F4003F4B4C0080F00101014801F011
:101740008FBA00BFD540000807B5009313460A467C
:101750000146034801F084FA03B05DF804FB00BFC2
:10176000FD40000807B5009313460A4601460348AA
:1017700001F076FA03B05DF804FB00BF3B410008BE
:101780007FB5094A07CA03AB83E807001946012061
:1017900000F098FB002101AB0822084600F004FC91
:1017A000012007B05DF804FB7840000807B50D4B39
:1017B0000193D7230093042203460021402000F028
:1017C0000BFC022806D1084801F04AFA012003B0B8
:1017D0005DF804FB032801D10448F5E70128F5D1A1
:1017E0000348F1E72002002084400008A4400008DC
:1017F000C240000807B50D4B019302230093042259
:1018000003460021402000F0E7FB022806D10848EB
:1018100001F026FA012003B05DF804FB032801D192
:101820000448F5E70128F5D10348F1E72C02002030
:1018300084400008A4400008C240000808B5FFF733
:101840005DFABDE8084000F001B800002DE9F34161
:10185000174C184D184FDFF8648004F16006297AA0
:101860002B68656011F0FB0FA36001D008291BD124
:10187000E7606868FFF732F86B7A13F0060F08D05C
:1018800003F00403ADF80030E36869465B6828465E
:1018900098472046103400F043FFB44205F10C0590
:1018A000DDD102B0BDE8F081C4F80C80E1E700BFF3
:1018B000C411002078410008D4430008E043000828
:1018C00070B504460D46FEF71DFF236806463BB97A
:1018D0004FF0FF332360FEF71DFF0125284670BD42
:1018E000C5B10E4B1D6802212846FEF7D5FC2368C2
:1018F00001330AD105F1080323600023AB603046B1
:10190000FEF708FFFEF78EFDE7E729462046FFF7C2
:1019100061FBF4E7FEF7FEFEE0E700BFCC0200202B
:1019200070B50446FEF7EEFE256806461DB9BDE813
:101930007040FEF7EFBE6B1C02D100232360F6E778
:1019400028460A2150F808392360FEF7A5FC2368D1
:1019500013B94FF0FF33236015F8034C3046FEF700
:10196000D9FE2046BDE87040FEF7D6BC0F4BD3F839
:10197000882042F4700210B5C3F888200C4A9A609F
:101980000C4C102283F822200021DA7760180131F4
:101990005B2980F80023F9D11A6942F010021A611C
:1019A0005A6942F400725A6110BD00BF00ED00E0B8
:1019B0000000000800E100E038B5FEF7A3FE1C4D72
:1019C0000023AB61044600F0C1FE42F20153AB605C
:1019D0002B469A6802F00C02042AFAD1154A40F20A
:1019E000047111604FF480721A60B9221A601A688B
:1019F0009107FCD54FF04062C3F888200E4ADA60A8
:101A00001A6842F080721A601A689201FCD59A68CE
:101A100042F003029A609A6802F00C020C2AFAD192
:101A200000F0A0FE2046BDE83840FEF773BE00BFC0
:101A3000001002400020024051140001F7B50E468C
:101A4000044605460FCE0FC596E80300002685E83C
:101A50000300206800F0BCFF217900968023242237
:101A6000206801F0B7F80546206800F0C7FF277B23
:101A7000206847F00F0700F0ABFF217900963B4646
:101A80002022206801F0A6F8637B217900960544A6
:101A90002322206801F09EF8334621790096222205
:101AA0000544206801F096F831460544A068FEF729
:101AB00015FF237DA17B009643F080036022206800
:101AC00001F088F8637DA17B0096054461222068BF
:101AD00001F080F8A17B009633460222054420687D
:101AE00001F078F80544206800F088FF314620694D
:101AF000FEF7F4FEE81703B0F0BD73B50446002608
:101B0000006800F065FF21790096272320222068D5
:101B100001F060F82179009633462122206801F017
:101B200059F821790096054640232222206801F0C9
:101B300051F821790096334605442322206801F0AC
:101B400049F821790096054410233222206801F0DB
:101B500041F821790096334605443322206801F08C
:101B600039F8217900960A2330220544206801F0D3
:101B700031F80544206800F041FFE81702B070BD5D
:101B8000014801F06DB800BF4F4200082DE9F04355
:101B9000314C324FDFF8D890C5B0064600253046AC
:101BA00000F00BFD80B965B12B4C2D48217801F078
:101BB00057F8237D002B46D02A48FFF7B1FE0023BB
:101BC000637045B0BDE8F0836946304600F0BEFB67
:101BD0009DF80030202B26D005D8042B16D08B2161
:101BE0002148FFF78DFA222B29D0232BF7D19DF81E
:101BF00006102278914205D19DF805309DF80450D9
:101C0000A370CCE7194801F02BF8C8E73B68D3F87C
:101C10000880B8F1000FC2D004ABDDE902129DF8D4
:101C20000400C047BBE7237D2BB1039AA06904A938
:101C300001F002F8B3E73B68D3F80480E9E74846CF
:101C400001F00EF8ABE7054B1B681B68002BB6D004
:101C5000A0789847B3E700BF2C1200202412002080
:101C6000EE420008281200209F4200086E42000841
:101C7000D842000808B5044800F094FC0348BDE8C9
:101C80000840FFF74DBE00BF4C1400205802002052
:101C9000F7B5164D164E074616480C4600F0E0FF05
:101CA0002846FEF7F3FE002141F2883000F042FFA3
:101CB000114B00936946C0233068ADF80430072209
:101CC0008DF80640FEF772FD224639463068FEF771
:101CD0006DFD0A4800F0C4FF2846FEF7E0FE2146ED
:101CE000074800F0BDFF03B0F0BD00BF0908004881
:101CF0005C1A002033430008415424444543000843
:101D00005843000837B50C4C4FF0000C251D01233B
:101D1000CDE9003C13460A460146284600F0E2FBA6
:101D2000284600F04AFCC1B204F11C0003B0BDE833
:101D30003040FFF7ADBF00BF2C120020F7B50D46B5
:101D40009DF820100229164604461F46099A18D00D
:101D5000D72911D0B9B9214633462A4600970C48F5
:101D600000F0CCFA0A4800F028FCC1B2094803B0E0
:101D7000BDE8F040FFF78CBF0C23054800F004FAE3
:101D8000E9E72C23F9E74FF4B6710348FFF7B8F9F8
:101D900030120020481200209F4200082D4C2E4E89
:101DA0008FB5274601213046FFF78AFD25782B485D
:101DB000ADBB00F002FC0328F4D903232A46694690
:101DC0002648274D00F02AFC9DF80030C02B02D198
:101DD0009DF801309BB10121204800F063FC2148AF
:101DE00000F03EFF00231D483B702B7000F0E5FB28
:101DF0000228D7D801213046FFF762FDD2E7012340
:101E000003211648237000F04DFC9DF8021016487F
:101E1000297000F025FF3046FFF782FDC2E7104D24
:101E200000F0CBFB2B789842BCD300220B496846CC
:101E300000F0CEFB6846FFF7A9FE68462D7800F05B
:101E4000BCFB291A89B2054800F02CFC0023237042
:101E5000A8E700BF49130020580200204C140020BE
:101E60004A1300200D430008124300080000000040
:101E700010B501211048FFF723FD0DA3D3E900237E
:101E80000D4800F081FE04460B48FFF749FD3CB9C0
:101E90000A4B5C709B78002B14BF0320022010BDFE
:101EA000074800F0DDFE0120F9E700BFAFF3008036
:101EB00080C3C90100000000281200202C1200205D
:101EC0002942000830B5194B194D196085B02860BA
:101ED0004FF480721749184800F02AFB174B029301
:101EE0000024174B01940093062223464FF4C0614F
:101EF0001448FFF78FF82346134A28684FF4165109
:101F0000FEF788FC044620B14FF480710F48FFF7BC
:101F1000F7F801210E48FEF7E1FC00940D4B0E4846
:101F200001220821FEF712FD05B030BD2412002069
:101F30005C1A00204B1300204C1400204142000882
:101F40009D1D00085C140020751C00089F420008BD
:101F500009080048811B00080514004838B50F4CDB
:101F6000637823B10E4800F07BFE002038BD0125C8
:101F70004FF4807204F11C01201D2375A37065705D
:101F800000F0D6FA074B197820464A1900F8041BCE
:101F90001A702A4600F08AFA2846E7E72C12002039
:101FA0000E42000848130020F8B504460D461646B8
:101FB0001F46FFF7D3FF60B1064801230375876111
:101FC000324629462046FFF79DFEBDE8F840FFF760
:101FD0004FBFF8BD2C1200202DE9F743DDF82C90FF
:101FE0009DF8288004460D4616461F46FFF7B6FFAB
:101FF00078B1094B01221A752946CDE900893B4683
:1020000032462046FFF79AFE03B0BDE8F043FFF7E3
:102010002FBF03B0BDE8F0832C120020022806D0A9
:10202000032806D010F1FF3018BF012070470820A8
:1020300070470220704713B502A90023012201F85E
:10204000053D044600F019FB9DF8030082090AD003
:10205000D30002A900F03F00984041F8040D20464B
:1020600000F00BFB019802B010BD0000F0B585B088
:1020700004AE3F29074646F80C1D08D80122314618
:1020800000F05DFA58B33F211648FFF739F8B1F573
:10209000804F2CBF02250125B1F5800F28BF0325F5
:1020A00004AB2B4404A913F80C3C03EB851301F893
:1020B000013D012200F043FA08B14C21E4E76B1E18
:1020C000044656FA83F60122311B384600F037FAEF
:1020D00008B14F21D8E70134E3B29D42F3D105B0F6
:1020E000F0BD00BF6443000873B50E466D4604465C
:1020F00001222946304600F0C0FA18B155210748A0
:10210000FEF7FEFF3046FFF796FF019095E80300CB
:1021100084E80300204602B070BD00BF644300089D
:1021200073B56E460D46044601463046FFF7DCFFA8
:1021300096E803002B1D83E803002046FFF77BFF92
:10214000FF28E86003D9B8210548FEF7D9FF82B21D
:1021500005F11001204602B0BDE8704000F08DBAD4
:102160006443000838B50446154600F01BFA18B160
:102170005B210448FEF7C4FF29462046BDE83840ED
:10218000FFF774BF64430008F7B505460E461F46C7
:1021900014461AB960215848FEF7B2FF322100F008
:1021A00001FA08B16121F6E73146284600F0FAF954
:1021B00008B16221EFE7D72E2AD12178284600F016
:1021C000F1F908B16621E6E76178284600F0EAF9FE
:1021D00008B16721DFE7A178284600F0E3F908B1EC
:1021E0006821D8E7A078C0F30110FFF717FFE17866
:1021F0000646284600F0D6F908B16A21CBE7B2B20C
:10220000211D284600F09BF9002873D06B21C2E7FE
:10221000022E3AD194F82810490001F0FE01284618
:1022200000F0C0F908B17021B5E794F829102846EC
:1022300000F0B8F908B17121ADE710222146284617
:1022400000F07DF908B17221A5E71022A1182846F7
:1022500000F075F908B173219DE7236A02A91BBA42
:1022600041F8083D0422284600F069F908B17521BB
:1022700091E7636A02A91BBA41F8043D042228468B
:1022800000F05DF9B0B3782185E7032E2AD194F8E8
:102290002010490001F0FE01284600F083F908B142
:1022A0007D2178E794F82110284600F07BF908B1E9
:1022B0007E2170E708222146284600F040F908B147
:1022C0007F2168E70822A118284600F038F908B1F4
:1022D000802160E71022A118284600F030F948B1AB
:1022E000812158E73A462146284600F028F908B1EE
:1022F000852150E703B0F0BD64430008F8B50F46F0
:102300002021044616461D4600F04CF918B18C21D8
:102310000D48FEF7F5FE3946204600F043F908B1B6
:102320008D21F5E731462046FFF7A0FE29462046DD
:10233000FFF79CFEAAB20699204600F000F908B10A
:102340009021E5E7F8BD00BF64430008F0B589B00F
:102350000D4601220DF10601044600F08EF918B178
:10236000EE215148FEF7CCFE9DF806309A09D909B6
:1023700003F03F03202B8DF806302B7015D004D8C6
:10238000042B12D04FF48171EBE7222B02F00102F3
:1023900011D0232BF6D129716A71A91D0122204683
:1023A00000F06BF928B1CA21DBE729462046FFF788
:1023B000B7FE09B0F0BD02B109B1CF21D1E70122CA
:1023C0000DF10701204600F058F908B1D121C8E706
:1023D0009DF80730D72B01D0D221C2E702AA2B1DCE
:1023E0001746143518685968164603C60833AB42B9
:1023F0003246F7D11868306099889B79B371B18003
:1024000001223946204600F038F902220DF10A0176
:10241000204600F032F9BDF80A3001225BBA03A968
:102420002046ADF80A3000F028F901220DF10D0127
:10243000204600F022F901220DF10F01204600F0A4
:102440001CF9012204A9204600F017F901220DF120
:102450001101204600F011F901220DF11201204670
:1024600000F00BF901220DF11301204600F005F9EF
:1024700001220DF11501204600F0FFF801220DF1B7
:102480001601204600F0F9F89DF81500C0F3011080
:10249000FFF7C4FD0DF1170182B2204600F0EDF800
:1024A000002886D0E6215CE764430008D20138B5F5
:1024B0000D4642F0340101F0B401044600F072F818
:1024C00020B140F23F110648FEF71AFE2946204689
:1024D00000F068F810B14FF4A071F4E738BD00BF08
:1024E00064430008F8B50E469DF81C101D46C9014E
:1024F0009DF8183041F0010141EA831101F0C1015A
:102500000446174600F04EF820B140F24511074846
:10251000FEF7F6FD314620463A46FFF723FE2946F0
:102520002046BDE8F840FFF7A1BD00BF64430008A6
:102530000023013A816082800360037370472DE9B4
:10254000F041057B04468846164635BB4388008823
:10255000834202EB030C0BD2604520DDA0681844D7
:1025600000F06AFB63881E4466802846BDE8F0815F
:10257000A7886745F2DAFF1ABFB2D61BB6B2B042DF
:102580000DD9A0683A46184400F056FB324608EBD5
:102590000701A06800F050FBE6E71625E5E741F2E9
:1025A0008A35E2E707B502AB012203F8011D19469F
:1025B000FFF7C5FF03B05DF804FB028843889A4229
:1025C00085BF8088C018981A801A80B270470000B2
:1025D00070B5054608461C461646FFF7EEFFA042BA
:1025E00003D22B210C48FEF78BFD888834448442AB
:1025F00001DD2C21F6E70A888B68AB6016442E803B
:102600000B88A8801C44A3B2984238BF1B1A6B8069
:1026100001232B7370BD00BF9B430008F8B50E4625
:10262000054611461F461BB1FFF7C7FF874221D859
:102630002B88A8880B44A96893FBF0F200FB1232A8
:1026400094B211443A4492FBF0F300FB132292B28D
:10265000944205D83A46304600F0EEFA0020F8BD24
:10266000001B84B22246304600F0E6FA3A1BA96805
:102670003019F1E741F28A30F1E738B514461346D4
:1026800000220546FFF7CAFF58B92A88A9882244C4
:1026900092B28A422A8082BFB2FBF1F301FB13227D
:1026A0002A8038BD10B5044619B1FFF786FF814274
:1026B0000DD82388A288194489B29142218004D977
:1026C000B1FBF2F302FB13112180002001E041F283
:1026D0008A3010BDB1F9002008B5437A32B903F051
:1026E00001014068FEF7E5F9012008BDDB43F6E78C
:1026F00038B5447A40680D46FEF7BEF900B1E443B0
:10270000284604F0010420F8024B0422002100F0C6
:102710009EFA1223EB80012038BD6FF085007047D0
:10272000094B1A6860B1002101601AB9186010469F
:1027300070471A461368002BFBD11060184670478B
:102740006FF01200704700BF601A0020044B1A6837
:1027500042F480721A601A685205FCD5704700BFB7
:10276000001002407047000008B520B940F2EF1198
:102770000B48FEF7C5FC8369DA060AD483699B051A
:102780000AD4836913F4807F14BF6FF00400002023
:1027900008BD6FF00500FBE76FF00A00F8E700BF27
:1027A000EC43000838B59DF8104014F0010445D101
:1027B00020B940F263112348FEF7A2FC446045684B
:1027C00025F400654560456825F47F7525F003050F
:1027D0004560456845EA41014160416821F48061F6
:1027E0004160416841EA83234360436823F47F03E7
:1027F0004360436843EA02424260436823F0007347
:102800004360C36943F44473C361436843F40053B2
:1028100043602346416889049AB208D40133B3F572
:10282000803FF7D1FFF7A0FF00EAE07038BD4FF618
:10283000FF739A42F6D16FF07300F7E76FF05E0016
:10284000F4E700BFEC43000808B520B94FF4EA7183
:102850001648FEF755FC00228169D34349069BB216
:1028600005D40132B2F5803FF6D14FF6FF7382698D
:1028700012F4447217D1B3B1436843F48043436008
:10288000436813F4804391B205D10132B2F5803F21
:10289000F6D1184608BD4FF6FF73994214BF0020C9
:1028A0006FF07300F6E76FF00400F3E7EC43000805
:1028B00070B50446C8B10D468E18B5421AD1002233
:1028C000A169D34349069BB205D40132B2F5803FDA
:1028D000F6D14FF6FF73A26912F4447F24D1002B86
:1028E0000CBF6FF0050000201DE040F2B111104850
:1028F000FEF706FC0021A269CB4390079BB205D4EA
:102900000131B1F5803FF6D14FF6FF73A26912F4A1
:10291000447F09D143B115F8013BA3622046FFF77C
:1029200023FF0028C9DA70BD6FF00500FBE700BF88
:10293000EC43000808B518B149211E48FEF7E0FB3A
:102940001D4B4FF400111860FEF7B6FC1B4B1C48E2
:10295000102283F81F234FF000421A601521FDF763
:10296000BDFF04211648FEF753F815211548FDF761
:10297000B5FF04211348FEF74BF8134B1A6822F0F9
:1029800001021A601A6842F480521A601A6842F40E
:1029900070621A600D4A1A611A6822F400321A60D5
:1029A000DA6942F44472DA611A6842F001021A608C
:1029B00008BD00BFEC430008641A002000E100E0FD
:1029C000080400480904004800540040130F42B0B6
:1029D00010B5044618B188210648FEF791FB012185
:1029E0000548FEF76DFF20464FF40011FEF764FC2A
:1029F000204610BDEC430008641A002008B518B149
:102A000093210A48FEF77CFB094B9A69120403D50F
:102A10000130B0F5803FF8D14FF400110020FEF7EF
:102A20006FFC0448FEF77CFF002008BDEC43000863
:102A300000540040641A00202DE9F7430A9F9DF8D6
:102A40002C409146984620B14FF495712048FEF7EE
:102A500057FB14F0030334D11E4805468669DA4358
:102A6000360492B205D50133B3F5803FF6D14FF667
:102A7000FF72AB6913F4447F26D12AB314F0080324
:102A80000DD100947A1C1348FFF78CFE051E06DA60
:102A90001048FFF7D9FE284603B0BDE8F0830D4E7D
:102AA0003A46C6F8289041463046FFF701FF051E1A
:102AB000EEDB6307EFD4304603B0BDE8F043FFF729
:102AC000C3BE6FF05E05E6E76FF07305E3E700BF96
:102AD000EC43000800540040FEF722BF012310B56C
:102AE000836003684068194600F108040A6832B937
:102AF0000A21FDF7D1FBBDE81040FDF793BC9442DD
:102B000008D182680A601A68002AF1D14FF0FF32BA
:102B10001A60EDE71146E9E738B504460020FEF7F4
:102B200065FC05460020FEF761FC401BA042F9D37E
:102B300038BD000030B587B004460D46FDF7EDFD09
:102B400048B11DB138210E48FEF7DAFA2046FFF7EA
:102B5000E3FF07B030BD0B4B0090CDE9020001212F
:102B600068460493CDF814D0FEF7AAFE214601A8CA
:102B70002A46FEF765F901216846FEF7A1FEE8E75F
:102B80000C440008D92A000810B519460F4B88B02C
:102B90001B680193044600231046029350EA010388
:102BA000009408D00A4B06930A46014603A8CDF8C4
:102BB0001CD0FEF745F901212046FEF781FE03A84F
:102BC000FEF70EF90298404208B010BDCC0200207A
:102BD000DD2A00081FB504AC04F8013D9DF818304B
:102BE0000193012300932346FFF726FF04B010BD95
:102BF00070B50D4E0D4CA41BA4100025A54209D1A3
:102C00000B4E0C4CFDF7D4FAA41BA4100025A542D2
:102C100005D170BD56F8253098470135EEE756F8D6
:102C2000253098470135F2E7B8440008B844000859
:102C3000B8440008B844000810B5431E0A44914245
:102C400000D110BD11F8014B03F8014FF7E7024422
:102C50000346934200D1704703F8011BF9E70000D7
:102C60000FB40A4B13B51C6824B1A36913B92046ED
:102C700000F022FA05AB049AA1680193204600F007
:102C8000D9FB02B0BDE8104004B070475C020020E0
:102C900070B50E46054618B183690BB900F00CFA01
:102CA000AB69AC6813B9284600F006FA234B9C4286
:102CB00017D16C68A3891B071DD52369DBB1013EC1
:102CC000A36816F8011F013BA360E9B9002B2EDAB7
:102CD00022460A21284600F03FF8013011D00A2090
:102CE00011E0174B9C4201D1AC68E3E7154B9C42C5
:102CF00008BFEC68DEE72146284600F07FF8002890
:102D0000DDD04FF0FF3070BD002B04DAA2699A428B
:102D100006DC0A2904D023685A1C22601970CFE708
:102D20002246284600F018F80130C9D1E9E72368A7
:102D30000A205A1C22601870E5E700BF44440008CE
:102D40006444000824440008024B01461868FFF759
:102D50009FBF00BF5C020020F8B50E461446054632
:102D600018B183690BB900F0A7F9214B9C422AD115
:102D70006C68A369A360A3891A072ED5236963B37E
:102D800023692068C01A6369F6B28342374604DCBF
:102D90002146284600F026F928BBA368013BA36022
:102DA00023685A1C22601E7063690130834204D07C
:102DB000A389DB0719D50A2E17D12146284600F032
:102DC00011F990B10FE00B4B9C4201D1AC68D0E7F8
:102DD000094B9C4208BFEC68CBE72146284600F02F
:102DE0000DF80028CCD04FF0FF373846F8BD00BFB3
:102DF000444400086444000824440008324B70B581
:102E00001D6806460C4625B1AB6913B9284600F08B
:102E100053F92E4B9C420FD16C68B4F90C309AB226
:102E200015072CD4D00611D40922326043F0400398
:102E3000A3814FF0FF303EE0254B9C4201D1AC68AE
:102E4000EBE7244B9C4208BFEC68E6E7510712D53C
:102E5000616B41B104F14403994202D0304600F065
:102E600019FA00236363A38923F02403A3810023B9
:102E7000636023692360A38943F00803A381236966
:102E80004BB9A38903F42073B3F5007F03D0214627
:102E9000304600F0BFF9A28912F001030CD00023E4
:102EA000A36063695B42A361236953B9B4F90C3031
:102EB00013F08000BAD170BD920758BF6369A36058
:102EC000F2E70020F7E700BF5C020020444400085E
:102ED00064440008244400088A892DE9F04105462D
:102EE00010070C4658D44B68002B05DC0B6C002BEC
:102EF00002DC0020BDE8F081E66A002EF9D0002354
:102F000012F480522F68216A2B6032D0606DA38941
:102F10005A0705D56368C01A636B0BB1236CC01ADE
:102F200000230246E66A216A2846B047431CA3896B
:102F300006D129681D2948D8294ACA40D60744D550
:102F400000226260D9042269226004D5421C01D1AA
:102F50002B6803B96065616B2F600029C9D004F14B
:102F60004403994202D0284600F094F9002060639F
:102F7000C0E701232846B047411CC8D12B68002B6D
:102F8000C5D01D2B01D0162B01D12F60B1E7A3892D
:102F900043F04003A381ADE70F69002FA9D0930749
:102FA0000E6808BF4B690F6018BF0023A6EB070827
:102FB0008B60B8F1000F9CDD43463A46216AA66A51
:102FC0002846B047002806DCA38943F04003A381CC
:102FD0004FF0FF308EE70744A8EB0008E9E700BF99
:102FE0000100402038B50B6905460C46DBB118B12D
:102FF00083690BB900F060F80C4B9C4209D16C68F6
:10300000B4F90C307BB121462846BDE83840FFF7C3
:1030100063BF074B9C4201D1AC68F1E7054B9C4272
:1030200008BFEC68ECE7002038BD00BF444400084E
:103030006444000824440008002310B50446C0E995
:103040000033836081814366C281C0E904338361B8
:10305000194608225C30FFF7FAFD054B6362054B09
:10306000A362054BE362054B2462236310BD00BFDE
:103070007139000893390008CB390008EF3900088E
:10308000014900F085B800BFE52F000870B54A1E61
:10309000682555430E4605F1740100F049F90446D0
:1030A00040B10021C0E900160C30A06005F16802B3
:1030B000FFF7CDFD204670BD836910B5044633BBD4
:1030C000C0E912330365124B124A1B6882629842B0
:1030D00004BF0123836100F01FF86060204600F008
:1030E0001BF8A060204600F017F80022E0600421E1
:1030F0006068FFF7A1FF01220921A068FFF79CFF8C
:1031000002221221E068FFF797FF0123A36110BD9F
:103110002044000881300008F8B51B4B1E68B369D5
:10312000074613B93046FFF7C7FF4836D6E90134E2
:10313000013B03D5336833B13668F7E7B4F90C5077
:103140006DB16834F4E704213846FFF79FFF306023
:103150000028F1D10C233B6004462046F8BD0B4B00
:103160006566C4E90055A560C4E90335C4E90555A1
:103170000822294604F15C00FFF769FDC4E90D55FA
:10318000C4E91255E9E700BF204400080100FFFF31
:103190002DE9F8438046894600F14804002614B919
:1031A0003046BDE8F883D4E90175013F01D52468B4
:1031B000F5E7AB89012B07D9B5F90E30013303D000
:1031C00029464046C84706436835EEE770B50E46C7
:1031D000B1F90E10002996B014461D4607DA0023F7
:1031E0002B60B3891A0610D44FF480630EE06A4650
:1031F000FDF712F80028F2DB019A02F47042A2F502
:1032000000535A425A412A60EEE7402300202360CF
:1032100016B070BD8B8973B59D0706460C4607D561
:1032200004F14703236023610123636102B070BD91
:1032300001AB6A46FFF7CAFF00990546304600F029
:1032400077F848B9B4F90C309A05EFD423F00303AA
:1032500043F00203A381E3E70D4BB362A38920602F
:1032600043F08003A381009B6361019B20615BB1FC
:10327000B4F90E103046FCF7D4FF28B1A38923F02F
:10328000030343F00103A381A3891D43A581CDE777
:103290008130000838B50546002945D051F8043C76
:1032A0000C1F002BB8BFE41800F0FAFB1F4A13688C
:1032B000104633B9636014602846BDE8384000F01A
:1032C000F0BBA3420CD921686218934204BF1A686C
:1032D0005B68636004BF521822600460ECE7134629
:1032E0005A680AB1A242FAD919685818A0420BD1FB
:1032F00020680144581882421960DDD11068526874
:103300005A6001441960D7E702D90C232B60D3E738
:10331000206821188A4204BF11685268626004BFA5
:10332000091821605C60C7E738BD00BF681A00203B
:1033300070B5CD1C25F0030508350C2D38BF0C25C4
:10334000002D064601DBA94203D90C23336000207F
:1033500070BD00F0A5FB214A1468214691B9204CAC
:1033600023681BB93046FCF727FF2060294630460A
:10337000FCF722FF431C24D10C233360304600F0BD
:1033800090FBE4E70B685B1B18D40B2B0FD90B6089
:10339000CD50CC18304600F084FB04F10B00231D07
:1033A00020F00700C31AD3D05A42E250D0E78C4233
:1033B0004B6816BF636013600C46EBE70C46496828
:1033C000CCE7C41C24F00304A04205D0211A3046E7
:1033D000FCF7F2FE0130CFD02560DBE7681A002051
:1033E0006C1A00209368013B002B10B4936007DA3D
:1033F0009469A34201DB0A2902D110BCFFF7ACBCDF
:103400001368581C10601970084610BC7047F8B556
:1034100006460F461446D518AC4201D1002007E0FD
:103420003A4614F8011B3046FFF7DCFF431CF3D18A
:10343000F8BD00002DE9F04F0C469DB017461D4623
:10344000064618B183690BB9FFF736FE7C4B9C42E8
:1034500058D17468A38918075ED52369002B5BD007
:103460000023099320238DF8293030238DF82A304A
:1034700003954FF0010BB846454615F8013B0BB1DB
:10348000252B54D1B8EB070A0BD053463A462146B8
:103490003046FFF7BCFF013000F0C280099B534467
:1034A000099398F80030002B00F0BA8000234FF009
:1034B000FF32CDE90523049307938DF853301A9317
:1034C000A846052218F8011B5E4800F099FA049BF3
:1034D00078BBD90644BF20228DF853201A0744BF79
:1034E0002B228DF853202A782A2A2AD0079AA84618
:1034F00000200A25414611F8013B303B092B69D9D0
:1035000060B324E0504B9C4201D1B468A2E74F4B1A
:103510009C4208BFF4689DE721463046FFF76EFCE9
:1035200000289DD04FF0FF301DB0BDE8F08FA846B9
:10353000A2E7444A801A0BFA00F01843049045466B
:10354000BEE7039A111D12680391002A01DB07925E
:1035500004E0524243F002030792049398F80030CB
:103560002E2B0ED198F801302A2B38D1039B1A1D2F
:103570001B680392002BB8BF4FF0FF3308F102081D
:103580000593334D98F800100322284600F038FACE
:1035900040B14023401B03FA00F0049B034308F1B1
:1035A0000108049398F800102A488DF82810062284
:1035B00008F1010700F024FA002837D0264B1BBB86
:1035C000039B073323F0070308330393099B4B4402
:1035D000099350E705FB0232012088468AE7002361
:1035E00008F10108059319460A25404610F8012BF9
:1035F000303A092A03D9002BC3D00591C1E705FB56
:10360000012101238046F0E703AB00932246134BD0
:1036100004A93046AFF30080B0F1FF3F8146D5D119
:10362000A3895B063FF57EAF09987DE703AB009366
:1036300022460A4B04A9304600F088F8ECE700BFA8
:1036400044440008844400086444000824440008FA
:103650008A4400088E440008000000000F3400086F
:103660002DE9F04791461F468A680B69DDF82080F6
:103670009342B8BF1346C9F8003091F8432006467C
:103680000C4612B10133C9F800302368990642BFD5
:10369000D9F800300233C9F80030256815F0060566
:1036A00007D104F1190AE368D9F800209B1AAB424C
:1036B00028DC94F843302268003318BF01239206B7
:1036C0002DD404F1430239463046C047013020D0A2
:1036D0002368E568D9F8002003F00603042B08BF2F
:1036E000AD1AA36822690CBF25EAE575002593424F
:1036F000C4BF9B1AED184FF000091A344D451AD17A
:10370000002008E00123524639463046C0470130C8
:1037100003D14FF0FF30BDE8F0870135C3E7E11872
:103720005A1C302081F84300224494F8451082F856
:1037300043100233C5E70123224639463046C047CD
:103740000130E6D009F10109D8E700002DE9F04386
:1037500001F1430C0C46097E85B06E2917460646DA
:1037600098460C9A00F0B38022D8632936D00AD844
:10377000002900F0B980582900F0838004F1420547
:1037800084F8421032E0642901D06929F6D120681A
:103790001368050603F104012AD51B681160002B8C
:1037A00003DA2D225B4284F843206F480A2239E075
:1037B000732900F09D8008D86F2920D07029DDD1B1
:1037C000236843F02003236003E0752917D078298C
:1037D000D4D1782384F84530644855E01368191D26
:1037E0001B68116004F1420584F8423001238CE02B
:1037F0001B68116010F0400F18BF1BB2CFE71368B1
:103800002568181D1060280601D51B6802E06806AF
:10381000FBD51B8854486F2914BF0A2208220021B7
:1038200084F843106568A560002DC0F2958021687A
:1038300021F004012160002B3DD1002D40F08E804D
:103840006546082A0BD12368DB0708D5236962681F
:103850009A42DEBF302305F8013C05F1FF35ACEBA1
:1038600005032361CDF800803B4603AA214630467C
:10387000FFF7F6FE01304DD14FF0FF3005B0BDE847
:10388000F083394884F84510136821681D1D1B68B2
:1038900015600A060BD5CA0744BF41F0200121601C
:1038A0001BB9226822F0200222601022B7E74D06E1
:1038B00048BF9BB2EFE76546B3FBF2F102FB113361
:1038C000C35C05F8013D0B460029F5D1B9E7136843
:1038D00025686169181D106028061B6801D51960EC
:1038E00002E06A06FBD51980002323616546B9E72B
:1038F0001368191D11601D6862680021284600F0D8
:103900007FF808B1401B606063682361002384F87E
:103910004330A7E723692A4639463046C04701307D
:10392000AAD023689B0713D4E068039B9842B8BFD2
:103930001846A3E701234A4639463046C0470130BE
:103940009AD00135E368039A9B1AAB42F2DCEBE7AD
:10395000002504F11909F5E7002BACD1037884F8B0
:10396000423004F142056CE795440008A644000883
:1039700010B50C46B1F90E10FCF73CFC0028ABBFAB
:10398000636DA3891B1823F48053ACBF6365A381C7
:1039900010BD2DE9F0411F468B89DB0505460C461D
:1039A000164605D502230022B1F90E10FCF72FFCB4
:1039B000A389B4F90E1023F48053A38132463B4609
:1039C0002846BDE8F041FCF719BC10B50C46B1F92A
:1039D0000E10FCF71CFC431CA38915BF606523F483
:1039E000805343F48053A38118BFA38110BDB1F964
:1039F0000E10FCF707BC00000000000000000000F3
:103A000001F0FF01102A2BDB10F0070F08D010F88F
:103A1000013B013A8B422DD010F0070F42B3F6D193
:103A2000F0B441EA012141EA014122F007047FF0AC
:103A300000070023F0E80256083C85EA010586EA03
:103A4000010685FA47F5A3FA87F586FA47F6A5FA3F
:103A500087F68EB9EED1F0BC01F0FF0102F007024B
:103A600032B110F8013B013A83EA010313B1F8D1F6
:103A70000020704701387047002D06BF35460338D7
:103A8000073815F0010F07D1013015F4807F02BF10
:103A9000013015F4C03F0130F0BC0138704700BF61
:103AA00070477047425553204641554C5420484179
:103AB0004E444C4552004445425547204D4F4E2000
:103AC00048414E444C45520044554D4D59204841C3
:103AD0004E444C4552000A49535220737461636B43
:103AE000206F766572666C6F7765640053746163EE
:103AF0006B20706F696E74657220636F727275707F
:103B00007465642C20726573657420746F20746F03
:103B100070206F6620737461636B000A436F6E746C
:103B2000657874206265666F72652068617264668C
:103B300061756C743A0020202072303A203078256C
:103B400030386C780A20202072313A2030782530C5
:103B5000386C780A20202072323A203078253038AC
:103B60006C780A20202072333A2030782530386C67
:103B7000780A0020207231323A2030782530386CB3
:103B8000780A2020206C723A2030782530386C7802
:103B90000A20202070633A2030782530386C780A6B
:103BA00020207073723A2030782530386C780A0AF9
:103BB000004653522F4641523A0020434653523A50
:103BC0002030782530386C780A0020484653523A25
:103BD0002030782530386C780A0020444653523A19
:103BE0002030782530386C780A0020414653523A0C
:103BF0002030782530386C780A0020424641523A0D
:103C00002030782530386C780A004D4D4641523AC4
:103C10002030782530386C780A004D697363004590
:103C200058435F5245543A2030782530386C780A32
:103C300000417474656D7074696E6720746F2072D2
:103C400065636F6E737472756374207374617465E9
:103C500020666F7220646562756767696E672E2ED5
:103C60002E00496E204744423A0A20207365742092
:103C70002470633D3078256C780A20206672616D6F
:103C80006520300A202062740A000A4953522073CA
:103C90007461636B206F766572666C6F7765642004
:103CA0006279206174206C656173742025642062E0
:103CB000797465732E0A0048415244204641554CA0
:103CC000542048414E444C4552004D454D204D41F5
:103CD0004E4147452048414E444C4552004E4D49C7
:103CE0002048414E444C45520055534147452046DB
:103CF00041554C542048414E444C45520000000070
:103D0000004800400000040005080048040800487E
:103D1000070700270050004000001000020C004878
:103D20000C080048080800356370752F73746D33F4
:103D3000325F636F6D6D6F6E2F7065726970682F83
:103D4000756172742E63004641494C4544204153CD
:103D500053455254494F4E2E002A2A2A2052494F89
:103D600054206B65726E656C2070616E69633A0AEF
:103D700025730A0A002A2A2A2068616C7465642E59
:103D80000A0A006D61696E28293A20546869732017
:103D900069732052494F5421202856657273696F08
:103DA0006E3A20554E4B4E4F574E20286275696C27
:103DB000646469723A202F686F6D652F766167724F
:103DC000616E742F52494F5429290A0069646C6549
:103DD000006D61696E00636F72652F746872656152
:103DE000642E630025733A2575203D3E20005F5107
:103DF0007374617465006E616D650009706964209B
:103E00007C20252D3231737C20252D397351207C67
:103E100020707269207C20737461636B20202820DD
:103E20007573656429207C20626173652061646418
:103E30007220207C2063757272656E7420202020B1
:103E4000200A000920202D207C206973725F737482
:103E500061636B2020202020202020202020207C37
:103E6000202D20202020202020202D207C202020DC
:103E70002D207C20253669202825356929207C20A5
:103E800025313070207C20253130700A000925331F
:103E90006869207C20252D323073207C20252D3828
:103EA0007320252E3173207C20253369207C20252A
:103EB0003669202825356929207C2025313070205D
:103EC0007C2025313070200A007C0053554D0009BC
:103ED00025357320252D3231737C253133732536FA
:103EE00073202536692028253569290A000000003D
:103EF0001C3F0008243F00082D3F0008363F000803
:103F00003C3F0008443F00084D3F0008563F000872
:103F10005F3F0008673F00086F3F000873746F70D1
:103F200070656400736C656570696E6700626C2013
:103F30006D7574657800626C20727800626C207315
:103F4000656E6400626C207265706C7900626C2032
:103F5000616E79666C00626C20616C6C666C0062EC
:103F60006C206D626F780072756E6E696E6700709E
:103F7000656E64696E670002020000000000004088
:103F8000FFFFFFFF01000000001C0000000C0040CC
:103F9000FFFFFFFF080000000032000053656E6461
:103FA000206D6F64653A2044370053656E64206D60
:103FB0006F64653A204C6F5261004D6F74696F6E8B
:103FC000206465746563746564005377697463681D
:103FD00020746F20616374697665206D6F6465007D
:103FE0005B4641494C45445D20696E6974204254EA
:103FF0004E312100496E6974206E6F7420636F6DBD
:10400000706C6574656400496E7465727275707465
:10401000206E6F7420656E61626C6564005B464162
:10402000494C45445D20696E6974206C736D333072
:1040300033616772210000000000000019000000D9
:104040000000004820101E00010000481080000001
:1040500073656E642074687265616400536C656595
:1040600070696E67004C6F5261206D736700443752
:10407000206D736700000000391700084917000819
:1040800065170008436F6D6D616E6420636F6D701E
:104090006C65746564207375636365737366756CB2
:1040A0006C790A00436F6D6D616E6420636F6D7093
:1040B0006C657465642077697468206572726F72CC
:1040C0000A00436F6D6D616E642074696D656420D4
:1040D0006F75740A006D6F64656D20636F6D6D613F
:1040E0006E6420636F6D706C6574656420287375F1
:1040F0006363657373203D202569290A006D6F6431
:10410000656D2072657475726E2066696C652064D9
:104110006174612066696C65202569206F6666732D
:10412000657420256C692073697A6520256C692087
:104130006275666665722025700A006D6F64656D34
:104140002077726974652066696C652064617461AA
:104150002066696C65202569206F6666736574202A
:10416000256C692073697A6520256C692062756603
:104170006665722025700A00C041000807080048E3
:1041800001000000CB4100080704004801000000C6
:10419000D54100080E04004801000000DE4100087F
:1041A0000D08004808000000EE4100080018004813
:1041B00008000000FE410008011800480800000047
:1041C0004C443128677265656E29004C4432286280
:1041D0006C756529004C44332872656429004231AE
:1041E000285573657220627574746F6E29004232AF
:1041F000285573657220627574746F6E290042339E
:10420000285573657220627574746F6E2900707220
:10421000657620636F6D6D616E64207374696C6C7C
:10422000206163746976650A002121212074696D1B
:10423000656F75742C20756E6C6F636B696E670AA1
:10424000006F7373375F6D6F64656D5F7278002107
:1042500021212077616B65757020726571756573BA
:10426000746564206279206D6F64656D0A00726503
:104270006365697665642072657370207769746818
:1042800020756E6578706563746564207461675F1E
:10429000696420282569207673202569290A002F62
:1042A000686F6D652F76616772616E742F72696FCA
:1042B000742D6F7373372D6D6F64656D2F64726924
:1042C000766572732F6F7373375F6D6F64656D2FD3
:1042D0006D6F64656D2E63007265636569766564F4
:1042E00020726573702066726F6D3A200A00636FEA
:1042F0006D6D616E64207769746820746167202534
:104300006920636F6D706C657465640A00736B6916
:104310007000666F756E64206865616465722C203C
:104320007061796C6F61642073697A65203D202526
:10433000690A00212121206D6F64656D2077616B12
:104340006575700A00212121206D6F64656D2072F2
:10435000656C656173650A003E2025692062797489
:1043600065730A002F686F6D652F76616772616EE5
:10437000742F72696F742D6F7373372D6D6F646551
:104380006D2F647269766572732F6F7373375F6D0B
:104390006F64656D2F616C702E63002F686F6D65A3
:1043A0002F76616772616E742F72696F742D6F73EF
:1043B00073372D6D6F64656D2F64726976657273E6
:1043C0002F6F7373375F6D6F64656D2F6669666FEE
:1043D0002E630000F12600081B2700088100000062
:1043E000F1260008D5260008450000006370752FEF
:1043F00073746D33325F636F6D6D6F6E2F706572A6
:104400006970682F6932635F312E63007379732F8F
:104410007874696D65722F7874696D65722E6300AA
:10442000600200200000000000000000000000000A
:10443000000000000000000000000000000000007C
:10444000000000000000000000000000000000006C
:10445000000000000000000000000000000000005C
:10446000000000000000000000000000000000004C
:10447000000000000000000000000000000000003C
:1044800000000000232D302B2000686C4C00656676
:104490006745464700303132333435363738394195
:1044A00042434445460030313233343536373839AB
:0844B0006162636465660000AF
:1044B800741A00209C030020400000000000000047
:1044C8000000000000000000CC3D0008D13D0008BD
:1044D800000010010000000000000000AB68EEA31F
:1044E8009A247F5DCCB3D1EC3FC96688278C217EA6
:1044F800531F37AA275CCA9EE04C3E47701101261D
:104508000000000000010000FFFFFFFF6002002024
:1045180000000000444400086444000824440008E3
:104528000000000000000000000000000000000083
:104538000000000000000000000000000000000073
:104548000000000000000000000000000000000063
:104558000000000000000000000000000000000053
:104568000000000000000000000000000000000043
:0445780028210000F6
:0400000508000515D5
:00000001FF
