:020000040800F2
:100000000002002015050008B10400086D04000876
:10001000C1040008D1040008E10400080000000049
:100020000000000000000000000000005104000873
:10003000F104000800000000350400080105000874
:10004000AD010008AD010008AD010008AD010008D8
:10005000AD010008AD010008BD0A0008BD0A000896
:10006000BD0A0008BD0A0008BD0A0008AD0100086D
:10007000AD010008AD010008AD010008AD010008A8
:10008000AD010008AD010008AD010008AD01000898
:10009000AD010008AD010008AD010008BD0A00086F
:1000A000AD010008AD010008AD010008AD01000878
:1000B00091140008AD010008AD010008AD01000871
:1000C000AD010008AD010008AD010008AD01000858
:1000D000AD010008AD010008AD010008D10800081D
:1000E000BD0A0008AD01000800000000000000008B
:1000F0000000000000000000000000000000000000
:1001000000000000AD01000897140008AD010008D0
:10011000AD010008D7080008AD010008AD010008D6
:10012000AD010008AD010008AD010008AD010008F7
:10013000AD010008AD010008AD010008AD010008E7
:10014000AD010008AD010008AD010008AD010008D7
:10015000AD010008AD010008AD010008AD010008C7
:10016000AD010008AD010008AD010008AD010008B7
:10017000AD010008AD010008AD010008000000005D
:10018000AD010008AD010008AD010008AD01000897
:10019000AD010008AD010008AD010008AD01000887
:1001A000AD010008AD010008AD01000800F0A8B9DC
:1001B00000F0B8BA7047000070B50C46064600F073
:1001C000A1FA094B094A1D682C44944202D8084AF6
:1001D000944207D20C2333604FF0FF3500F09AFAB7
:1001E000284670BD1C60F9E70002002000000520D1
:1001F000E41B00201946104600F0A0BA194610462C
:1002000000F0A4BA132303604FF0FF3070471323AC
:1002100003604FF0FF307047132303604FF0FF304F
:10022000704702294FF0000303608CBF00200120BB
:10023000704700001349144B10B50C68002084422D
:1002400094FAA4F1B1FA81F1104C186008BF4FF094
:10025000FF310F4B54F821101A680968A1F1080406
:1002600094420ED022B11079092804BF0A201071DF
:10027000092201F8042C074A31F9021C11801C6084
:10028000012010BD34040020400400204804002058
:100290003C04002038040020082930B503791AD91D
:1002A000082B14D842791A4B53F8225000F1080455
:1002B0007DB12D68856053F822502C6043F82240B0
:1002C000144A44790123A340146823431360017145
:1002D00030BD8460F2E7082BF9D945790C4B53F80F
:1002E00025203AB11468A2420BBF0022246843F8CB
:1002F00025201460427953F82230002BE7D1054CB9
:10030000012303FA02F2236823EA02032360DEE7F3
:10031000480400203404002008B5094B1B681A79F2
:10032000082A02D95B79834205D900F0F6F918B1A1
:10033000044B01221A6008BDBDE8084000F072B805
:100340003C0400204004002008B500F0DBF9094B14
:10035000094A1B88094D1BB2002442F82340084A71
:10036000286813682146013B1360FFF795FF2C6056
:1003700000F054F838040020880400203C040020D9
:1003800044040020134423F0030310B54FF07732E8
:100390001C1F43F8042C620742BF4FF0883243F819
:1003A000082CA3F108044FF0807344E902030D4BBD
:1003B00044F80C3C0022032344E905322246012381
:1003C000022044E9073042F8201D0B2342F8043D87
:1003D000013B032BFAD120466FF0020340F8443D65
:1003E00010BD00BF490300080548064A064B0168D6
:1003F000914201D1984201D3181A70470430F6E7B0
:1004000000000020FEE7FEE700020020EFF3088076
:1004100070470000004870470000002000F076F9A7
:1004200001DFFEE7024A536843F080535360704790
:1004300000ED00E0EFF3098020E9F00F40F804ED53
:1004400002490968086000F003F800003C0400203D
:10045000FFF7F0FE04480068016801C9B1E8F00F39
:1004600081F30988004700003C0400200D4B0E4A30
:100470000E496846904203D8984201D9002102E013
:1004800009468D46012104207246024202D1EFF353
:10049000088001E0EFF309802DE9F00F6B4600F0D2
:1004A0006FF800BF58010020000005200002002066
:1004B00008B50249042000F027FD00BF09540008D8
:1004C00008B50249062000F01FFD00BFF6530008E2
:1004D00008B50249072000F017FD00BFD051000801
:1004E00008B50249082000F00FFD00BF15540008B0
:1004F00008B50249092000F007FD00BFE2510008DD
:1005000008B502490A2000F0FFFC00BFF4510008C2
:100510007047704708B5FFF7FBFF6A46114B124959
:10052000934213D3114A124B12498B4211D3124BEF
:10053000124A0021934211D3FFF7EBFF00F0B4FC05
:1005400003F0B8FDBDE8084000F018BD43F8041BF7
:10055000E6E752F8040F43F8040BE6E743F8041B00
:10056000E8E700BF00000020FEE7FEE7EC5D0008C2
:10057000000200203404002034040020E41B00208A
:100580002DE9F04F9A46494B8FB093469A6B0392F0
:100590005A6B04929F6ADA6A05921A6BDB6B0793B7
:1005A000434B06921A68434B9A420446884602D04F
:1005B000414803F0FFFEB8F1000F4ED03F4803F072
:1005C000F9FE00252E463E4803F0F4FE39463D482C
:1005D00003F07CFE05993C4803F078FE06993B4801
:1005E00003F074FE07993A4803F070FE3A0403D50D
:1005F0000399384803F06AFE3B0603D50499364850
:1006000003F064FE354803F0D5FE5946344803F044
:100610005DFEB8F1000F1BD1324803F0CBFE31462E
:10062000314803F053FE6946304BC91A03D549429D
:100630002F4803F04BFE20468268C36801698C4650
:1006400041698E46AD46514691E8F00F4168006819
:1006500001BE2849052000F057FCD4E90230D4E956
:100660000669D4E9001208902069099060690A902F
:1006700019F4007F20480B91CDE90C230CBF04F145
:10068000200504F1240503F095FE089B00930B99C7
:100690001A48DDE90C2303F019FECDF8009033462B
:1006A000DDE90912164803F011FE8CE700ED00E0C9
:1006B00000000020FEE7FEE7025200081852000882
:1006C000DD520008E6520008F65200080653000802
:1006D00016530008265300083653000846530008F6
:1006E0004B5300085D5300088E530008580100204A
:1006F000B6530008E353000847520008625200084E
:100700009F520008EFF3108072B6704762B6EFF3A5
:100710001080704780F310887047EFF30580C0B2F7
:1007200070470000034B044A4FF4E131002000F011
:1007300071B800BF04020020411100080A460146BA
:10074000014800F008BD00BF0402002010B50A46B1
:100750000C460146002000F029F8204610BD00009C
:1007600038B514230E4A4343D458E569AA0608D580
:100770000C4BA18C03EBC002C9B253F83030506867
:1007800098472B0742BF236A43F008032362064BB6
:100790001B681BB1BDE83840FFF744BE38BD00BF41
:1007A0002C5400084C05002040040020012810B5FE
:1007B0000AD8142358430A4B1B580A44914207D1C4
:1007C000DA695206FCD510BD9321064800F098FC6A
:1007D00011F8010BDC692406FCD580B21885EDE721
:1007E0002C54000854540008012808B503D9C62128
:1007F000064800F085FC064B142202FB0030BDE8E1
:1008000008404168807C00F057BD00BF5454000888
:100810002C54000801282DE9F84304460E461746DB
:1008200003D93521264800F06BFCDFF8A080254A6B
:10083000142505FB008542F83070D5F80C9002EBCA
:10084000C00201215360484600F048F8484600F0D5
:100850001DF9697C484600F0DBF84FB1D5F80890E7
:100860000021484600F03AF8297C484600F0D0F8CC
:100870002046FFF7B9FF14235C4308EB040558F842
:100880000440A87C002323606360A36000F0F8FCB0
:10089000B0FBF6F080B2E0607FB1EB7C01215AB290
:1008A00003F01F0301FA03F35209074941F822300C
:1008B0002D2323600020BDE8F8830923F9E700BF5A
:1008C000545400084C05002000E100E02C540008BE
:1008D0000020FFF745BF0120FFF742BFF8B50D46E6
:1008E0000127C0F3832120F00F0400F00F0607FA60
:1008F00001F1032000F0E0FC06FA07FC0323226864
:1009000003FA0CF3D84302402260226805F0030189
:1009100001FA0CF111432160E2681040E060E168E7
:10092000C5F3810202FA0CF20A43E2606268B74042
:1009300022EA070767606268C5F30015B5401543F2
:100940006560A2681343A3600020F8BD2DE9F04163
:1009500000F00F0415462B4A42F8343002EBC40273
:10096000069B5360884601210646C0F3832708464C
:1009700000F0A2FC41463046FFF7B0FF042C224BAA
:1009800037DCA11D01228A401A60204B01229868A1
:1009900002FA04F1C94308409860D3F808C005EA98
:1009A0000200A04040EA0C009860D8680140D9607D
:1009B000D540D968A54004F00C0404F1804404F546
:1009C00080340D43DD6006F00301A06889000F2527
:1009D0008D4020EA0500A060A0688F40074302FA1E
:1009E00006F6A7605E611A6816431E600020BDE827
:1009F000F081092C02DC4FF40002C5E74FF480724D
:100A00005A60C2E75C05002000E100E000040140FC
:100A100020F00F03F0B500F00F041D6867000326F7
:100A2000BE4025EA06051D601D680222072C02FA59
:100A300007F242EA050294BF002401241A6003EB86
:100A4000840300F007001A6A80000F24844022EA21
:100A500004021A621A6A01FA00F010431862F0BD2B
:100A6000044B00F00F011A68012088401043186001
:100A7000704700BF0004014020F00F0300F00F009A
:100A80001A69012303FA00F01040704720F00F02AA
:100A9000012300F00F0003FA00F09061704720F08E
:100AA0000F0200F00F001030012303FA00F09061F4
:100AB000704709B1FFF7EABFFFF7F1BF2DE9F04139
:100AC0000F4D104F6E692A68002416404FF0010840
:100AD00008FA04F3334206D06B6107EBC40357F8FE
:100AE0003420586890470134102CF1D1064B1B6814
:100AF0001BB1BDE8F041FFF795BCBDE8F08100BF38
:100B0000000401405C05002040040020002000F0AB
:100B10006DBC0000034B1968024611B9084600F08D
:100B200045BC7047DC05002010B5094A136843B185
:100B30009C6881688C4207D303D15C6841688C4211
:100B400002D90360106010BD1A461B68EFE700BFB2
:100B5000E4050020F0B51E4E1E4D33681E4C0133D7
:100B600033601E4B00201A6818602B6822601946FB
:100B70000746B44621B1DCF800E08E68764513D90B
:100B800000B129607FB100213960FAB183B15168A9
:100B9000586881428CBF19461146084612681B6886
:100BA00042B903602160F0BD0F4601200968E1E70A
:100BB0001146F2E70BB90260F4E755685E68B5428A
:100BC0008CBF1D46154605602846E7E72360EAE727
:100BD000E0050020E4050020EC050020E8050020E9
:100BE0002DE9F0412B4F2C4C01233B60236893B936
:100BF000FFF7B0FFFFF78AFF0130FBD000254FF071
:100C0000000823685BB9FFF781FF854222D9FFF70F
:100C1000A1FF0025F5E7FFF779FF0546EFE75E68DE
:100C2000FFF774FF854204D8864202D9361A132E84
:100C3000E9D823685E68FFF769FF854201D88642DC
:100C4000F7D823681A682260C3E90188D3E9032032
:100C50009047D6E723686BB15E68FFF757FF143EF5
:100C600014308642CDD300233B603046BDE8F041CE
:100C7000FFF750BFFFF74AFF85420646C7D810F17D
:100C8000150F04D9FFF742FF8642FBD9BFE74FF0AB
:100C9000FF36E8E7DC050020EC050020144A136865
:100CA000834210D11B6813601BB158681438FFF7DA
:100CB00031BF4FF0FF30FAE79842196801D1116057
:100CC00070471A460B46002BF6D10A4A13681BB927
:100CD000094A136833B9704798421968EFD01A4629
:100CE0000B46F4E798421968E9D01A460B46F1E73B
:100CF000EC050020E8050020E405002008B50023ED
:100D00001846054A054900F083FB4FF0FF30BDE867
:100D10000840FFF7FFBE00BFE10B000840420F0094
:100D2000F8B504460D46FFF7F1FE0023854207465D
:100D3000236011D3A5F11E0383420DD21E35FFF7A8
:100D4000E5FE8542FBD3FFF7E1FE8542FBD8D4E9FF
:100D5000033098470020F8BDFFF7D4FC63680646CF
:100D60000BB9A36813B12046FFF798FF194B6560D4
:100D70001A681B68BD4238BF0132A260A2689A425D
:100D800006D92046FFF7D0FE3046FFF7C3FCE1E767
:100D9000BD4210D9104B1A68194612B150688542ED
:100DA00015D222601C600B689C42EDD1A5F11400A5
:100DB000FFF7B0FEE8E7094A136813B159688D429E
:100DC00002D223601460DFE71A461B68F5E713467A
:100DD0001268E2E7E0050020EC050020E8050020AD
:100DE00038B50446FFF78EFC636805460BB9A36867
:100DF00013B12046FFF752FF2846BDE83840FFF701
:100E000089BCC36870B504460D46C3B1FFF7E8FF5F
:100E10001D2D0CD8FFF77AFE0646FFF777FE801BE4
:100E20008542FAD8D4E90330BDE870401847FFF78F
:100E30006DFE29182046BDE87040FFF771BF70BDF8
:100E40002DE9F04704460E4615461AB9BDE8F047AD
:100E5000FFF7D7BFFFF756FC636807460BB9A368D7
:100E600013B12046FFF71AFFDFF830A0FFF74EFE60
:100E7000DAF800808146FFF749FE8145F6D836183A
:100E8000454428BF013520466660A560FFF74CFE4B
:100E90003846BDE8F047FFF73DBC00BFE005002045
:100EA00008B5FFF72FFCFEE738B500F0DBF90F4C73
:100EB0000F4D10480121FFF711FD4FF48043A3614E
:100EC00001212846FFF70AFD0121A9610A48FFF721
:100ED00005FD4FF40043A36100210848FFF7FEFC25
:100EE00000210748BDE83840FFF7F8BC000C004877
:100EF000000400480E0C00480F0C00480018004881
:100F0000011800487047000008B50F4B1A680C46DE
:100F10009AB9012203281A6003D171460B4803F0E5
:100F2000D5F921460A4803F0D1F900F027F909481C
:100F300003F0CCF9084803F0C9F9FFF7E3FBFFF72A
:100F4000E1FFFFF7ADFF00BFF0050020905900085A
:100F500085540008AD540008A154000808B500F0FD
:100F60009DFD034803F0B2F900F08CFB002008BDA2
:100F7000AF54000808B500F0D1F8FCE71FB5FFF743
:100F8000C1FB0E4B0E481B68029300240D4B0093CF
:100F90000F220C234FF48071019400F03BF80A4BB0
:100FA0000A481B68CDE90143094B009307220C2333
:100FB0004FF4C06100F02EF8FFF730FA180200205D
:100FC000F4050020750F00081C020020F406002024
:100FD0005D0F000838B50B79082B03D9712108483B
:100FE00000F08EF84C7901F10802036813B98B60A8
:100FF000026038BD13F8035CAC42F8D31846F4E73E
:1010000002550008031F53F8042F9A42FBD0181A08
:10101000704700000F2A2DE9F74F05468B46914691
:101020009A4633D810F003031BBFC3F10403ED1835
:101030000B46CB1A303B23F003031AF0080F05EBE5
:10104000030419D12D6003E012600432A242FBD3E5
:101050000193FFF757FB2849019B8046012251F875
:10106000226017B2AEB10132212AF8D14046FFF713
:1010700051FB6FF08A073AE02A46E7E70121204654
:10108000FFF70AF94046FFF745FB30E06FF0150720
:101090002DE041F822402A46E780DDE90C01FFF708
:1010A00071F90E9B154AA3624FF0FF33C4E907366E
:1010B0001368206001331AF0010F6562C4F82CB088
:1010C00084F805902671C4E90266C4E90466A66145
:1010D0001360D3D10A212046FFF7DEF81AF0040F7F
:1010E000D0D14046FFF716FB4846FFF715F93846C2
:1010F00003B0BDE8F08F00BF880400204404002046
:101100000A4608B50146034803F0E0F80249032007
:10111000FFF7FAFE1055000873540008074A08B597
:10112000136923F004031361FFF7ECFABFF34F8F49
:1011300030BFBDE80840FFF7EDBA00BF00ED00E0AA
:1011400038B5054600F0C6F9044605F1100000F078
:1011500017FD204638BDF8B504460D46164600F189
:10116000100732462946204600F0A1F900B1F8BD2B
:101170000121384600F0D4FCF3E700002DE9F04FE0
:101180002D4B2E4A1B882E492E48DFF8CC90DFF8D5
:10119000CCA0DFF8CCB08BB00126ADF8243003F042
:1011A00095F8FFF721F90546FFF734F90446FFF7F4
:1011B0002DF92A46009023464FF40071224803F08F
:1011C00085F825EAE5754FF4007759F826401CB3F9
:1011D00094F80480E26A5AF82830606A079317444A
:1011E0000692FFF70FFF069AB4F90610079B101A34
:1011F00022680592626ACDE90302E26A029262798C
:10120000019209AAB8F1080FC8BF01320092054443
:10121000A26A584603F05AF80136212ED5D10B4B5D
:101220000093CDE901750A4A0A48194603F04EF8C1
:101230000BB0BDE8F08F00BF1A5500081C55000820
:1012400022550008275500086F550008F55500087D
:10125000F7550008FB550008880400201C560008BC
:10126000B955000808B500F0B1FC4FF080510020DE
:1012700000F022F800F0D0FCBDE8084000F03DB9D5
:10128000034A044B00280CBF10461846704700BFA5
:10129000002D3101005A6202044A054B002818BF94
:1012A0001346044A105C5843704700BF005A62025C
:1012B000002D3101A3560008042808D8DFE800F00B
:1012C000030A0F1419000D4A936D19439165BFF37A
:1012D0004F8F7047094A136E19431166F7E7074AA3
:1012E000936C19439164F2E7044AD36C1943D164B7
:1012F000EDE7024A136D19431165E8E7001002405B
:10130000042821D8DFE800F003090F151B000F4A5D
:10131000936D23EA0101916570470C4A136E23EA2D
:10132000010111667047094A936C23EA0101916437
:101330007047064AD36C23EA0101D1647047034A1F
:10134000136D23EA01011165704700BF00100240D0
:101350002DE9F843124ADFF8508003010746D558BB
:101360002E69EB6800241E4008EBC0090223A3404D
:10137000334209D0EA68D9F8040022EA0303EB609B
:10138000214658F8373098470134042CEED1054BEC
:101390001B681BB1BDE8F843FFF744B8BDE8F8830C
:1013A000A856000840040020F40C0020032910B5C2
:1013B00016DC0D4B00011C18185863681A4001F127
:1013C0000C0300EB83035A600269022303FA01F164
:1013D00022EA01020261C3681943C160002010BD06
:1013E0004FF0FF30FBE700BFA85600080001024B9A
:1013F0001B58586A704700BFA8560008034B0001ED
:101400001A58136843F0010313607047A856000888
:1014100001282DE9F84305460F4630D8194E1A49E0
:10142000040106EB040841F8302098F80C9001EB19
:10143000C00148464B60D8F80810FFF73DFF365909
:10144000D8F804300024346048467460F362FFF733
:1014500023FF98F80D20B0FBF7F00123013851B2BB
:1014600002F01F02B062490973619340074A28469F
:1014700042F82130FFF7C2FF2046BDE8F8834FF065
:10148000FF30FAE7A8560008F40C002000E100E065
:101490000020FFF75DBF0120FFF75ABF8268016897
:1014A000531C83604368013B1340C85C7047F8B528
:1014B00005460F46164614461CB1AA68EB689A42C8
:1014C00001D1301BF8BD2846FFF7E8FF013C07F8C3
:1014D000010BF1E7C268436830B58468121B9A4279
:1014E00008D0C2680468013B1340551CC560E15434
:1014F000002030BD4FF0FF30FBE708B5002001F0C1
:1015000065FE0120BDE8084001F060BE08B500207E
:10151000FFF76CFF08BD000010B50B480B4C02F044
:1015200049FFFFF7F3FF2268801A094A904206D864
:10153000084802F03FFFFFF7E9FF074B1860FFF78D
:10154000E5FF206010BD00BFE65600081C0D00201E
:101550003F420F00F6560008240D002038B50B4D11
:101560002A68012A044606D1094802F023FF2168AF
:10157000201D00F06FFA2B6833B9064802F01AFFFD
:101580002168201D00F042FA002038BD2C0D0020FB
:10159000D6570008DF57000810B50B4CFFF7B6FF11
:1015A0002268801A094A90420AD9094A1368012B15
:1015B00083F001010CBF07480748116002F0FAFEF2
:1015C000FFF7A4FF206010BD3013002020A107000A
:1015D0002C0D0020C8560008D656000808B5094949
:1015E000094800F05BFB10B1084802F0E3FE064832
:1015F00000F0B3FB20B10648BDE8084002F0DABEB7
:1016000008BD00BF64570008040D002020570008E3
:101610003357000813B500240094094B09480122F0
:101620002146FFF793F9A04205DA074802F0C2FE0F
:10163000204602B010BD0348FFF712FA0120F8E778
:1016400099150008001800480C57000813B500242D
:101650000094094B094801222146FFF777F9A0427F
:1016600005DA074802F0A6FE204602B010BD034886
:10167000FFF7F6F90120F8E7191500080D040048F6
:10168000495700082DE9F04F614DDFF8B891DFF8B8
:10169000B8A1DFF8B8815F4E012389B02B60002329
:1016A000CAF80030FFF79AFFFFF7B4FFFFF7CEFF4D
:1016B00000F096F9D9F8000001F088FDFFF726FF49
:1016C000C8F80000FFF722FF3060FFF71FFF524B02
:1016D0001860042002F024FD4FF0080BC0F800B0A1
:1016E0000446042002F01CFDCDE904980746C0F82A
:1016F00000B0FFF70BFF059B1B68C01A474B9842D1
:101700007BD801232B60FFF701FF3368C01A444BDD
:101710009842EED9FFF7FAFEDAF800303060012B7C
:1017200067D1049B06A9186800F004F9DDF8188059
:101730000021404602F08CFC002847D0DDF81CB0A8
:101740000021584602F084FC00283FD0404602F0B9
:101750005DF980465846894602F058F94246CDE97F
:1017600000014B462F4802F0B1FD0698DDF81C80C1
:101770002D4902F0D9FA02F049F901F095FF02F083
:101780009DF9030E2371031463710312A371E071B9
:101790002549404602F0C8FA02F038F901F084FF0A
:1017A00002F08CF9030E2372031463720312A37206
:1017B0001E4BE072CDE901431D4B0093062200232E
:1017C0004FF4C0611B48FFF725FC92E7404602F04A
:1017D0001DF980460798894602F018F94246CDE97E
:1017E00000014B461448DFF8688002F06FFD134893
:1017F000BEE70E4BCDE90173DEE72B68012B7FF4CA
:1018000078AF00230E482B6002F0D4FD71E700BFD3
:10181000280D0020200D00201C0D0020FF23F400C7
:101820003F4B4C007C57000800247449C157000806
:101830005D150008300D00209757000895B54C4203
:10184000CD570008200200202C0D0020240D002080
:1018500079578DC070B54468D4B100686423634380
:1018600090FBF3F503FB150002F00AFA06463C2054
:10187000604302F005FA0146304602F009FB0446D7
:10188000284602F0FDF90146204602F045F970BDF8
:101890000048FCE70000C07F10F15F0F014603D154
:1018A00010485F2102F012BD10F1160F02D116216F
:1018B0000D48F7E710F10B0F02D10B210B48F1E7B0
:1018C000821D02D106210A48ECE7431D02D1052101
:1018D0000848E7E710F1740F06BF7421064807486F
:1018E000E0E700BFE6570008FE570008125800085E
:1018F00026580008395800084A580008615800085E
:1019000073B502AD0A2325F8043D0E46294602F0C0
:101910006BFD044618B9064C204602B070BD00218C
:10192000204600F0E3FCB042F6D029460020EEE766
:1019300091580008F0B5D5B006460D4601F0C6FC3A
:101940000024274614AB009723442122102130465F
:1019500001F092FE08B1FFF79FFF0134FF2CF1D197
:10196000304601F0D1FC012114A8FFF7C9FF04465D
:101970000146084802F0AAFC214602A800F01AFD20
:1019800007A8FFF767FF286009A8FFF763FF6860F3
:1019900055B0F0BD7C58000880F00101014802F00C
:1019A00095BC00BFF158000807B5009313460A46DE
:1019B0000146034802F08AFC03B05DF804FB00BF57
:1019C0001959000807B5009313460A460146034813
:1019D00002F07CFC03B05DF804FB00BF575900081F
:1019E0007FB5094A07CA03AB83E8070019460120FF
:1019F00000F0B4FE002101AB0822084600F020FFF1
:101A0000012007B05DF804FB9458000807B50D4BA2
:101A10000193D72300930A4603460021402000F09B
:101A200027FF022806D1084802F050FC012003B02D
:101A30005DF804FB032801D10448F5E70128F5D13E
:101A40000348F1E724020020A0580008C05800080D
:101A5000DE58000807B50D4B0193022300930A4698
:101A600003460021402000F003FF022806D1084869
:101A700002F02CFC012003B05DF804FB032801D127
:101A80000448F5E70128F5D10348F1E730020020CA
:101A9000A0580008C0580008DE58000808B5FFF735
:101AA0002DF9BDE8084000F001B800002DE9F34130
:101AB000174C184D184FDFF8648004F16006297A3E
:101AC0002B68656011F0FB0FA36001D008291BD1C2
:101AD000E7606868FEF702FF6B7A13F0060F08D024
:101AE00003F00403ADF80030E36869465B682846FC
:101AF00098472046103401F05FFAB44205F10C0516
:101B0000DDD102B0BDE8F081C4F80C80E1E700BF90
:101B10003413002094590008BC5B0008C85B00081F
:101B200070B504460D46FEF7EDFD236806463BB949
:101B30004FF0FF332360FEF7EDFD0125284670BD11
:101B4000C5B10E4B1D6802212846FEF7A5FB236890
:101B500001330AD105F1080323600023AB6030464E
:101B6000FEF7D8FDFEF75EFCE7E729462046FFF7C3
:101B700031FAF4E7FEF7CEFDE0E700BF3C040020B9
:101B800070B50446FEF7BEFD256806461DB9BDE8E2
:101B90007040FEF7BFBD6B1C02D100232360F6E747
:101BA00028460A2150F808392360FEF775FB2368A0
:101BB00013B94FF0FF33236015F8034C3046FEF79E
:101BC000A9FD2046BDE87040FEF7A6BB0F4BD3F839
:101BD000882042F4700210B5C3F888200C4A9A603D
:101BE0000C4C102283F822200021DA776018013192
:101BF0005B2980F80023F9D11A6942F010021A61BA
:101C00005A6942F400725A6110BD00BF00ED00E055
:101C10000000000800E100E038B5FEF773FD1C4D40
:101C20000023AB61044601F0DDF942F20153AB60E1
:101C30002B469A6802F00C02042AFAD1154A40F2A7
:101C4000047111604FF480721A60B9221A601A6828
:101C50009107FCD54FF04062C3F888200E4ADA6045
:101C60001A6842F080721A601A689201FCD59A686C
:101C700042F003029A609A6802F00C020C2AFAD130
:101C800001F0BCF92046BDE83840FEF743BD00BF77
:101C9000001002400020024051140001F7B50E462A
:101CA000044605460FCE0FC596E80300002685E8DA
:101CB0000300206801F00AFB21790096802324228A
:101CC000206801F0E3FC0546206801F01DFB277B3E
:101CD000206847F00F0701F0F9FA217900963B469A
:101CE0002022206801F0D2FC637B21790096054414
:101CF0002322206801F0CAFC334621790096222273
:101D00000544206801F0C2FC31460544A068FEF796
:101D1000E5FD237DA17B009643F0800360222068CF
:101D200001F0B4FC637DA17B00960544612220682C
:101D300001F0ACFCA17B00963346022205442068EA
:101D400001F0A4FC0544206801F0DEFA3146206968
:101D5000FEF7C4FDE81703B0F0BD73B504460026D6
:101D6000006801F0B3FA2179009627232022206829
:101D700001F08CFC2179009633462122206801F085
:101D800085FC21790096054640232222206801F037
:101D90007DFC21790096334605442322206801F01A
:101DA00075FC21790096054410233222206801F049
:101DB0006DFC21790096334605443322206801F0FA
:101DC00065FC217900960A2330220544206801F041
:101DD0005DFC0544206801F097FAE81702B070BD79
:101DE00010B5044602F08EF92044407810F09700B8
:101DF00005D02C2C04D0B4F12A0018BF012010BD4E
:101E00000020FCE7A0F13003DAB2092A01D8184615
:101E10007047A0F14103052B01D837387047A0F176
:101E20006103052B94BF57384FF0FF307047000017
:101E3000F8B505460F4602F0CFFA532801D9002025
:101E4000F8BD2B78242BFAD1013500262C4615F845
:101E5000013BB3B923782A2B20D16078FFF7D2FF5A
:101E6000421C0146EBD0A078FFF7CCFF431CE6D024
:101E700040EA0110B042E2D1033423788BB901204B
:101E8000DEE72A2BE6D002F03DF915F8013C1844B4
:101E9000427812F0970FDDD05E40D7E7002FECD0EC
:101EA000CDE70749204602F08DFA0028E7D0054922
:101EB000204602F087FAB0FA80F04009C0E700BF80
:101EC000AD5400082A5A00080EB42DE9F04F88B02E
:101ED00011AB064653F8047B0693013F04464FF0CE
:101EE000000917F8013F0BB901200AE03B2B00F075
:101EF0000781002C40F03E81B9F1000F40F00581D0
:101F0000002008B0BDE8F04F03B07047237890E19F
:101F10002078FFF765FF30B90023069A111D12687B
:101F2000069113608AE123784E2B02D003D8452B0B
:101F3000E6D10123F1E7532B01D0572BE0D14FF02D
:101F4000FF33EAE79AF800302B2B07D1B8F1000FE6
:101F50000BD16B1C09D14FF001088DE12D2B04D161
:101F6000B8F1000F01D1681C2FD002F0CBF89AF81D
:101F7000003018444278510716D56A1CA3F130038B
:101F800008BF00256FF00042D21A92FBFBF2AA4272
:101F900005DA002CB4D0B8F1000F1DD11EE00BFB08
:101FA00005350BFB04F467E12E2B03D1002CA7D1E0
:101FB000012461E1202BA3D1B8F1000FA0D1681C4E
:101FC0009ED1002C00F058819AE7A84654E1691C84
:101FD00096D0002C08BF012408FB05F5069B1A1DAE
:101FE0001B680692C3E9005428E120460A2207A98B
:101FF00002F0CAFA079B04461878FFF7F1FE0028A2
:102000007FF47EAF069B1A1D1B6806921C6015E1CB
:10201000237805F8013BA3E0069B1A1D0692D3F82E
:102020000080002C66D02078FFF7DAFE002861D00F
:10203000651E04F1050A02F065F815F8013F184421
:10204000407810F004003FF45CAF5545F3D123789D
:102050008DF8103063788DF81130A3788DF8143036
:10206000E3788DF81530002523798DF81C300A228D
:1020700063798DF81D30294604A88DF812508DF82B
:1020800016508DF81E5002F07FFA0A222946834628
:1020900005A802F079FA0A228246294607A802F02A
:1020A00073FAA3792E2B024615D104F10D01A31D5D
:1020B0008D4C00910A21CDE90231019202F022F803
:1020C000029B019A13F801CF03996044407810F005
:1020D000040F05D16543C8E900BAC8E90225ADE09F
:1020E00000989842F6D0B4FBF1F4ACF1300C01FB4F
:1020F00005C5E0E74FF0FF352A46AA46AB46EAE7BA
:102100004FF00109EDE60446EBE6642B3FF404AF23
:1021100014D8542B80D00BD8442B7FF4F1AE069BFF
:102120001A1D1D6806924FF0FF308246044670E08B
:102130005F2B00F08380632B7AD0E1E6692B3FF4BC
:1021400061AF04D8662B7FF4DBAE254646E7732BE0
:102150007FF4D6AE069B1A1D06921D683CB1013C69
:1021600014F8010FFFF73CFE00287FF451AF002365
:102170002B7063E0642B3FF4CBAE6ED8542B3FF44E
:102180004BAF4AD8442B7FF4BBAE069B20781D682A
:102190001A1D0692FFF724FE0028C4D004F1FF3870
:1021A00004F1050A01F0AEFF18F8013F1844407829
:1021B00010F004003FF4A5AEC245F3D123788DF8AA
:1021C000103063788DF81130A3788DF81430E378EF
:1021D0008DF815304FF0000823798DF81C300A2255
:1021E00063798DF81D30414604A88DF812808DF872
:1021F00016808DF81E8002F0C7F90A224146044677
:1022000005A802F0C1F90A228246414607A802F059
:10221000BBF9C5E9004AA86010E05F2B0ED0632B24
:102220007FF46EAE2078FFF7DBFD00287FF46EAE02
:102230000023069A111D12680691137035462E462A
:1022400001353078FFF7CCFD0028F8D133782C2BFE
:102250007FF459AF2E462C4643E6692B3FF4C5AEBA
:102260001BD8662B7FF44CAE04F1FF3A00244FF0EC
:10227000FF35A0464FF00A0B1AF8010FFFF7B0FD2B
:1022800000287FF45FAEB8F1000F7FF4A0AE34BB3E
:102290006A1C3FF45AAF0124A0E6732B3FF45AAFF7
:1022A000742B7FF42DAE2378242B7FF429AE2546A2
:1022B00004F1050815F8010FFFF792FD00283FF41F
:1022C0001FAEA845F6D1069B1D681A1D0692611C1B
:1022D0000522284601F03EFF00236B71AEE76B1C20
:1022E0003FF40EAE7AE600BF40420F0013B504463D
:1022F000FFF79EFD18B94FF0FF3002B010BD6A46DF
:1023000023492046FFF7E0FD0028F4D021490DF1D4
:10231000020002F057F868B31F490DF1020002F005
:1023200051F848B31D490DF1020002F04BF828B3F3
:102330001B490DF1020002F045F808B319490DF1EF
:10234000020002F03FF8E8B117490DF1020002F077
:1023500039F8C8B115490DF1020002F033F8A8B1FF
:1023600013490DF1020002F02DF800280CBF0820DF
:102370000020C2E70120C0E70220BEE70320BCE73F
:102380000420BAE70520B8E70620B6E70720B4E73F
:102390005A5A00083A5A00083E5A0008425A0008A1
:1023A000465A00084A5A00084E5A0008525A000875
:1023B000565A000830B591B004460DAB099304F1AC
:1023C0004003089304F13403079304F12C030693AC
:1023D00004F1240305930CAB049304F11C03039351
:1023E0000BAB029304F1140301930DF12B03084688
:1023F00000930EAA23461249FFF766FD054618B959
:102400000025284611B030BD0E490DF13A0001F00B
:10241000D9FF0028F4D19DF82B30A3F1410253429B
:102420005341237462690B9B53436361E2690C9BC4
:102430005343E361226C0D9B53432364E1E700BFE8
:102440002D5A00083A5A0008014801F03FBF00BF6A
:102450009D5A00082DE9F0432F4C304FDFF8CC9007
:10246000C5B006460025304600F0F3FC60B945B122
:10247000294C237D002B46D02948FFF781FB002300
:10248000637045B0BDE8F0836946304600F0AAFBB2
:102490009DF80030202B26D005D8042B16D08B2198
:1024A0002048FEF72DFE222B29D0232BF7D19DF8B3
:1024B00006102278914205D19DF805309DF8045010
:1024C000A370D0E7184801F001FFCCE73B68D3F8D0
:1024D0000880B8F1000FC6D004ABDDE902129DF808
:1024E0000400C047BFE7237D2BB1039AA06904A96C
:1024F00001F030FEB7E73B68D3F80480E9E74846CF
:1025000001F0E4FEAFE7054B1B681B68002BB6D05B
:10251000A0789847B3E700BF9C13002094130020D5
:1025200098130020ED5A0008BC5A0008265B0008EA
:1025300008B5044800F082FC0348BDE80840FFF7F6
:102540001FBB00BFBC1500205C020020F7B5134D77
:10255000134E074628460C46FEF798FA002141F232
:10256000883001F039F80F4B00936946C02330687A
:10257000ADF8043007228DF80640FEF717F9224621
:1025800039463068FEF712F92846FEF788FA2146E8
:10259000054801F09BFE03B0F0BD00BF09080048EC
:1025A000CC1B002041542444415B000837B50C4C3F
:1025B0004FF0000C251D0123CDE9003C13460A46CF
:1025C0000146284600F0DAFB284600F042FCC1B282
:1025D00004F11C0003B0BDE83040FFF7B7BF00BFF7
:1025E0009C130020F7B50D469DF8201002291646D1
:1025F00004461F46099A18D0D72911D0B9B92146E7
:1026000033462A4600970C4800F0C4FA0A4800F006
:1026100020FCC1B2094803B0BDE8F040FFF796BF07
:102620000C23054800F0FCF9E9E72C23F9E74FF407
:10263000B6710348FEF764FDA0130020B813002014
:10264000ED5A00082B4C2C4E8FB527460121304601
:10265000FFF766FA2578294895BB00F0FAFB0328B6
:10266000F4D903232A4669462448254D00F022FC6C
:102670009DF80030C02B02D19DF801309BB10121A3
:102680001E4800F05BFC1F4801F020FE00231B48A1
:102690003B702B7000F0DDFB0228D7D801213046BB
:1026A000FFF73EFAD2E7012303211448237000F01C
:1026B00045FC9DF802302B703046FFF761FAC5E704
:1026C0000F4D00F0C6FB2B789842BFD300220B4978
:1026D000684600F0C9FB6846FFF7BCFE68462D78E7
:1026E00000F0B7FB291A89B2044800F027FC002348
:1026F0002370ABE7B91400205C020020BC15002059
:10270000BA1400203C5B000810B501211048FFF707
:1027100007FA0DA3D3E900230D4800F087FF044614
:102720000B48FFF72DFA3CB90A4B5C709B78002BE5
:1027300014BF0320022010BD074801F0C7FD01208F
:10274000F9E700BFAFF3008080C3C90100000000BB
:10275000981300209C130020775A000830B5194BBD
:10276000194D196085B028604FF4807217491848D8
:1027700000F02AFB174B02930024174B019400939F
:10278000062223464FF4C0611448FEF743FC23465B
:10279000134A28684FF41651FEF73CF8044620B15E
:1027A0004FF480710F48FEF7ABFC01210E48FEF795
:1027B00095F800940D4B0E4801220821FEF7C6F84B
:1027C00005B030BD94130020CC1B0020BB140020AA
:1027D000BC1500208F5A000845260008CC150020A3
:1027E00031250008ED5A000809080048492400086E
:1027F0000514004838B50F4C637823B10E4801F03A
:1028000065FD002038BD01254FF4807204F11C01E4
:10281000201D2375A370657000F0D6FA074B197858
:1028200020464A1900F8041B1A702A4600F08AFA5A
:102830002846E7E79C1300205C5A0008B8140020E3
:10284000F8B504460D4616461F46FFF7D3FF60B1A4
:102850000648012303758761324629462046FFF763
:10286000A5FEBDE8F840FFF74FBFF8BD9C13002060
:102870002DE9F743DDF82C909DF8288004460D469D
:1028800016461F46FFF7B6FF78B1094B01221A75AD
:102890002946CDE900893B4632462046FFF7A2FE95
:1028A00003B0BDE8F043FFF72FBF03B0BDE8F083EE
:1028B0009C130020022806D0032806D010F1FF3018
:1028C00018BF01207047082070470220704713B5D9
:1028D00002A90023012201F8053D044600F019FB7E
:1028E0009DF8030082090AD0D30002A900F03F003E
:1028F000984041F8040D204600F00BFB019802B00F
:1029000010BD0000F0B585B004AE3F29074646F87B
:102910000C1D08D80122314600F05DFA58B33F2162
:102920001648FEF7EDFBB1F5804F2CBF02250125BF
:10293000B1F5800F28BF032504AB2B4404A913F87D
:102940000C3C03EB851301F8013D012200F043FA32
:1029500008B14C21E4E76B1E044656FA83F60122C7
:10296000311B384600F037FA08B14F21D8E701345F
:10297000E3B29D42F3D105B0F0BD00BF4D5B00084E
:1029800073B50E466D46044601222946304600F0D6
:10299000C0FA18B155210748FEF7B2FB3046FFF7E1
:1029A00096FF019095E8030084E80300204602B0FA
:1029B00070BD00BF4D5B000873B56E460D46044602
:1029C00001463046FFF7DCFF96E803002B1D83E845
:1029D00003002046FFF77BFFFF28E86003D9B821FA
:1029E0000548FEF78DFB82B205F11001204602B0CA
:1029F000BDE8704000F08DBA4D5B000838B5044664
:102A0000154600F01BFA18B15B210448FEF778FB6D
:102A100029462046BDE83840FFF774BF4D5B0008EB
:102A2000F7B505460E461F4614461AB960215848A8
:102A3000FEF766FB322100F001FA08B16121F6E7EA
:102A40003146284600F0FAF908B16221EFE7D72EA7
:102A50002AD12178284600F0F1F908B16621E6E78D
:102A60006178284600F0EAF908B16721DFE7A1782C
:102A7000284600F0E3F908B16821D8E7A078C0F350
:102A80000110FFF717FFE1780646284600F0D6F957
:102A900008B16A21CBE7B2B2211D284600F09BF9AC
:102AA000002873D06B21C2E7022E3AD194F8281087
:102AB000490001F0FE01284600F0C0F908B170217C
:102AC000B5E794F82910284600F0B8F908B171214B
:102AD000ADE710222146284600F07DF908B17221A9
:102AE000A5E71022A118284600F075F908B1732156
:102AF0009DE7236A02A91BBA41F8083D0422284633
:102B000000F069F908B1752191E7636A02A91BBA5F
:102B100041F8043D0422284600F05DF9B0B3782165
:102B200085E7032E2AD194F82010490001F0FE0118
:102B3000284600F083F908B17D2178E794F8211048
:102B4000284600F07BF908B17E2170E70822214673
:102B5000284600F040F908B17F2168E70822A11853
:102B6000284600F038F908B1802160E71022A1184A
:102B7000284600F030F948B1812158E73A4621460D
:102B8000284600F028F908B1852150E703B0F0BDD0
:102B90004D5B0008F8B50F462021044616461D4639
:102BA00000F04CF918B18C210D48FEF7A9FA39460E
:102BB000204600F043F908B18D21F5E73146204663
:102BC000FFF7A0FE29462046FFF79CFEAAB2069911
:102BD000204600F000F908B19021E5E7F8BD00BFFC
:102BE0004D5B0008F0B589B00D4601220DF10601DC
:102BF000044600F08EF918B1EE215148FEF780FA34
:102C00009DF806309A09D90903F03F03202B8DF86F
:102C100006302B7015D004D8042B12D04FF48171DC
:102C2000EBE7222B02F0010211D0232BF6D1297100
:102C30006A71A91D0122204600F06BF928B1CA2152
:102C4000DBE729462046FFF7B7FE09B0F0BD02B129
:102C500009B1CF21D1E701220DF10701204600F093
:102C600058F908B1D121C8E79DF80730D72B01D01A
:102C7000D221C2E702AA2B1D1746143518685968DD
:102C8000164603C60833AB423246F7D118683060A7
:102C900099889B79B371B18001223946204600F0B2
:102CA00038F902220DF10A01204600F032F9BDF890
:102CB0000A3001225BBA03A92046ADF80A3000F0C1
:102CC00028F901220DF10D01204600F022F9012220
:102CD0000DF10F01204600F01CF9012204A9204645
:102CE00000F017F901220DF11101204600F011F951
:102CF00001220DF11201204600F00BF901220DF125
:102D00001301204600F005F901220DF115012046BE
:102D100000F0FFF801220DF11601204600F0F9F84D
:102D20009DF81500C0F30110FFF7C4FD0DF1170168
:102D300082B2204600F0EDF8002886D0E6215CE75C
:102D40004D5B0008D20138B50D4642F0340101F068
:102D5000B401044600F072F820B140F23F11064879
:102D6000FEF7CEF92946204600F068F810B14FF47E
:102D7000A071F4E738BD00BF4D5B0008F8B50E4602
:102D80009DF81C101D46C9019DF8183041F0010145
:102D900041EA831101F0C1010446174600F04EF8E4
:102DA00020B140F245110748FEF7AAF93146204606
:102DB0003A46FFF723FE29462046BDE8F840FFF7D4
:102DC000A1BD00BF4D5B00080023013A81608280F5
:102DD0000360037370472DE9F041057B0446884684
:102DE000164635BB43880088834202EB030C0BD2A6
:102DF000604520DDA068184401F0ACF963881E44EA
:102E000066802846BDE8F081A7886745F2DAFF1A98
:102E1000BFB2D61BB6B2B0420DD9A0683A4618442C
:102E200001F098F9324608EB0701A06801F092F929
:102E3000E6E71625E5E741F28A35E2E707B502AB9A
:102E4000012203F8011D1946FFF7C5FF03B05DF825
:102E500004FB028843889A4285BF8088C018981A6C
:102E6000801A80B27047000070B5054608461C46BF
:102E70001646FFF7EEFFA04203D22B210C48FEF7C7
:102E80003FF988883444844201DD2C21F6E70A8822
:102E90008B68AB6016442E800B88A8801C44A3B2BC
:102EA000984238BF1B1A6B8001232B7370BD00BF83
:102EB000845B0008F8B50E46054611461F461BB157
:102EC000FFF7C7FF874221D82B88A8880B44A96841
:102ED00093FBF0F200FB123294B211443A4492FB9D
:102EE000F0F300FB132292B2944205D83A463046E2
:102EF00001F030F90020F8BD001B84B222463046B4
:102F000001F028F93A1BA9683019F1E741F28A303B
:102F1000F1E738B51446134600220546FFF7CAFF0D
:102F200058B92A88A988224492B28A422A8082BF4C
:102F3000B2FBF1F301FB13222A8038BD10B5044621
:102F400019B1FFF786FF81420DD82388A288194462
:102F500089B29142218004D9B1FBF2F302FB131133
:102F60002180002001E041F28A3010BDB1F900203B
:102F700008B5437A32B903F001014068FDF799FDC5
:102F8000012008BDDB43F6E738B5447A40680D46BA
:102F9000FDF772FD00B1E443284604F0010420F877
:102FA000024B0422002101F0E0F81223EB80012003
:102FB00038BD6FF085007047094B1A6860B1002179
:102FC00001601AB91860104670471A461368002B42
:102FD000FBD11060184670476FF01200704700BFB9
:102FE000D01B0020044B1A6842F480721A601A68E1
:102FF0005205FCD5704700BF00100240704700002A
:1030000008B520B940F2EF110B48FEF779F8836953
:10301000DA060AD483699B050AD4836913F4807F96
:1030200014BF6FF00400002008BD6FF00500FBE73F
:103030006FF00A00F8E700BFD45B000838B59DF8D0
:10304000104014F0010445D120B940F26311234827
:10305000FEF756F84460456825F40065456045680C
:1030600025F47F7525F003054560456845EA410173
:103070004160416821F480614160416841EA8323F5
:103080004360436823F47F034360436843EA02429A
:103090004260436823F000734360C36943F44473A0
:1030A000C361436843F40053436023464168890485
:1030B0009AB208D40133B3F5803FF7D1FFF7A0FFF0
:1030C00000EAE07038BD4FF6FF739A42F6D16FF018
:1030D0007300F7E76FF05E00F4E700BFD45B000811
:1030E00008B520B94FF4EA711648FEF709F8002236
:1030F0008169D34349069BB205D40132B2F5803FC2
:10310000F6D14FF6FF73826912F4447217D1B3B14E
:10311000436843F480434360436813F4804391B2AF
:1031200005D10132B2F5803FF6D1184608BD4FF601
:10313000FF73994214BF00206FF07300F6E76FF041
:103140000400F3E7D45B000870B50446C8B10D462F
:103150008E18B5421AD10022A169D34349069BB209
:1031600005D40132B2F5803FF6D14FF6FF73A26964
:1031700012F4447F24D1002B0CBF6FF00500002017
:103180001DE040F2B1111048FDF7BAFF0021A2691D
:10319000CB4390079BB205D40131B1F5803FF6D106
:1031A0004FF6FF73A26912F4447F09D143B115F8B9
:1031B000013BA3622046FFF723FF0028C9DA70BD58
:1031C0006FF00500FBE700BFD45B00080128F8B5ED
:1031D000064603D949213748FDF792FF364B374D54
:1031E000002243F820201C234343EF18EC58796950
:1031F000B87CFEF761F83A7E53B2002B38DA3049DA
:1032000002F00F00014410200876012102F01F0295
:1032100001FA02F25B092B4941F823201C2303FB2E
:1032200006551521AE683046FDF758FB3046297C1F
:10323000FDF7EEFBEE6815213046FDF74FFB697C8C
:103240003046FDF7E5FB2B791F4903EB8303CA18D2
:10325000C95C13791B0543EA017351780B43D1789C
:10326000927843EA014343EA02234CB96E21B2E764
:1032700003F1604101F56141102081F80003C4E7CA
:10328000226822F001022260226842F48052226009
:10329000226842F4706222602361236823F40033C1
:1032A0002360E36943F44473E361236843F001035B
:1032B0002360F8BDD45B0008D41B0020F45B000839
:1032C000FCEC00E000E100E02C5C0008012810B5F7
:1032D000044603D988210948FDF712FF0848012157
:1032E00000EB8400FEF71CFC064B1C2202FB04349E
:1032F000A07C6169FDF7E0FF002010BDD45B0008F1
:10330000D41B0020F45B0008012810B5044603D943
:1033100093210F48FDF7F4FE1C220E4B424300217F
:1033200098581A4683691B0403D50131B1F5803FD3
:10333000F8D11C2303FB0423987C5969FDF7E0FFB7
:10334000054800EB8400FEF71BFC002010BD00BF09
:10335000D45B0008F45B0008D41B00202DE9F34186
:103360000128164698469DF8207003D9A2212648C8
:10337000FDF7C6FE1C235843244B1C58FB0737D4CB
:103380003D070BD40097012342462046FFF756FE27
:10339000051E03DA2046FFF7A3FE2BE084B1324678
:1033A000B04490450FD12046FFF72AFE051EF1DB01
:1033B0007B0723D4204602B0BDE8F041FFF790BE62
:1033C00040F29511D3E70021A069CB4340079BB29F
:1033D00005D40131B1F5803FF6D14FF6FF73A169F5
:1033E00011F4447F0CD15BB1636A02F8013BD8E76A
:1033F0006FF05E05284602B0BDE8F0810025F9E7D0
:103400006FF07305C6E700BFD45B0008F45B0008EB
:103410002DE9F3470128914605460E461F46DDF883
:1034200028809DF82C2003D9CD212948FDF768FE7E
:1034300012F0030346D11C21414326484458A06999
:10344000D943000489B205D50133B3F5803FF6D1E5
:103450004FF6FF71A36913F4447F36D1A9B312F07C
:1034600008030FD10092314601222046FFF7E6FD06
:10347000B0F1000A06DA2046FFF732FE504602B0ED
:10348000BDE8F0874FF6FF73A26992070DD4A269D9
:1034900012F4447F03D1013B9BB2002BF4D12046B0
:1034A000FFF71EFE6FF0050AE8E70023C4F8289036
:1034B0003A460A9331464346284602B0BDE8F047F3
:1034C000FFF74CBF6FF05E0AD8E76FF0730AD5E7DD
:1034D000D45B0008F45B00082DE9F743012891460E
:1034E00098460A9F9DF82C5004D94FF495712148B5
:1034F000FDF706FE1C2358431F4B1C5815F0030311
:1035000031D1A069DA43000492B205D50133B3F595
:10351000803FF6D14FF6FF72A36913F4447F25D1A3
:1035200022B315F008030DD100957A1C2046FFF751
:1035300085FD061E06DA2046FFF7D2FD304603B0B1
:10354000BDE8F083C4F828903A4641462046FFF78C
:10355000FBFD061EEFDB6B07F0D4204603B0BDE891
:10356000F043FFF7BDBD6FF05E06E7E76FF073064F
:10357000E4E700BFD45B0008F45B0008FEF700BB83
:10358000012310B5836003684068194600F1080400
:103590000A6832B90A21FCF77FFEBDE81040FCF74B
:1035A00041BF944208D182680A601A68002AF1D1AA
:1035B0004FF0FF321A60EDE71146E9E738B50446EF
:1035C0000020FDF713FF05460020FDF70FFF401B0D
:1035D000A042F9D338BD000030B587B004460D468F
:1035E000FDF79BF848B11DB138210E48FDF788FD65
:1035F0002046FFF7E3FF07B030BD0B4B0090CDE94D
:103600000200012168460493CDF814D0FEF788FA31
:10361000214601A82A46FDF713FC01216846FEF762
:103620007FFAE8E73B5C00087D35000810B51946D5
:103630000F4B88B01B680193044600231046029389
:1036400050EA0103009408D00A4B06930A4601464B
:1036500003A8CDF81CD0FDF7F3FB01212046FEF7AF
:103660005FFA03A8FDF7BCFB0298404208B010BD0A
:103670003C0400208135000813B59DF810400194EA
:1036800001240094FFF7C4FE02B010BD1FB504ACC6
:1036900004F8013D9DF8183001930123009323465F
:1036A000FFF71AFF04B010BDF8B5C1F30A57A7F22F
:1036B000FF35132D0A460B46044611DC002D2ADB8C
:1036C0008C461F4929410A422BD04FF400232B413D
:1036D000634423EA01030026344619462046F8BD18
:1036E000332D05DDB5F5806F1ED011462046F8BD9F
:1036F000A7F213474FF0FF3121FA07F73842F4D011
:103700000122C5F1330502FA05F5461928BF9B18B9
:1037100026EA0706E0E7013501F0004309D000265C
:10372000DAE70028D1D1E0E7024600F011F80446BC
:10373000DCE743F07F5343F440130026CCE700BF9F
:10374000FFFF0F0081F0004102E000BF83F0004363
:1037500030B54FEA41044FEA430594EA050F08BF2C
:1037600090EA020F1FBF54EA000C55EA020C7FEAF0
:10377000645C7FEA655C00F0E2804FEA5454D4EB6D
:103780005555B8BF6D420CDD2C4480EA020281EA37
:10379000030382EA000083EA010180EA020281EA6F
:1037A0000303362D88BF30BD11F0004F4FEA0131C1
:1037B0004FF4801C4CEA113102D0404261EB4101D0
:1037C00013F0004F4FEA03334CEA133302D0524256
:1037D00063EB430394EA050F00F0A780A4F1010412
:1037E000D5F1200E0DDB02FA0EFC22FA05F280184C
:1037F00041F1000103FA0EF2801843FA05F3594132
:103800000EE0A5F120050EF1200E012A03FA0EFCB0
:1038100028BF4CF0020C43FA05F3C01851EBE371DA
:1038200001F0004507D54FF0000EDCF1000C7EEBF7
:1038300000006EEB0101B1F5801F1BD3B1F5001F35
:103840000CD349085FEA30004FEA3C0C04F1010454
:103850004FEA445212F5800F80F09A80BCF1004F7D
:1038600008BF5FEA500C50F1000041EB045141EAFF
:10387000050130BD5FEA4C0C404141EB010111F400
:10388000801FA4F10104E9D191F0000F04BF0146AB
:103890000020B1FA81F308BF2033A3F10B03B3F189
:1038A00020020CDA0C3208DD02F1140CC2F10C0219
:1038B00001FA0CF021FA02F10CE002F11402D8BF77
:1038C000C2F1200C01FA02F120FA0CFCDCBF41EA43
:1038D0000C019040E41AA2BF01EB0451294330BD12
:1038E0006FEA04041F3C1CDA0C340EDC04F11404EF
:1038F000C4F1200220FA04F001FA02F340EA0300C6
:1039000021FA04F345EA030130BDC4F10C04C4F10B
:10391000200220FA02F001FA04F340EA03002946EB
:1039200030BD21FA04F0294630BD94F0000F83F435
:10393000801306BF81F480110134013D4EE77FEA18
:10394000645C18BF7FEA655C29D094EA050F08BF64
:1039500090EA020F05D054EA000C04BF1946104645
:1039600030BD91EA030F1EBF0021002030BD5FEA89
:10397000545C05D14000494128BF41F0004130BDB1
:1039800014F580043CBF01F5801130BD01F0004505
:1039900045F0FE4141F470014FF0000030BD7FEA78
:1039A000645C1ABF194610467FEA655C1CBF0B4673
:1039B000024650EA013406BF52EA033591EA030F8A
:1039C00041F4002130BD00BF90F0000F04BF002182
:1039D000704730B54FF4806404F132044FF00005B5
:1039E0004FF0000150E700BF90F0000F04BF00212E
:1039F000704730B54FF4806404F1320410F0004594
:103A000048BF40424FF000013EE700BF42004FEA8E
:103A1000E2014FEA31014FEA02701FBF12F07F430B
:103A200093F07F4F81F06051704732F07F4208BFC2
:103A3000704793F07F4F04BF41F40021704730B5C9
:103A40004FF4607401F0004521F000411CE700BF15
:103A500050EA010208BF704730B54FF000050AE098
:103A600050EA010208BF704730B511F0004502D599
:103A7000404261EB41014FF4806404F132045FEA9B
:103A8000915C3FF4D8AE4FF003025FEADC0C18BF44
:103A900003325FEADC0C18BF033202EBDC02C2F136
:103AA000200300FA03FC20FA02F001FA03FE40EAC8
:103AB0000E0021FA02F11444BDE600BF4FEA4102B4
:103AC00012F5001215D211D56FF47873B3EB625270
:103AD00012D94FEAC12343F0004343EA505311F097
:103AE000004F23FA02F018BF404270474FF0000029
:103AF000704750EA013005D111F0004008BF6FF067
:103B0000004070474FF00000704700BF80F0004059
:103B100002E000BF81F0004142001FBF5FEA4103A5
:103B200092EA030F7FEA226C7FEA236C6AD04FEAA5
:103B30001262D2EB1363C1BFD218414048404140EA
:103B4000B8BF5B42192B88BF704710F0004F40F49C
:103B5000000020F07F4018BF404211F0004F41F4B8
:103B6000000121F07F4118BF494292EA030F3FD084
:103B7000A2F1010241FA03FC10EB0C00C3F1200397
:103B800001FA03F100F0004302D5494260EB400026
:103B9000B0F5000F13D3B0F1807F06D340084FEA91
:103BA000310102F10102FE2A51D2B1F1004F40EB86
:103BB000C25008BF20F0010040EA030070474900EE
:103BC00040EB000010F4000FA2F10102EDD1B0FAB9
:103BD00080FCACF1080CB2EB0C0200FA0CF0AABFAE
:103BE00000EBC25052421843BCBFD040184370474C
:103BF00092F0000F81F4000106BF80F40000013252
:103C0000013BB5E74FEA41037FEA226C18BF7FEA28
:103C1000236C21D092EA030F04D092F0000F08BF6A
:103C20000846704790EA010F1CBF0020704712F051
:103C30007F4F04D1400028BF40F00040704712F190
:103C400000723CBF00F50000704700F0004343F0F5
:103C5000FE4040F4000070477FEA226216BF08462B
:103C60007FEA23630146420206BF5FEA412390EAEE
:103C7000010F40F4800070474FF0000304E000BFE4
:103C800010F0004348BF40425FEA000C08BF704795
:103C900043F0964301464FF000001CE050EA010259
:103CA00008BF70474FF000030AE000BF50EA01026E
:103CB00008BF704711F0004302D5404261EB41015B
:103CC0005FEA010C02BF84460146002043F0B64380
:103CD00008BFA3F18053A3F50003BCFA8CF2083AA5
:103CE000A3EBC25310DB01FA02FC634400FA02FCAE
:103CF000C2F12002BCF1004F20FA02F243EB0200B5
:103D000008BF20F00100704702F1200201FA02FC16
:103D1000C2F1200250EA4C0021FA02F243EB020009
:103D200008BF20EADC7070474FF0FF0C1CEAD0524D
:103D30001EBF1CEAD15392EA0C0F93EA0C0F6FD00E
:103D40001A4480EA010C400218BF5FEA41211ED0EC
:103D50004FF0006343EA501043EA5111A0FB0131D8
:103D60000CF00040B1F5000F3EBF490041EAD371AD
:103D70005B0040EA010062F17F02FD2A1DD8B3F129
:103D8000004F40EBC25008BF20F00100704790F098
:103D9000000F0CF0004C08BF49024CEA502040EAEA
:103DA00051207F3AC2BFD2F1FF0340EAC2507047B0
:103DB00040F400004FF00003013A5DDC12F1190FEE
:103DC000DCBF00F000407047C2F10002410021FA60
:103DD00002F1C2F1200200FA02FC5FEA310040F178
:103DE000000053EA4C0308BF20EADC70704792F0F1
:103DF000000F00F0004C02BF400010F4000F013A29
:103E0000F9D040EA0C0093F0000F01F0004C02BF23
:103E1000490011F4000F013BF9D041EA0C018FE792
:103E20000CEAD15392EA0C0F18BF93EA0C0F0AD098
:103E300030F0004C18BF31F0004CD8D180EA0100BE
:103E400000F00040704790F0000F17BF90F0004F57
:103E5000084691F0000F91F0004F14D092EA0C0F39
:103E600001D142020FD193EA0C0F03D14B0218BFCC
:103E7000084608D180EA010000F0004040F0FE4012
:103E800040F40000704740F0FE4040F440007047AE
:103E90004FF0FF0C1CEAD0521EBF1CEAD15392EA2D
:103EA0000C0F93EA0C0F69D0A2EB030280EA010C1D
:103EB00049024FEA402037D04FF0805343EA1111B6
:103EC00043EA10130CF000408B4238BF5B0042F114
:103ED0007D024FF4000C8B4224BF5B1A40EA0C00B9
:103EE000B3EB510F24BFA3EB510340EA5C00B3EBEB
:103EF000910F24BFA3EB910340EA9C00B3EBD10FD9
:103F000024BFA3EBD10340EADC001B0118BF5FEA2A
:103F10001C1CE0D1FD2A3FF650AF8B4240EBC25053
:103F200008BF20F0010070470CF0004C4CEA502014
:103F30007F32C2BFD2F1FF0340EAC250704740F463
:103F400000004FF00003013A37E792F0000F00F055
:103F5000004C02BF400010F4000F013AF9D040EAD3
:103F60000C0093F0000F01F0004C02BF490011F467
:103F7000000F013BF9D041EA0C0195E70CEAD1535F
:103F800092EA0C0F08D142027FF47DAF93EA0C0F46
:103F90007FF470AF084676E793EA0C0F04D14B022A
:103FA0003FF44CAF08466EE730F0004C18BF31F0DC
:103FB000004CCAD130F000427FF45CAF31F00043D6
:103FC0007FF43CAF5FE700BF4FF0FF3C06E000BF6F
:103FD0004FF0010C02E000BF4FF0010C4DF804CD92
:103FE0004FEA40024FEA41037FEA226C18BF7FEAA2
:103FF000236C11D001B052EA530C18BF90EA010FA4
:1040000058BFB2EB030088BFC81738BF6FEAE17032
:1040100018BF40F0010070477FEA226C02D15FEACE
:10402000402C05D17FEA236CE4D15FEA412CE1D03A
:104030005DF8040B704700BF844608466146FFE701
:104040000FB5FFF7C9FF002848BF10F1000F0FBDE3
:104050004DF808EDFFF7F4FF0CBF012000205DF8DC
:1040600008FB00BF4DF808EDFFF7EAFF34BF012061
:1040700000205DF808FB00BF4DF808EDFFF7E0FFFA
:1040800094BF012000205DF808FB00BF4DF808ED4B
:10409000FFF7D2FF94BF012000205DF808FB00BFAE
:1040A0004DF808EDFFF7C8FF34BF012000205DF890
:1040B00008FB00BF70B50D4E0D4CA41BA4100025CD
:1040C000A54209D10B4E0C4CFCF772F8A41BA410AE
:1040D0000025A54205D170BD56F825309847013519
:1040E000EEE756F8253098470135F2E7F05D000815
:1040F000F05D0008F05D0008F05D0008D0F8EC000D
:1041000070470000044B054A1B681B6A002B08BF60
:104110001346D3F8EC00704760020020C402002070
:10412000024B0146186800F077B800BF600200201B
:1041300082B001B901A942B14BB113780B6012787A
:10414000101C18BF012002B070471046FBE76FF04B
:104150000100F8E710B5431E0A44914200D110BD9A
:1041600011F8014B03F8014FF7E70244034693426D
:1041700000D1704703F8011BF9E7000038B5054688
:10418000002945D051F8043C0C1F002BB8BFE4189F
:1041900000F0BCFC1F4A1368104633B9636014601A
:1041A0002846BDE8384000F0B2BCA3420CD92168D3
:1041B0006218934204BF1A685B68636004BF5218B8
:1041C00022600460ECE713465A680AB1A242FAD9A9
:1041D00019685818A0420BD120680144581882422F
:1041E0001960DDD1106852685A6001441960D7E740
:1041F00002D90C232B60D3E7206821188A4204BF20
:1042000011685268626004BF091821605C60C7E7EA
:1042100038BD00BFDC1B002070B5CD1C25F00305A8
:1042200008350C2D38BF0C25002D064601DBA942B0
:1042300003D90C233360002070BD00F067FC214AD5
:104240001468214691B9204C23681BB93046FBF70E
:10425000B3FF206029463046FBF7AEFF431C24D154
:104260000C233360304600F052FCE4E70B685B1B24
:1042700018D40B2B0FD90B60CD50CC18304600F062
:1042800046FC04F10B00231D20F00700C31AD3D015
:104290005A42E250D0E78C424B6816BF636013600D
:1042A0000C46EBE70C464968CCE7C41C24F0030439
:1042B000A04205D0211A3046FBF77EFF0130CFD057
:1042C0002560DBE7DC1B0020E01B00200FB40A4B5D
:1042D00013B51C6824B1A36913B9204600F028FB6C
:1042E00005AB049AA1680193204600F039FC02B0A6
:1042F000BDE8104004B070476002002070B50E4663
:10430000054618B183690BB900F012FBAB69AC68C4
:1043100013B9284600F00CFB234B9C4217D16C6864
:10432000A3891B071DD52369DBB1013EA36816F8DD
:10433000011F013BA360E9B9002B2EDA22460A21B6
:10434000284600F037F9013011D00A2011E0174B50
:104350009C4201D1AC68E3E7154B9C4208BFEC6876
:10436000DEE72146284600F085F90028DDD04FF031
:10437000FF3070BD002B04DAA2699A4206DC0A29DC
:1043800004D023685A1C22601970CFE722462846C1
:1043900000F010F90130C9D1E9E723680A205A1C5E
:1043A00022601870E5E700BF7C5D00089C5D000896
:1043B0005C5D0008024B01461868FFF79FBF00BF15
:1043C0006002002010F8012B11F8013B012A28BFE0
:1043D0009A42F7D0D01A7047034613F8012B002AEF
:1043E000FBD1181A01387047134B2DE9F0411D68B5
:1043F000AC6D06460F46B4B95020FFF791FEA86594
:10440000C0E90044C0E90244C0E90444C0E90A44E8
:10441000C0E90C44C0E90E44C0E91044C0E91244AC
:10442000846104774462AA6D394630460123BDE8B1
:10443000F04100F003B800BF60020020F0B518B9E9
:10444000106808B9F0BD204604460F4614F8015B19
:1044500017F8016B1EB96DB915602846F2E7B54231
:10446000F6D1002BEFD114600370EBE72B460DE083
:1044700026B91C4623460F4613F8015B17F8016B5B
:10448000B542F5D1002DF1D0002121701360D9E79C
:104490002DE9F0478046894692461E460F463D4626
:1044A000089815F8014BFFF729FE2044437813F0D4
:1044B000080332D12D2C32D17C78BD1C0122002E74
:1044C0005DD0102E09D1302C07D12B7803F0DF03FB
:1044D000582B4FD16C7810260235002A14BF4FF0AC
:1044E00000416FF000410027B1FBF6FC384606FBA7
:1044F0001C1EA4F13003092B17D81C46A64223DD4D
:104500007B1C07D084451CD301D1A64519DB00FBD9
:104510000640012715F8014BEBE72F46BFE72B2C90
:1045200004BFBD1C7C781A46C9E7A4F14103192BCE
:1045300001D8373CE2E7A4F16103192B04D8573CBA
:10454000DCE74FF0FF37E5E77B1C08D12223C8F8F2
:1045500000300846BAF1000F07D1BDE8F08702B17C
:104560004042BAF1000FF8D00FB105F1FF39CAF897
:104570000090F2E73024002EAFD10826ADE7302CB2
:10458000A3D00A26A9E70000084B37B51C68084DE0
:10459000236A002B08BF2B46009313460A460146A8
:1045A0002046FFF775FF03B030BD00BF600200205A
:1045B000C4020020F8B50E461446054618B18369BA
:1045C0000BB900F0B5F9214B9C422AD16C68A36964
:1045D000A360A3891A072ED5236963B323692068D2
:1045E000C01A6369F6B28342374604DC2146284686
:1045F00000F034F928BBA368013BA36023685A1C70
:1046000022601E7063690130834204D0A389DB07F6
:1046100019D50A2E17D12146284600F01FF990B16E
:104620000FE00B4B9C4201D1AC68D0E7094B9C4298
:1046300008BFEC68CBE72146284600F01BF80028AD
:10464000CCD04FF0FF373846F8BD00BF7C5D000886
:104650009C5D00085C5D000849B1FF2A85BF8A2384
:1046600003600A704FF0FF3098BF01207047084682
:1046700070470000324B70B51D6806460C4625B1E8
:10468000AB6913B9284600F053F92E4B9C420FD169
:104690006C68B4F90C309AB215072CD4D00611D43A
:1046A0000922326043F04003A3814FF0FF303EE027
:1046B000254B9C4201D1AC68EBE7244B9C4208BFE0
:1046C000EC68E6E7510712D5616B41B104F1440390
:1046D000994202D03046FFF751FD00236363A3895E
:1046E00023F02403A3810023636023692360A3894B
:1046F00043F00803A38123694BB9A38903F4207312
:10470000B3F5007F03D02146304600F0BFF9A289FF
:1047100012F001030CD00023A36063695B42A36124
:10472000236953B9B4F90C3013F08000BAD170BDCD
:10473000920758BF6369A360F2E70020F7E700BF64
:10474000600200207C5D00089C5D00085C5D000844
:104750008A892DE9F041054610070C4658D44B686C
:10476000002B05DC0B6C002B02DC0020BDE8F08187
:10477000E66A002EF9D0002312F480522F68216AD5
:104780002B6032D0606DA3895A0705D56368C01AC3
:10479000636B0BB1236CC01A00230246E66A216AE0
:1047A0002846B047431CA38906D129681D2948D84B
:1047B000294ACA40D60744D500226260D90422693A
:1047C000226004D5421C01D12B6803B96065616B7E
:1047D0002F600029C9D004F14403994202D0284631
:1047E000FFF7CCFC00206063C0E701232846B047F8
:1047F000411CC8D12B68002BC5D01D2B01D0162B16
:1048000001D12F60B1E7A38943F04003A381ADE755
:104810000F69002FA9D093070E6808BF4B690F607E
:1048200018BF0023A6EB07088B60B8F1000F9CDDD2
:1048300043463A46216AA66A2846B047002806DC65
:10484000A38943F04003A3814FF0FF308EE7074474
:10485000A8EB0008E9E700BF0100402038B50B696C
:1048600005460C46DBB118B183690BB900F060F85E
:104870000C4B9C4209D16C68B4F90C307BB12146D9
:104880002846BDE83840FFF763BF074B9C4201D183
:10489000AC68F1E7054B9C4208BFEC68ECE70020F0
:1048A00038BD00BF7C5D00089C5D00085C5D0008B1
:1048B000002310B50446C0E900338360818143665C
:1048C000C281C0E904338361194608225C30FFF7D6
:1048D0004CFC054B6362054BA362054BE362054B41
:1048E0002462236310BD00BF9D500008BF50000824
:1048F000F75000081B510008014900F085B800BFBF
:104900005D48000870B54A1E682555430E4605F1FE
:104910007401FFF781FC044640B10021C0E9001694
:104920000C30A06005F16802FFF71FFC204670BD47
:10493000836910B5044633BBC0E912330365124BDB
:10494000124A1B688262984204BF0123836100F00F
:104950001FF86060204600F01BF8A060204600F0C1
:1049600017F80022E06004216068FFF7A1FF012230
:104970000921A068FFF79CFF02221221E068FFF7DF
:1049800097FF0123A36110BD505C0008F94800089F
:10499000F8B51B4B1E68B369074613B93046FFF7DD
:1049A000C7FF4836D6E90134013B03D5336833B13C
:1049B0003668F7E7B4F90C506DB16834F4E70421B8
:1049C0003846FFF79FFF30600028F1D10C233B6091
:1049D00004462046F8BD0B4B6566C4E90055A5604A
:1049E000C4E90335C4E905550822294604F15C00F1
:1049F000FFF7BBFBC4E90D55C4E91255E9E700BF59
:104A0000505C00080100FFFF2DE9F843804689460D
:104A100000F14804002614B93046BDE8F883D4E913
:104A20000175013F01D52468F5E7AB89012B07D952
:104A3000B5F90E30013303D029464046C847064336
:104A40006835EEE770B50E46B1F90E10002996B044
:104A500014461D4607DA00232B60B3891A0610D4CA
:104A60004FF480630EE06A46FBF7D6FB0028F2DBCA
:104A7000019A02F47042A2F500535A425A412A6048
:104A8000EEE740230020236016B070BD8B8973B51C
:104A90009D0706460C4607D504F1470323602361B2
:104AA0000123636102B070BD01AB6A46FFF7CAFF24
:104AB000009905463046FFF7AFFB48B9B4F90C3012
:104AC0009A05EFD423F0030343F00203A381E3E745
:104AD0000D4BB362A389206043F08003A381009B48
:104AE0006361019B20615BB1B4F90E103046FBF7A6
:104AF00098FB28B1A38923F0030343F00103A381AA
:104B0000A3891D43A581CDE7F94800087047704788
:104B10009368013B002B10B4936007DA9469A342B9
:104B200001DB0A2902D110BCFFF744BD1368581CF1
:104B300010601970084610BC7047F8B506460F465D
:104B40001446D518AC4201D1002007E03A4614F8CB
:104B5000011B3046FFF7DCFF431CF3D1F8BD00001A
:104B60002DE9F04F0C469DB017461D46064618B17C
:104B700083690BB9FFF7DCFE7C4B9C4258D174680B
:104B8000A38918075ED52369002B5BD00023099306
:104B900020238DF8293030238DF82A3003954FF0EB
:104BA000010BB846454615F8013B0BB1252B54D1F6
:104BB000B8EB070A0BD053463A4621463046FFF77A
:104BC000BCFF013000F0C280099B5344099398F860
:104BD0000030002B00F0BA8000234FF0FF32CDE907
:104BE0000523049307938DF853301A93A8460522A2
:104BF00018F8011B5E4800F09BFA049B78BBD906AD
:104C000044BF20228DF853201A0744BF2B228DF871
:104C100053202A782A2A2AD0079AA84600200A2553
:104C2000414611F8013B303B092B69D960B324E0C0
:104C3000504B9C4201D1B468A2E74F4B9C4208BF45
:104C4000F4689DE721463046FFF714FD00289DD00B
:104C50004FF0FF301DB0BDE8F08FA846A2E7444AF0
:104C6000801A0BFA00F0184304904546BEE7039AF9
:104C7000111D12680391002A01DB079204E05242E1
:104C800043F002030792049398F800302E2B0ED1C4
:104C900098F801302A2B38D1039B1A1D1B68039208
:104CA000002BB8BF4FF0FF3308F102080593334DD6
:104CB00098F800100322284600F03AFA40B1402349
:104CC000401B03FA00F0049B034308F1010804931E
:104CD00098F800102A488DF82810062208F10107DC
:104CE00000F026FA002837D0264B1BBB039B073366
:104CF00023F0070308330393099B4B44099350E7C0
:104D000005FB0232012088468AE7002308F10108EA
:104D1000059319460A25404610F8012B303A092A16
:104D200003D9002BC3D00591C1E705FB0121012365
:104D30008046F0E703AB00932246134B04A93046AC
:104D4000AFF30080B0F1FF3F8146D5D1A3895B0668
:104D50003FF57EAF09987DE703AB009322460A4BEF
:104D600004A9304600F088F8ECE700BF7C5D00083D
:104D7000BC5D00089C5D00085C5D0008C25D000829
:104D8000C65D0008000000003B4B00082DE9F0471D
:104D900091461F468A680B69DDF820809342B8BFB0
:104DA0001346C9F8003091F8432006460C4612B16C
:104DB0000133C9F800302368990642BFD9F80030A2
:104DC0000233C9F80030256815F0060507D104F153
:104DD000190AE368D9F800209B1AAB4228DC94F842
:104DE00043302268003318BF012392062DD404F10A
:104DF000430239463046C047013020D02368E56879
:104E0000D9F8002003F00603042B08BFAD1AA368ED
:104E100022690CBF25EAE57500259342C4BF9B1AA1
:104E2000ED184FF000091A344D451AD1002008E062
:104E30000123524639463046C047013003D14FF076
:104E4000FF30BDE8F0870135C3E7E1185A1C302078
:104E500081F84300224494F8451082F8431002334D
:104E6000C5E70123224639463046C0470130E6D027
:104E700009F10109D8E700002DE9F04301F1430CE5
:104E80000C46097E85B06E291746064698460C9A50
:104E900000F0B38022D8632936D00AD8002900F068
:104EA000B980582900F0838004F1420584F842104B
:104EB00032E0642901D06929F6D12068136805061B
:104EC00003F104012AD51B681160002B03DA2D229F
:104ED0005B4284F843206F480A2239E0732900F0CE
:104EE0009D8008D86F2920D07029DDD1236843F038
:104EF0002003236003E0752917D07829D4D17823C3
:104F000084F84530644855E01368191D1B6811602A
:104F100004F1420584F8423001238CE01B681160E3
:104F200010F0400F18BF1BB2CFE713682568181D9B
:104F30001060280601D51B6802E06806FBD51B88B7
:104F400054486F2914BF0A220822002184F8431014
:104F50006568A560002DC0F29580216821F00401EC
:104F60002160002B3DD1002D40F08E806546082A3F
:104F70000BD12368DB0708D5236962689A42DEBF3C
:104F8000302305F8013C05F1FF35ACEB0503236147
:104F9000CDF800803B4603AA21463046FFF7F6FED7
:104FA00001304DD14FF0FF3005B0BDE8F0833948F6
:104FB00084F84510136821681D1D1B6815600A06DA
:104FC0000BD5CA0744BF41F0200121601BB92268FC
:104FD00022F0200222601022B7E74D0648BF9BB2A4
:104FE000EFE76546B3FBF2F102FB1133C35C05F852
:104FF000013D0B460029F5D1B9E7136825686169C1
:10500000181D106028061B6801D5196002E06A06A9
:10501000FBD51980002323616546B9E71368191D84
:1050200011601D6862680021284600F081F808B10F
:10503000401B606063682361002384F84330A7E766
:1050400023692A4639463046C0470130AAD0236832
:105050009B0713D4E068039B9842B8BF1846A3E7A8
:1050600001234A4639463046C04701309AD00135BF
:10507000E368039A9B1AAB42F2DCEBE7002504F1EC
:105080001909F5E7002BACD1037884F8423004F11C
:1050900042056CE7CD5D0008DE5D000810B50C46EA
:1050A000B1F90E10FBF7A6F80028ABBF636DA3891A
:1050B0001B1823F48053ACBF6365A38110BD2DE999
:1050C000F0411F468B89DB0505460C46164605D583
:1050D00002230022B1F90E10FBF799F8A389B4F965
:1050E0000E1023F48053A38132463B462846BDE888
:1050F000F041FBF783B810B50C46B1F90E10FBF781
:1051000086F8431CA38915BF606523F4805343F4DC
:105110008053A38118BFA38110BDB1F90E10FBF716
:1051200071B8000000000000000000000000000056
:1051300001F0FF01102A2BDB10F0070F08D010F848
:10514000013B013A8B422DD010F0070F42B3F6D14C
:10515000F0B441EA012141EA014122F007047FF065
:1051600000070023F0E80256083C85EA010586EABC
:10517000010685FA47F5A3FA87F586FA47F6A5FAF8
:1051800087F68EB9EED1F0BC01F0FF0102F0070204
:1051900032B110F8013B013A83EA010313B1F8D1AF
:1051A0000020704701387047002D06BF3546033890
:1051B000073815F0010F07D1013015F4807F02BFC9
:1051C000013015F4C03F0130F0BC0138704700BF1A
:1051D000425553204641554C542048414E444C457D
:1051E00052004445425547204D4F4E2048414E44C1
:1051F0004C45520044554D4D592048414E444C4574
:1052000052000A49535220737461636B206F7665B4
:1052100072666C6F77656400537461636B20706FA6
:10522000696E74657220636F727275707465642C38
:1052300020726573657420746F20746F70206F66C0
:1052400020737461636B000A436F6E746578742019
:105250006265666F726520686172646661756C7400
:105260003A0020202072303A2030782530386C788F
:105270000A20202072313A2030782530386C780AA4
:1052800020202072323A2030782530386C780A207D
:10529000202072333A2030782530386C780A00208C
:1052A000207231323A2030782530386C780A20204C
:1052B000206C723A2030782530386C780A20202013
:1052C00070633A2030782530386C780A202070736B
:1052D000723A2030782530386C780A0A00465352EA
:1052E0002F4641523A0020434653523A2030782507
:1052F00030386C780A0020484653523A20307825DE
:1053000030386C780A0020444653523A20307825D1
:1053100030386C780A0020414653523A20307825C4
:1053200030386C780A0020424641523A20307825C5
:1053300030386C780A004D4D4641523A203078257D
:1053400030386C780A004D697363004558435F52EA
:1053500045543A2030782530386C780A004174740E
:10536000656D7074696E6720746F207265636F6E0F
:1053700073747275637420737461746520666F72E0
:1053800020646562756767696E672E2E2E00496E10
:10539000204744423A0A2020736574202470633DFC
:1053A0003078256C780A20206672616D6520300A9D
:1053B000202062740A000A49535220737461636B9F
:1053C000206F766572666C6F776564206279206104
:1053D00074206C6561737420256420627974657330
:1053E0002E0A0048415244204641554C5420484121
:1053F0004E444C4552004D454D204D414E41474590
:105400002048414E444C4552004E4D492048414EA3
:10541000444C4552005553414745204641554C5454
:105420002048414E444C45520000000000480040D6
:10543000000004000508004804080048070700278A
:105440000050004000001000020C00480C0800480A
:10545000080800356370752F73746D33325F636FA6
:105460006D6D6F6E2F7065726970682F75617274E3
:105470002E63004641494C45442041535345525404
:10548000494F4E2E002A2A2A2052494F54206B653C
:10549000726E656C2070616E69633A0A25730A0A40
:1054A000002A2A2A2068616C7465642E0A0A006D3D
:1054B00061696E28293A2054686973206973205203
:1054C000494F5421202856657273696F6E3A2055F2
:1054D0004E4B4E4F574E20286275696C646469725A
:1054E0003A202F686F6D652F76616772616E742F39
:1054F00052494F5429290A0069646C65006D61693D
:105500006E00636F72652F7468726561642E63004C
:1055100025733A2575203D3E20005F5173746174F8
:1055200065006E616D650009706964207C20252D21
:105530003231737C20252D397351207C20707269A3
:10554000207C20737461636B202028207573656450
:1055500029207C2062617365206164647220207C54
:105560002063757272656E7420202020200A000965
:1055700020202D207C206973725F737461636B201F
:1055800020202020202020202020207C202D2020B2
:105590002020202020202D207C2020202D207C2039
:1055A000253669202825356929207C202531307051
:1055B000207C20253130700A000925336869207C61
:1055C00020252D323073207C20252D387320252E68
:1055D0003173207C20253369207C202536692028E2
:1055E00025356929207C2025313070207C2025310B
:1055F0003070200A007C0053554D0009253573207A
:10560000252D3231737C25313373253673202536B1
:10561000692028253569290A00000000485600083D
:10562000505600085956000862560008685600088F
:105630007056000879560008825600088B560008FC
:10564000935600089B56000873746F707065640071
:10565000736C656570696E6700626C206D7574654A
:105660007800626C20727800626C2073656E640052
:10567000626C207265706C7900626C20616E796674
:105680006C00626C20616C6C666C00626C206D62F8
:105690006F780072756E6E696E670070656E646912
:1056A0006E6700020200000000000040FFFFFFFFE5
:1056B00001000000001C0000000C0040FFFFFFFF85
:1056C000080000000032000053656E64206D6F64B6
:1056D000653A2044370053656E64206D6F64653A07
:1056E000204C6F5261004D6F74696F6E2064657459
:1056F00065637465640053776974636820746F2010
:10570000616374697665206D6F6465005B4641492D
:105710004C45445D20696E69742042544E3121002D
:10572000496E6974206E6F7420636F6D706C657460
:10573000656400496E74657272757074206E6F7462
:1057400020656E61626C6564005B4641494C45446E
:105750005D20696E6974206C736D333033616772DC
:1057600021000000000000001900000000000048B7
:1057700020101E0001000048108000005B475053BD
:105780005D202D20436F6F726473202566204E2CA0
:1057900020256620450A005B4750535D202D204E92
:1057A0006F20666978202D206E6F20636F6F7264A2
:1057B000202D2D2D202566204E2C20256620450AE3
:1057C0000073656E642074687265616400536C6573
:1057D0006570696E67004C6F5261206D736700449D
:1057E00037206D7367004572726F723A20454F50D3
:1057F0004E4F5453555050205B25645D0A0045724E
:10580000726F723A2045494E56414C205B25645DCB
:105810000A004572726F723A2045414741494E2055
:105820005B25645D0A004572726F723A20454E58DE
:10583000494F205B25645D0A004572726F723A2001
:1058400045494F205B25645D0A004572726F723ACC
:10585000204554494D45444F5554205B25645D0A0D
:10586000004572726F723A20556E6B6E6F776E20C4
:105870006572726F72205B25645D0A005B4750534E
:105880005D202D2053656E74656E63653D25730A3A
:10589000002D310099190008A9190008C519000840
:1058A000436F6D6D616E6420636F6D706C657465C0
:1058B00064207375636365737366756C6C790A0035
:1058C000436F6D6D616E6420636F6D706C657465A0
:1058D000642077697468206572726F720A00436F82
:1058E0006D6D616E642074696D6564206F75740AF6
:1058F000006D6F64656D20636F6D6D616E64206314
:105900006F6D706C6574656420287375636365736F
:1059100073203D202569290A006D6F64656D207232
:10592000657475726E2066696C65206461746120AF
:1059300066696C65202569206F666673657420252D
:105940006C692073697A6520256C692062756666CA
:1059500065722025700A006D6F64656D207772692D
:1059600074652066696C6520646174612066696C89
:1059700065202569206F666673657420256C692033
:1059800073697A6520256C69206275666665722088
:1059900025700A00DC5900080708004801000000D3
:1059A000E75900080704004801000000F159000809
:1059B0000E04004801000000FA5900080D080048D4
:1059C000080000000A5A00080018004808000000FB
:1059D0001A5A000801180048080000004C443128F9
:1059E000677265656E29004C443228626C756529C2
:1059F000004C443328726564290042312855736590
:105A00007220627574746F6E290042322855736576
:105A10007220627574746F6E290042332855736565
:105A20007220627574746F6E29000D0A00745463DD
:105A300066646664666644666400524D4300474788
:105A4000410047534100474C4C00475354004753D3
:105A50005600565447005A444100740070726576EF
:105A600020636F6D6D616E64207374696C6C20616E
:105A700063746976650A002121212074696D656F60
:105A800075742C20756E6C6F636B696E670A006F9E
:105A90007373375F6D6F64656D5F727800212121CC
:105AA0002077616B657570207265717565737465BB
:105AB00064206279206D6F64656D0A0072656365AC
:105AC00069766564207265737020776974682075E3
:105AD0006E6578706563746564207461675F69647E
