:020000040800F2
:100000000002002015050008B10400086D04000876
:10001000C1040008D1040008E10400080000000049
:100020000000000000000000000000005104000873
:10003000F104000800000000350400080105000874
:10004000AD010008AD010008AD010008AD010008D8
:10005000AD010008AD010008A50A0008A50A0008C6
:10006000A50A0008A50A0008A50A0008AD010008B5
:10007000AD010008AD010008AD010008AD010008A8
:10008000AD010008AD010008AD010008AD01000898
:10009000AD010008AD010008AD010008A50A000887
:1000A000AD010008AD010008AD010008AD01000878
:1000B00061140008AD010008AD010008AD010008A1
:1000C000AD010008AD010008AD010008AD01000858
:1000D000AD010008AD010008AD010008D10800081D
:1000E000A50A0008AD0100080000000000000000A3
:1000F0000000000000000000000000000000000000
:1001000000000000AD01000867140008AD01000800
:10011000AD010008D7080008AD010008AD010008D6
:10012000AD010008AD010008AD010008AD010008F7
:10013000AD010008AD010008AD010008AD010008E7
:10014000AD010008AD010008AD010008AD010008D7
:10015000AD010008AD010008AD010008AD010008C7
:10016000AD010008AD010008AD010008AD010008B7
:10017000AD010008AD010008AD010008000000005D
:10018000AD010008AD010008AD010008AD01000897
:10019000AD010008AD010008AD010008AD01000887
:1001A000AD010008AD010008AD01000800F0A8B9DC
:1001B00000F0B8BA7047000070B50C46064600F073
:1001C000A1FA094B094A1D682C44944202D8084AF6
:1001D000944207D20C2333604FF0FF3500F09AFAB7
:1001E000284670BD1C60F9E70002002000000520D1
:1001F000841500201946104600F0A0BA1946104692
:1002000000F0A4BA132303604FF0FF3070471323AC
:1002100003604FF0FF307047132303604FF0FF304F
:10022000704702294FF0000303608CBF00200120BB
:10023000704700001349144B10B50C68002084422D
:1002400094FAA4F1B1FA81F1104C186008BF4FF094
:10025000FF310F4B54F821101A680968A1F1080406
:1002600094420ED022B11079092804BF0A201071DF
:10027000092201F8042C074A31F9021C11801C6084
:10028000012010BD24040020300400203804002088
:100290002C04002028040020082930B503791AD93D
:1002A000082B14D842791A4B53F8225000F1080455
:1002B0007DB12D68856053F822502C6043F82240B0
:1002C000144A44790123A340146823431360017145
:1002D00030BD8460F2E7082BF9D945790C4B53F80F
:1002E00025203AB11468A2420BBF0022246843F8CB
:1002F00025201460427953F82230002BE7D1054CB9
:10030000012303FA02F2236823EA02032360DEE7F3
:10031000380400202404002008B5094B1B681A7912
:10032000082A02D95B79834205D900F0F6F918B1A1
:10033000044B01221A6008BDBDE8084000F072B805
:100340002C0400203004002008B500F0DBF9094B34
:10035000094A1B88094D1BB2002442F82340084A71
:10036000286813682146013B1360FFF795FF2C6056
:1003700000F054F828040020780400202C04002009
:1003800034040020134423F0030310B54FF07732F8
:100390001C1F43F8042C620742BF4FF0883243F819
:1003A000082CA3F108044FF0807344E902030D4BBD
:1003B00044F80C3C0022032344E905322246012381
:1003C000022044E9073042F8201D0B2342F8043D87
:1003D000013B032BFAD120466FF0020340F8443D65
:1003E00010BD00BF490300080548064A064B0168D6
:1003F000914201D1984201D3181A70470430F6E7B0
:1004000000000020FEE7FEE700020020EFF3088076
:1004100070470000004870470000002000F076F9A7
:1004200001DFFEE7024A536843F080535360704790
:1004300000ED00E0EFF3098020E9F00F40F804ED53
:1004400002490968086000F003F800002C0400204D
:10045000FFF7F0FE04480068016801C9B1E8F00F39
:1004600081F30988004700002C0400200D4B0E4A40
:100470000E496846904203D8984201D9002102E013
:1004800009468D46012104207246024202D1EFF353
:10049000088001E0EFF309802DE9F00F6B4600F0D2
:1004A0006FF800BF58010020000005200002002066
:1004B00008B50249042000F00FFD00BF2D4E0008D2
:1004C00008B50249062000F007FD00BF1A4E0008DB
:1004D00008B50249072000F0FFFC00BFF44B0008FC
:1004E00008B50249082000F0F7FC00BF394E0008AB
:1004F00008B50249092000F0EFFC00BF064C0008D7
:1005000008B502490A2000F0E7FC00BF184C0008BB
:100510007047704708B5FFF7FBFF6A46114B124959
:10052000934213D3114A124B12498B4211D3124BEF
:10053000124A0021934211D3FFF7EBFF00F0A8FC11
:1005400003F0CAFABDE8084000F000BD43F8041B00
:10055000E6E752F8040F43F8040BE6E743F8041B00
:10056000E8E700BF00000020FEE7FEE7BC580008F7
:100570000002002024040020240400208415002010
:100580002DE9F04F9A46494B8FB093469A6B0392F0
:100590005A6B04929F6ADA6A05921A6BDB6B0793B7
:1005A000434B06921A68434B9A420446884602D04F
:1005B000414803F061FBB8F1000F4ED03F4803F013
:1005C0005BFB00252E463E4803F056FB39463D486E
:1005D00003F0DEFA05993C4803F0DAFA06993B4845
:1005E00003F0D6FA07993A4803F0D2FA3A0403D551
:1005F0000399384803F0CCFA3B0603D504993648F2
:1006000003F0C6FA354803F037FB5946344803F087
:10061000BFFAB8F1000F1BD1324803F02DFB314671
:10062000314803F0B5FA6946304BC91A03D549423F
:100630002F4803F0ADFA20468268C36801698C46F2
:1006400041698E46AD46514691E8F00F4168006819
:1006500001BE2849052000F03FFCD4E90230D4E96E
:100660000669D4E9001208902069099060690A902F
:1006700019F4007F20480B91CDE90C230CBF04F145
:10068000200504F1240503F0F7FA089B00930B9969
:100690001A48DDE90C2303F07BFACDF800903346CD
:1006A000DDE90912164803F073FA8CE700ED00E06B
:1006B00000000020FEE7FEE7264C00083C4C000846
:1006C000014D00080A4D00081A4D00082A4D000887
:1006D0003A4D00084A4D00085A4D00086A4D00087E
:1006E0006F4D0008814D0008B24D000858010020F0
:1006F000DA4D0008074E00086B4C0008864C0008D5
:10070000C34C0008EFF3108072B6704762B6EFF387
:100710001080704780F310887047EFF30580C0B2F7
:1007200070470000034B044A4FF4E131002000F011
:1007300071B800BF04020020111100080A460146EA
:10074000014800F0F0BC00BF0402002010B50A46CA
:100750000C460146002000F029F8204610BD00009C
:1007600038B514230E4A4343D458E569AA0608D580
:100770000C4BA18C03EBC002C9B253F83030506867
:1007800098472B0742BF236A43F008032362064BB6
:100790001B681BB1BDE83840FFF744BE38BD00BF41
:1007A000504E00083C05002030040020012810B500
:1007B0000AD8142358430A4B1B580A44914207D1C4
:1007C000DA695206FCD510BD9321064800F080FC82
:1007D00011F8010BDC692406FCD580B21885EDE721
:1007E000504E0008784E0008012808B503D9C621EC
:1007F000064800F06DFC064B142202FB0030BDE8F9
:1008000008404168807C00F03FBD00BF784E000882
:10081000504E000801282DE9F84304460E461746BD
:1008200003D93521264800F053FCDFF8A080254A83
:10083000142505FB008542F83070D5F80C9002EBCA
:10084000C00201215360484600F048F8484600F0D5
:1008500011F9697C484600F0DBF84FB1D5F80890F3
:100860000021484600F03AF8297C484600F0D0F8CC
:100870002046FFF7B9FF14235C4308EB040558F842
:100880000440A87C002323606360A36000F0E0FCC8
:10089000B0FBF6F080B2E0607FB1EB7C01215AB290
:1008A00003F01F0301FA03F35209074941F822300C
:1008B0002D2323600020BDE8F8830923F9E700BF5A
:1008C000784E00083C05002000E100E0504E000892
:1008D0000020FFF745BF0120FFF742BFF8B50D46E6
:1008E0000127C0F3832120F00F0400F00F0607FA60
:1008F00001F1032000F0C8FC06FA07FC032322687C
:1009000003FA0CF3D84302402260226805F0030189
:1009100001FA0CF111432160E2681040E060E168E7
:10092000C5F3810202FA0CF20A43E2606268B74042
:1009300022EA070767606268C5F30015B5401543F2
:100940006560A2681343A3600020F8BD2DE9F04163
:1009500000F00F0415462B4A42F8343002EBC40273
:10096000069B5360884601210646C0F3832708464C
:1009700000F08AFC41463046FFF7B0FF042C224BC2
:1009800037DCA11D01228A401A60204B01229868A1
:1009900002FA04F1C94308409860D3F808C005EA98
:1009A0000200A04040EA0C009860D8680140D9607D
:1009B000D540D968A54004F00C0404F1804404F546
:1009C00080340D43DD6006F00301A06889000F2527
:1009D0008D4020EA0500A060A0688F40074302FA1E
:1009E00006F6A7605E611A6816431E600020BDE827
:1009F000F081092C02DC4FF40002C5E74FF480724D
:100A00005A60C2E74C05002000E100E0000401400C
:100A100020F00F03F0B500F00F041D6867000326F7
:100A2000BE4025EA06051D601D680222072C02FA59
:100A300007F242EA050294BF002401241A6003EB86
:100A4000840300F007001A6A80000F24844022EA21
:100A500004021A621A6A01FA00F010431862F0BD2B
:100A600020F00F0300F00F001A69012303FA00F0D1
:100A70001040704720F00F02012300F00F0003FA2E
:100A800000F09061704720F00F0200F00F0010306E
:100A9000012303FA00F09061704709B1FFF7EABF44
:100AA000FFF7F1BF2DE9F0410F4D104F6E692A6835
:100AB000002416404FF0010808FA04F3334206D030
:100AC0006B6107EBC40357F8342058689047013432
:100AD000102CF1D1064B1B681BB1BDE8F041FFF7AC
:100AE000A1BCBDE8F08100BF000401404C0500201E
:100AF00030040020002000F061BC0000034B1968A6
:100B0000024611B9084600F039BC7047CC050020F8
:100B100010B5094A136843B19C6881688C4207D3B9
:100B200003D15C6841688C4202D90360106010BD3B
:100B30001A461B68EFE700BFD4050020F0B51E4E33
:100B40001E4D33681E4C013333601E4B00201A6863
:100B500018602B68226019460746B44621B1DCF8BC
:100B600000E08E68764513D900B129607FB100217D
:100B70003960FAB183B15168586881428CBF194617
:100B80001146084612681B6842B903602160F0BD37
:100B90000F4601200968E1E71146F2E70BB9026050
:100BA000F4E755685E68B5428CBF1D461546056082
:100BB0002846E7E72360EAE7D0050020D4050020B7
:100BC000DC050020D80500202DE9F0412B4F2C4CEE
:100BD00001233B60236893B9FFF7B0FFFFF78AFF5B
:100BE0000130FBD000254FF0000823685BB9FFF708
:100BF00081FF854222D9FFF7A1FF0025F5E7FFF726
:100C000079FF0546EFE75E68FFF774FF854204D879
:100C1000864202D9361A132EE9D823685E68FFF798
:100C200069FF854201D88642F7D823681A68226096
:100C3000C3E90188D3E903209047D6E723686BB165
:100C40005E68FFF757FF143E14308642CDD3002371
:100C50003B603046BDE8F041FFF750BFFFF74AFF69
:100C600085420646C7D810F1150F04D9FFF742FF99
:100C70008642FBD9BFE74FF0FF36E8E7CC050020FE
:100C8000DC050020144A1368834210D11B681360EE
:100C90001BB158681438FFF731BF4FF0FF30FAE747
:100CA0009842196801D1116070471A460B46002B13
:100CB000F6D10A4A13681BB9094A136833B9704759
:100CC00098421968EFD01A460B46F4E79842196823
:100CD000E9D01A460B46F1E7DC050020D8050020D4
:100CE000D405002008B500231846054A054900F040
:100CF00077FB4FF0FF30BDE80840FFF7FFBE00BFB5
:100D0000C90B000840420F00F8B504460D46FFF736
:100D1000F1FE002385420746236011D3A5F11E038F
:100D200083420DD21E35FFF7E5FE8542FBD3FFF768
:100D3000E1FE8542FBD8D4E9033098470020F8BD96
:100D4000FFF7E0FC636806460BB9A36813B12046C1
:100D5000FFF798FF194B65601A681B68BD4238BFE2
:100D60000132A260A2689A4206D92046FFF7D0FE5F
:100D70003046FFF7CFFCE1E7BD4210D9104B1A68AF
:100D8000194612B15068854215D222601C600B686A
:100D90009C42EDD1A5F11400FFF7B0FEE8E7094A47
:100DA000136813B159688D4202D223601460DFE7E3
:100DB0001A461B68F5E713461268E2E7D0050020E3
:100DC000DC050020D805002038B50446FFF79AFC62
:100DD000636805460BB9A36813B12046FFF752FFBD
:100DE0002846BDE83840FFF795BCC36870B5044697
:100DF0000D46C3B1FFF7E8FF1D2D0CD8FFF77AFEB3
:100E00000646FFF777FE801B8542FAD8D4E9033007
:100E1000BDE870401847FFF76DFE29182046BDE871
:100E20007040FFF771BF70BD2DE9F04704460E46D4
:100E300015461AB9BDE8F047FFF7D7BFFFF762FCC8
:100E4000636807460BB9A36813B12046FFF71AFF82
:100E5000DFF830A0FFF74EFEDAF800808146FFF79A
:100E600049FE8145F6D83618454428BF013520464D
:100E70006660A560FFF74CFE3846BDE8F047FFF717
:100E800049BC00BFD005002008B5FFF73BFCFEE7DA
:100E900038B500F0CFF90B4C0B4D0C480121FFF792
:100EA0001DFD4FF48043A36101212846FFF716FD85
:100EB0000121A9610648FFF711FD4FF40043A3612A
:100EC00038BD00BF000C0048000400480E0C00486C
:100ED0000F0C00487047000008B50F4B1A680C460D
:100EE0009AB9012203281A6003D171460B4802F017
:100EF0004FFE21460A4802F04BFE00F027F9094850
:100F000002F046FE084802F043FEFFF7FBFBFFF746
:100F1000E1FFFFF7B9FF00BFE0050020CA5200085B
:100F2000A94E0008D14E0008C54E000808B500F0D3
:100F300061FC034802F02CFE00F0EEFA002008BD30
:100F4000D34E000808B500F0D1F8FCE71FB5FFF755
:100F5000D9FB0E4B0E481B68029300240D4B0093E7
:100F60000F220C234FF48071019400F03BF80A4BE0
:100F70000A481B68CDE90143094B009307220C2363
:100F80004FF4C06100F02EF8FFF748FA1802002075
:100F9000E4050020450F00081C020020E4060020A4
:100FA0002D0F000838B50B79082B03D9712108489B
:100FB00000F08EF84C7901F10802036813B98B60D8
:100FC000026038BD13F8035CAC42F8D31846F4E76E
:100FD000264F0008031F53F8042F9A42FBD0181A1B
:100FE000704700000F2A2DE9F74F05468B469146C2
:100FF0009A4633D810F003031BBFC3F10403ED1866
:101000000B46CB1A303B23F003031AF0080F05EB15
:10101000030419D12D6003E012600432A242FBD315
:101020000193FFF76FFB2849019B8046012251F88D
:10103000226017B2AEB10132212AF8D14046FFF743
:1010400069FB6FF08A073AE02A46E7E7012120466C
:10105000FFF722F94046FFF75DFB30E06FF0150720
:101060002DE041F822402A46E780DDE90C01FFF738
:1010700089F90E9B154AA3624FF0FF33C4E9073686
:101080001368206001331AF0010F6562C4F82CB0B8
:1010900084F805902671C4E90266C4E90466A66175
:1010A0001360D3D10A212046FFF7F6F81AF0040F97
:1010B000D0D14046FFF72EFB4846FFF72DF93846C2
:1010C00003B0BDE8F08F00BF780400203404002096
:1010D0000A4608B50146034802F05AFD02490320BA
:1010E000FFF7FAFE344F0008974E0008074A08B58C
:1010F000136923F004031361FFF704FBBFF34F8F61
:1011000030BFBDE80840FFF705BB00BF00ED00E0C1
:1011100038B5054600F0C6F9044605F1100000F0A8
:10112000DBFB204638BDF8B504460D46164600F1F7
:10113000100732462946204600F0A1F900B1F8BD5B
:101140000121384600F098FBF3E700002DE9F04F4D
:101150002D4B2E4A1B882E492E48DFF8CC90DFF805
:10116000CCA0DFF8CCB08BB00126ADF8243002F073
:101170000FFDFFF739F90546FFF74CF90446FFF775
:1011800045F92A46009023464FF40071224802F0A8
:10119000FFFC25EAE5754FF4007759F826401CB3AB
:1011A00094F80480E26A5AF82830606A079317447A
:1011B0000692FFF70FFF069AB4F90610079B101A64
:1011C00022680592626ACDE90302E26A02926279BC
:1011D000019209AAB8F1080FC8BF01320092054474
:1011E000A26A584602F0D4FC0136212ED5D10B4B11
:1011F0000093CDE901750A4A0A48194602F0C8FC75
:101200000BB0BDE8F08F00BF3E4F0008404F000814
:10121000464F00084B4F0008934F00081950000834
:101220001B5000081F5000087804002040500008A0
:10123000DD4F000808B500F075FB4FF0805100202D
:1012400000F022F800F094FBBDE8084000F03DB942
:10125000034A044B00280CBF10461846704700BFD5
:10126000002D3101005A6202044A054B002818BFC4
:101270001346044A105C5843704700BF005A62028C
:10128000002D3101C7500008042808D8DFE800F01D
:10129000030A0F1419000D4A936D19439165BFF3AA
:1012A0004F8F7047094A136E19431166F7E7074AD3
:1012B000936C19439164F2E7044AD36C1943D164E7
:1012C000EDE7024A136D19431165E8E7001002408B
:1012D000042821D8DFE800F003090F151B000F4A8E
:1012E000936D23EA0101916570470C4A136E23EA5E
:1012F000010111667047094A936C23EA0101916468
:101300007047064AD36C23EA0101D1647047034A4F
:10131000136D23EA01011165704700BF0010024000
:101320002DE9F843124ADFF8508003010746D558EB
:101330002E69EB6800241E4008EBC0090223A3407D
:10134000334209D0EA68D9F8040022EA0303EB60CB
:10135000214658F8373098470134042CEED1054B1C
:101360001B681BB1BDE8F843FFF75CB8BDE8F88324
:10137000CC50000830040020E40C0020032910B5F4
:1013800016DC0D4B00011C18185863681A4001F157
:101390000C0300EB83035A600269022303FA01F194
:1013A00022EA01020261C3681943C160002010BD36
:1013B0004FF0FF30FBE700BFCC5000080001024BAC
:1013C0001B58586A704700BFCC500008034B0001FF
:1013D0001A58136843F0010313607047CC5000089B
:1013E00001282DE9F84305460F4630D8194E1A4911
:1013F000040106EB040841F8302098F80C9001EB4A
:10140000C00148464B60D8F80810FFF73DFF365939
:10141000D8F804300024346048467460F362FFF763
:1014200023FF98F80D20B0FBF7F00123013851B2EB
:1014300002F01F02B062490973619340074A2846CF
:1014400042F82130FFF7C2FF2046BDE8F8834FF095
:10145000FF30FAE7CC500008E40C002000E100E087
:101460000020FFF75DBF0120FFF75ABF82680168C7
:10147000531C83604368013B1340C85C7047F8B558
:1014800005460F46164614461CB1AA68EB689A42F8
:1014900001D1301BF8BD2846FFF7E8FF013C07F8F3
:1014A000010BF1E7C268436830B58468121B9A42A9
:1014B00008D0C2680468013B1340551CC560E15464
:1014C000002030BD4FF0FF30FBE7002001F014BCDE
:1014D00080F00101014802F05BBB00BF1052000820
:1014E00007B5009313460A460146034802F050FB35
:1014F00003B05DF804FB00BF4152000807B500933C
:1015000013460A460146034802F042FB03B05DF869
:1015100004FB00BF885200082DE9F04F544C554899
:10152000DFF884A18BB002F0A7FB206801F0E4FB98
:10153000514A07CA07AB83E807001946012000F0AB
:1015400035FF0020FFF73AFF002502900027E9B29F
:101550004A4802F01DFB0020FFF730FF03A90646B2
:10156000206800F015F9DDF80C803946404602F09D
:1015700081FA00286BD0DDF810B03946584602F0E9
:1015800079FA002863D0404601F05AFF8046584659
:10159000894601F055FF4246CDE900014B463848E7
:1015A00002F0F6FA0398DDF81080514602F0CEF80A
:1015B00001F046FF01F092FD01F09AFF030E8DF855
:1015C0001430030C8DF815308DF81700030A5146BE
:1015D00040468DF8163002F0B9F801F031FF01F005
:1015E0007DFD01F085FF030E8DF81830030C8DF89A
:1015F0001930030A8DF81A30224B01930223082276
:1016000000218DF81B000093402005AB00F040FF47
:1016100080460020FFF7D2FE4FF47A71801BB0FBAA
:10162000F1F1194802F0B4FAB8F1020F16D11748D7
:1016300002F0AEFA164902A801F0E8FC0020FFF71C
:10164000BDFE0146134802F0A3FA01357FE71248B8
:10165000DFF8588002F09CFA1048A6E7B8F1030FB3
:1016600001D10F48E4E7B8F1010FE3D10D48DFE7FE
:10167000F40C0020F8500008EC5000080951000854
:101680002F51000820020020655100088B510008EE
:10169000002D3101F75100084A51000895B54C4220
:1016A000B4510008DB5100080024744979578D407B
:1016B00070B54468D4B100686423634390FBF3F5CC
:1016C00003FB150001F0EEFF06463C20604301F0ED
:1016D000E9FF0146304602F0EDF80446284601F0E5
:1016E000E1FF0146204601F029FF70BD0048FCE7FC
:1016F0000000C07F10F15F0F014603D110485F2149
:1017000002F046BA10F1160F02D116210D48F7E784
:1017100010F10B0F02D10B210B48F1E7821D02D112
:1017200006210A48ECE7431D02D105210848E7E7F6
:1017300010F1740F06BF742106480748E0E700BFA8
:10174000CE520008E6520008FA5200080E53000874
:1017500021530008325300084953000873B502AD05
:101760000A2325F8043D0E46294602F09FFA044656
:1017700018B9064C204602B070BD0021204600F08A
:10178000E1FBB042F6D029460020EEE7795300088D
:10179000F0B5D5B006460D4601F0FAFA002427460A
:1017A00014AB0097234421221021304601F08CFC19
:1017B00008B1FFF79FFF0134FF2CF1D1304601F053
:1017C000FDFA012114A8FFF7C9FF044601460848A5
:1017D00002F0DEF9214602A800F018FC07A8FFF786
:1017E00067FF286009A8FFF763FF686055B0F0BD88
:1017F0006453000808B5FFF775FABDE8084000F02B
:1018000001B800002DE9F341174C184D184FDFF8CF
:10181000648004F14006297A2B68656011F0FB0FA3
:10182000A36001D008291BD1E7606868FFF756F86C
:101830006B7A13F0060F08D003F00403ADF8003004
:10184000E36869465B68284698472046103401F0F3
:101850008BF9B44205F10C05DDD102B0BDE8F08191
:10186000C4F80C80E1E700BFF80C00207C530008AE
:10187000D4560008E056000870B504460D46FEF741
:1018800041FF236806463BB94FF0FF332360FEF764
:1018900041FF0125284670BDC5B10E4B1D680221D0
:1018A0002846FEF7F9FC236801330AD105F1080345
:1018B00023600023AB603046FEF72CFFFEF7B2FD3D
:1018C000E7E729462046FFF76DFBF4E7FEF722FF26
:1018D000E0E700BF2C04002070B50446FEF712FFBD
:1018E000256806461DB9BDE87040FEF713BF6B1CA6
:1018F00002D100232360F6E728460A2150F8083970
:101900002360FEF7C9FC236813B94FF0FF3323604F
:1019100015F8034C3046FEF7FDFE2046BDE870404A
:10192000FEF7FABC0F4BD3F8882042F4700210B5D2
:10193000C3F888200C4A9A600C4C102283F82220AD
:101940000021DA77601801315B2980F80023F9D192
:101950001A6942F010021A615A6942F400725A611F
:1019600010BD00BF00ED00E00000000800E100E055
:1019700038B5FEF7C7FE1C4D0023AB61044601F0ED
:1019800009F942F20153AB602B469A6802F00C024F
:10199000042AFAD1154A40F2047111604FF48072A2
:1019A0001A60B9221A601A689107FCD54FF040629C
:1019B000C3F888200E4ADA601A6842F080721A6012
:1019C0001A689201FCD59A6842F003029A609A68FC
:1019D00002F00C020C2AFAD101F0E8F82046BDE82A
:1019E0003840FEF797BE00BF0010024000200240C2
:1019F0005114000110B5044602F096F820444078D6
:101A000010F0970005D02C2C04D0B4F12A0018BF98
:101A1000012010BD0020FCE7A0F13003DAB2092A52
:101A200001D818467047A0F14103052B01D837387B
:101A30007047A0F16103052B94BF57384FF0FF307A
:101A40007047F8B505460C4602F028F9532801D92D
:101A50000020F8BD2B78242BFAD1013500262F4623
:101A600015F8013B9BB93B782A2B1DD17878FFF7FD
:101A7000D3FF01460130EBD0B878FFF7CDFF421C11
:101A8000E6D040EA0110831B58425841E1E72A2B77
:101A9000E9D002F049F815F8013C1844427812F0F8
:101AA000970FE0D05E40DAE784F00100D1E7000054
:101AB0000EB42DE9F04F88B011AB064653F8047B05
:101AC00006937B1E009304464FF00009009A12F81B
:101AD000013F00920BB901257CE03B2B00F07081A7
:101AE000002C40F0B181B9F1000F40F08D81B64873
:101AF00002F04EF800256DE02378D4E12078FFF75E
:101B000079FF98B123784E2B12D003D8452B0FD0F4
:101B1000AE48EDE7532B01D0572BF9D14FF0FF33EF
:101B2000069A111D126806911360C1E10023F7E7C0
:101B30000123F5E79BF800302B2B08D1BAF1000FF9
:101B40000DD1B8F1FF3F0AD14FF0010ACBE12D2BA7
:101B500005D1BAF1000F02D1B8F1FF3F30D001F04A
:101B6000E3FF9BF80030184441784A0716D5B8F1D6
:101B7000FF3FA3F1300308BF4FF000086FF00041B2
:101B8000C91A91FBF7F1414504DA002C40F0C881F5
:101B90008F48ADE707FB08387C43A4E12E2B02D128
:101BA00084B18C48A4E7202BFBD1BAF1000F05D1FA
:101BB000B8F1FF3F02D1002C00F09581864897E7ED
:101BC000C24690E101248EE1B8F1FF3F08D183487D
:101BD00001F0DEFF284608B0BDE8F04F03B07047C3
:101BE000002C08BF01240AFB08F8069B1A1D1B687D
:101BF0000692C3E900845BE120460A2207A902F0AD
:101C000025F9079B04461878FFF7F4FE08B17448DD
:101C10006EE7069B1A1D1B6806921C6048E1069B36
:101C20001A1D06921D682CB1013C14F8010FFFF734
:101C3000E1FE10B900232B703AE1237805F8013B4F
:101C4000F3E7A04604F1050A18F8010FFFF7D2FEEA
:101C5000054608B96348BBE7C245F5D1069B1D6838
:101C60001A1D0692611C0522284601F07DFF002303
:101C70006B711DE1D34540F0FF8023788DF8103063
:101C800063788DF81130A3788DF81430E3788DF8EF
:101C90001530002523798DF81C300A2263798DF8E0
:101CA0001D30294604A88DF812508DF816508DF875
:101CB0001E5002F0CBF80A222946044605A802F07D
:101CC000C5F80A228246294607A802F0BFF8C8E9EB
:101CD000004AC8F80800EBE0069B1A1D0692D3F8EC
:101CE00000804CB94FF0FF352A46AA46AB46C8E9FA
:101CF00000BAC8E90225DBE02078FFF77BFE002868
:101D0000F0D004F1FF3A04F1050B01F00DFF1AF8D1
:101D1000013F1844457815F0040501D1324857E7D2
:101D2000D345F2D123788DF8103063788DF81130D7
:101D3000A3788DF81430E3788DF8153000252379D9
:101D40008DF81C300A2263798DF81D30294604A8CD
:101D50008DF812508DF816508DF81E5002F076F85E
:101D60000A222946834605A802F070F80A22824614
:101D7000294607A802F06AF8A3792E2B0246B6D1AD
:101D800004F10D01A31D194C0F460A21CDE90231C2
:101D9000019201F0C9FE029B019A13F801CF604441
:101DA000407810F0040F02D0BB42039901D1654383
:101DB0009DE7ACF1300C01FB05C5B4FBF1F4E5E7A0
:101DC0004FF0010982E600BFE7530008FB5300080B
:101DD0000F54000837540008235400084B540008DF
:101DE0005F5400089B540008C354000840420F0091
:101DF00004466BE6069B1A1DD3F8008006924FF04E
:101E0000FF308246044662E7642B3FF48FAE0CD865
:101E1000542B3FF461AF03D8442BEBD0454867E621
:101E20005F2B45D0632B3DD0F8E7692B3FF4F1AE33
:101E300003D8662BF2D1A046D7E6732B3FF4EFAE62
:101E4000742BEBD13C4853E6642B3FF457AE3DD89E
:101E5000542B3FF441AF1BD8442BDFD1069B207895
:101E6000D3F800801A1D0692FFF7C4FD0028C6D0E3
:101E700004F1FF3A04F1050B01F056FE1AF8013F98
:101E80001844457815F004057FF4F4AE2B489FE61E
:101E90005F2B0DD0632BC1D12078FFF7ABFD00285D
:101EA0007FF42AAE0023069A111D12680691137062
:101EB00035462E4601353078FFF79CFD0028F8D1D5
:101EC00033782C2B94D12E462C46FFE5692B3FF41A
:101ED00093AE1AD8662BA1D104F1FF3B00244FF03A
:101EE000FF38A2460A271BF8010FFFF783FD0546BE
:101EF00000287FF41FAEBAF1000F7FF465AEA4B9DD
:101F0000B8F1FF3F97D001246FE6732B3FF487AE03
:101F1000742B83D12378242B3FF493AE0848E7E554
:101F2000BAF1000F7FF45FAE5FE6B8F1FF3F3FF418
:101F30004EAE5AE6D754000873540008AF54000858
:101F40008754000813B50446FFF77BFD18B94FF01E
:101F5000FF3002B010BD6A4623492046FFF7A8FDB6
:101F60000028F4D021490DF1020001F08DFE68B384
:101F70001F490DF1020001F087FE48B31D490DF124
:101F8000020001F081FE28B31B490DF1020001F0AF
:101F90007BFE08B319490DF1020001F075FEE8B1AE
:101FA00017490DF1020001F06FFEC8B115490DF19E
:101FB000020001F069FEA8B113490DF1020001F021
:101FC00063FE00280CBF08200020C2E70120C0E704
:101FD0000220BEE70320BCE70420BAE70520B8E7EB
:101FE0000620B6E70720B4E70B550008EB540008BD
:101FF000EF540008F3540008F7540008FB5400089D
:10200000FF540008035500080755000830B591B08B
:1020100004460DAB099304F14003089304F1340323
:10202000079304F12C03069304F1240305930CABEE
:10203000049304F11C0303930BAB029304F1140308
:1020400001930DF12B03084600930EAA2346124973
:10205000FFF72EFD054618B90025284611B030BD02
:102060000E490DF13A0001F00FFE0028F4D19DF861
:102070002B30A3F1410253425341237462690B9BFD
:1020800053436361E2690C9B5343E361226C0D9BF4
:1020900053432364E1E700BFDA530008EB54000820
:1020A000014801F075BD00BF4E5500082DE9F04311
:1020B000314C324FDFF8D890C5B006460025304687
:1020C00000F09FFC80B965B12B4C2D48217801F0C0
:1020D0005FFD237D002B46D02A48FFF7FDFB002340
:1020E000637045B0BDE8F0836946304600F078FB88
:1020F0009DF80030202B26D005D8042B16D08B213C
:102100002148FEF7E5FF222B29D0232BF7D19DF89C
:1021100006102278914205D19DF805309DF80450B3
:10212000A370CCE7194801F033FDC8E73B68D3F84A
:102130000880B8F1000FC2D004ABDDE902129DF8AF
:102140000400C047BBE7237D2BB1039AA06904A913
:1021500001F00AFDB3E73B68D3F80480E9E748469D
:1021600001F016FDABE7054B1B681B68002BB6D0D2
:10217000A0789847B3E700BF400D0020380D00203D
:10218000ED5500083C0D00209E5500086D550008D7
:10219000D755000808B5044800F028FC0348BDE8FE
:1021A0000840FFF799BB00BF600F00204C020020E1
:1021B000F7B5164D164E074616480C4601F0E8FCDA
:1021C0002846FEF757FC002141F2883000F0F4FE6B
:1021D000114B00936946C0233068ADF804300722E4
:1021E0008DF80640FEF7E2FA224639463068FEF7DF
:1021F000DDFA0A4801F0CCFC2846FEF744FC2146F3
:10220000074801F0C5FC03B0F0BD00BF0908004855
:1022100070150020325600084154244444560008EA
:1022200057560008F7B50D469DF8201002291646AE
:1022300004461F46099A18D0D72911D0B9B92146AA
:1022400033462A4600970C4800F0A2FA0A4800F0EC
:10225000D8FBC1B2094803B0BDE8F040FFF7A8BF02
:102260000C23054800F0DAF9E9E72C23F9E74FF4ED
:10227000B6710348FEF72CFF440D00205C0D0020D2
:102280009E5500082D4C2E4E8FB527460121304615
:10229000FFF7F2FA25782B48ADBB00F0B2FB03281C
:1022A000F4D903232A4669462648274D00F0DAFB75
:1022B0009DF80030C02B02D19DF801309BB1012167
:1022C000204800F013FC214801F062FC00231D4867
:1022D0003B702B7000F095FB0228D7D801213046C7
:1022E000FFF7CAFAD2E7012303211648237000F052
:1022F000FDFB9DF802101648297001F049FC30469C
:10230000FFF7EAFAC2E7104D00F07BFB2B7898420A
:10231000BCD300220B49684600F07EFB6846FFF7FD
:10232000C5FE68462D7800F06CFB291A89B2054875
:1023300000F0DCFB00232370A8E700BF5D0E002047
:102340004C020020600F00205E0E00200C5600089A
:10235000115600080000000010B501211048FFF7D9
:102360008BFA0DA3D3E900230D4800F087FE044645
:102370000B48FFF7B1FA3CB90A4B5C709B78002B15
:1023800014BF0320022010BD074801F001FC01200A
:10239000F9E700BFAFF3008080C3C901000000006F
:1023A0003C0D0020400D00202855000830B5194B89
:1023B000194D196085B028604FF48072174918488C
:1023C00000F0DAFA174B02930024174B01940093A4
:1023D000062223464FF4C0611448FEF703FE23464D
:1023E000134A28684FF41651FEF714FA044620B138
:1023F0004FF480710F48FEF76BFE01210E48FEF787
:102400006DFA00940D4B0E4801220821FEF79EFA4A
:1024100005B030BD380D0020701500205F0E002083
:10242000600F00204055000885220008700F002032
:10243000952100089E55000809080048A1200008C1
:102440000514004838B50F4C637823B10E4801F0ED
:102450009FFB002038BD01254FF4807204F11C0160
:10246000201D2375A370657000F086FA074B19785C
:1024700020464A1900F8041B1A702A4600F060FA38
:102480002846E7E7400D00200D5500085C0E0020AF
:102490002DE9F743DDF82C909DF8288004460D4681
:1024A00016461F46FFF7CEFF78B1094B01221A7579
:1024B0002946CDE900893B4632462046FFF7B2FE69
:1024C00003B0BDE8F043FFF747BF03B0BDE8F083BA
:1024D000400D0020022806D0032806D010F1FF305E
:1024E00018BF01207047082070470220704713B5BD
:1024F00002A90023012201F8053D044600F0E1FA9B
:102500009DF8030082090AD0D30002A900F03F0021
:10251000984041F8040D204600F0D3FA019802B02B
:1025200010BD0000F0B585B004AE3F29074646F85F
:102530000C1D08D80122314600F025FA58B33F217E
:102540001648FEF7C5FDB1F5804F2CBF02250125C9
:10255000B1F5800F28BF032504AB2B4404A913F861
:102560000C3C03EB851301F8013D012200F00BFA4E
:1025700008B14C21E4E76B1E044656FA83F60122AB
:10258000311B384600F0FFF908B14F21D8E701347C
:10259000E3B29D42F3D105B0F0BD00BF6356000821
:1025A00073B50E466D46044601222946304600F0BA
:1025B00088FA18B155210748FEF78AFD3046FFF723
:1025C00096FF019095E8030084E80300204602B0DE
:1025D00070BD00BF6356000873B56E460D460446D5
:1025E00001463046FFF7DCFF96E803002B1D83E829
:1025F00003002046FFF77BFFFF28E86003D9B821DE
:102600000548FEF765FD82B205F11001204602B0D3
:10261000BDE8704000F055BA63560008F7B50546AE
:102620000E461F4614461AB960215848FEF750FD61
:10263000322100F0DBF908B16121F6E73146284686
:1026400000F0D4F908B16221EFE7D72E2AD1217822
:10265000284600F0CBF908B16621E6E76178284604
:1026600000F0C4F908B16721DFE7A178284600F03F
:10267000BDF908B16821D8E7A078C0F30110FFF7D1
:1026800029FFE1780646284600F0B0F908B16A2132
:10269000CBE7B2B2211D284600F075F9002873D0AF
:1026A0006B21C2E7022E3AD194F82810490001F0BC
:1026B000FE01284600F09AF908B17021B5E794F8B8
:1026C0002910284600F092F908B17121ADE71022D7
:1026D0002146284600F057F908B17221A5E71022DB
:1026E000A118284600F04FF908B173219DE7236A2D
:1026F00002A91BBA41F8083D0422284600F043F91C
:1027000008B1752191E7636A02A91BBA41F8043D3B
:102710000422284600F037F9B0B3782185E7032E6C
:102720002AD194F82010490001F0FE01284600F05B
:102730005DF908B17D2178E794F82110284600F072
:1027400055F908B17E2170E708222146284600F09D
:102750001AF908B17F2168E70822A118284600F07D
:1027600012F908B1802160E71022A118284600F074
:102770000AF948B1812158E73A462146284600F037
:1027800002F908B1852150E703B0F0BD6356000897
:10279000F8B50F462021044616461D4600F026F9DE
:1027A00018B18C210D48FEF793FC3946204600F005
:1027B0001DF908B18D21F5E731462046FFF7B2FE3D
:1027C00029462046FFF7AEFEAAB20699204600F041
:1027D000DAF808B19021E5E7F8BD00BF63560008BC
:1027E000F0B589B00D4601220DF10601044600F056
:1027F00068F918B1EE215148FEF76AFC9DF80630E1
:102800009A09D90903F03F03202B8DF806302B706D
:1028100015D004D8042B12D04FF48171EBE7222B92
:1028200002F0010211D0232BF6D129716A71A91D82
:102830000122204600F045F928B1CA21DBE72946EC
:102840002046FFF7C9FE09B0F0BD02B109B1CF21A2
:10285000D1E701220DF10701204600F032F908B15D
:10286000D121C8E79DF80730D72B01D0D221C2E78C
:1028700002AA2B1D1746143518685968164603C658
:102880000833AB423246F7D11868306099889B799B
:10289000B371B18001223946204600F012F90222BC
:1028A0000DF10A01204600F00CF9BDF80A300122B2
:1028B0005BBA03A92046ADF80A3000F002F9012204
:1028C0000DF10D01204600F0FCF801220DF10F0181
:1028D000204600F0F6F8012204A9204600F0F1F8A5
:1028E00001220DF11101204600F0EBF801220DF15B
:1028F0001201204600F0E5F801220DF113012046F7
:1029000000F0DFF801220DF11501204600F0D9F8A2
:1029100001220DF11601204600F0D3F89DF81500B4
:10292000C0F30110FFF7D6FD0DF1170182B220466A
:1029300000F0C7F8002886D0E6215CE7635600085F
:10294000D20138B50D4642F0340101F0B40104461D
:1029500000F04CF820B140F23F110648FEF7B8FBFA
:102960002946204600F042F810B14FF4A071F4E778
:1029700038BD00BF635600080023013A81608280A1
:102980000360037370472DE9F041057B04468846D8
:10299000164635BB43880088834202EB030C0BD2FA
:1029A000604520DDA068184401F0DEF863881E440D
:1029B00066802846BDE8F081A7886745F2DAFF1AED
:1029C000BFB2D61BB6B2B0420DD9A0683A46184481
:1029D00001F0CAF8324608EB0701A06801F0C4F81C
:1029E000E6E71625E5E741F28A35E2E707B502ABEF
:1029F000012203F8011D1946FFF7C5FF03B05DF87A
:102A000004FB028843889A4285BF8088C018981AC0
:102A1000801A80B27047000070B5054608461C4613
:102A20001646FFF7EEFFA04203D22B210C48FEF71B
:102A30004FFB88883444844201DD2C21F6E70A8864
:102A40008B68AB6016442E800B88A8801C44A3B210
:102A5000984238BF1B1A6B8001232B7370BD00BFD7
:102A60009A560008F8B50E46054611461F461BB19A
:102A7000FFF7C7FF874221D82B88A8880B44A96895
:102A800093FBF0F200FB123294B211443A4492FBF1
:102A9000F0F300FB132292B2944205D83A46304636
:102AA00001F062F80020F8BD001B84B222463046D7
:102AB00001F05AF83A1BA9683019F1E741F28A305F
:102AC000F1E738B51446134600220546FFF7CAFF62
:102AD00058B92A88A988224492B28A422A8082BFA1
:102AE000B2FBF1F301FB13222A8038BD10B5044676
:102AF00019B1FFF786FF81420DD82388A2881944B7
:102B000089B29142218004D9B1FBF2F302FB131187
:102B10002180002001E041F28A3010BDB1F900208F
:102B200008B5437A32B903F001014068FDF7B5FFFB
:102B3000012008BDDB43F6E738B5447A40680D460E
:102B4000FDF78EFF00B1E443284604F0010420F8AD
:102B5000024B0422002101F012F81223EB80012025
:102B600038BD6FF085007047094B1A6860B10021CD
:102B700001601AB91860104670471A461368002B96
:102B8000FBD11060184670476FF01200704700BF0D
:102B900074150020044B1A6842F480721A601A6897
:102BA0005205FCD5704700BF00100240704700007E
:102BB00008B520B940F2EF110B48FEF789FA836996
:102BC000DA060AD483699B050AD4836913F4807FEB
:102BD00014BF6FF00400002008BD6FF00500FBE794
:102BE0006FF00A00F8E700BFEC56000838B59DF812
:102BF000104014F0010445D120B940F2631123487C
:102C0000FEF766FA4460456825F40065456045684E
:102C100025F47F7525F003054560456845EA4101C7
:102C20004160416821F480614160416841EA832349
:102C30004360436823F47F034360436843EA0242EE
:102C40004260436823F000734360C36943F44473F4
:102C5000C361436843F400534360234641688904D9
:102C60009AB208D40133B3F5803FF7D1FFF7A0FF44
:102C700000EAE07038BD4FF6FF739A42F6D16FF06C
:102C80007300F7E76FF05E00F4E700BFEC56000852
:102C900008B520B94FF4EA711648FEF719FA002278
:102CA0008169D34349069BB205D40132B2F5803F16
:102CB000F6D14FF6FF73826912F4447217D1B3B1A3
:102CC000436843F480434360436813F4804391B204
:102CD00005D10132B2F5803FF6D1184608BD4FF656
:102CE000FF73994214BF00206FF07300F6E76FF096
:102CF0000400F3E7EC56000808B518B149211D4857
:102D0000FEF7E6F91C4B4FF480011860FEF7BCFAA1
:102D10001A4B1B48102283F8212302225A601521E6
:102D2000FDF7DCFD04211648FDF772FE152115485C
:102D3000FDF7D4FD04211348FDF76AFE124B1A6813
:102D400022F001021A601A6842F480521A601A686E
:102D500042F470621A600D4A1A611A6822F4003255
:102D60001A60DA6942F44472DA611A6842F00102C8
:102D70001A6008BDEC5600087815002000E100E05C
:102D8000001400480114004800580040130F42B0DE
:102D900010B5044618B188210648FEF799F90121BB
:102DA0000548FEF769FD20464FF48001FEF76CFAF6
:102DB000204610BDEC5600087815002008B518B163
:102DC00093210A48FEF784F9094B9A69120403D546
:102DD0000130B0F5803FF8D14FF480010020FEF7BC
:102DE00077FA0448FEF778FD002008BDEC5600088D
:102DF0000058004078150020F7B515461F469DF88D
:102E0000206018B1A2212248FEF762F9F20734D4FB
:102E1000330711D51F482A462F44974218D11D4821
:102E2000FFF7C6FE041E0FDB73072BD4194803B04F
:102E3000BDE8F040FFF72CBF009601233A46154845
:102E4000FFF7D4FE041EE5DA1248FFF721FF16E073
:102E500000218469CB4364079BB205D40131B1F5ED
:102E6000803FF6D14FF6FF73816911F4447F0BD197
:102E700053B1436A02F8013BCFE76FF05E0420468E
:102E800003B0F0BD0024FAE76FF07304DCE700BF85
:102E9000EC560008005800402DE9F341089F904689
:102EA0000D461E469DF8242018B1CD212948FEF775
:102EB0000FF912F0030346D127480446D0F818C092
:102EC000D9431CF4004F89B205D00133B3F5803FDC
:102ED000F4D14FF6FF71A36913F4447F36D1002972
:102EE00034D012F008030ED10092294601221A486C
:102EF000FFF77CFE041E06DA1748FFF7C9FE2046DE
:102F000002B0BDE8F081144A4FF6FF73916989075A
:102F10000DD4916911F4447F03D1013B9BB2002B86
:102F2000F4D10D48FFF7B4FE6FF00504E7E7C2F8EF
:102F3000288000203B4632462946089002B0BDE872
:102F4000F041FFF759BF6FF05E04D8E76FF07304EC
:102F5000D5E700BFEC56000800580040FEF7BCBCA7
:102F6000012310B5836003684068194600F1080426
:102F70000A6832B90A21FDF78FF9BDE81040FDF764
:102F800051BA944208D182680A601A68002AF1D1C5
:102F90004FF0FF321A60EDE71146E9E738B5044615
:102FA0000020FEF70BFA05460020FEF707FA401B4B
:102FB000A042F9D338BD000030B587B004460D46B5
:102FC000FDF7ABFB48B11DB138210E48FEF780F884
:102FD0002046FFF7E3FF07B030BD0B4B0090CDE973
:102FE0000200012168460493CDF814D0FEF744FC9A
:102FF000214601A82A46FDF717FF01216846FEF782
:103000003BFCE8E70C5700085D2F000870B506464A
:1030100086B03468184B049300200090CDF814D08B
:103020000C44FEF7CBF9336883420CD9844207D9AC
:10303000A34205D9251A3B2D09D82846FFF7AEFF34
:10304000346006B070BDA342F4D88442F1E7B5F510
:10305000007F03D20020FEF7B1F92C180121684649
:10306000FEF70AFC214601A8FDF74EFE0121684645
:10307000FEF702FCE4E700BF5D2F000810B519461B
:103080000F4B88B01B68019304460023104602933F
:1030900050EA0103009408D00A4B06930A46014601
:1030A00003A8CDF81CD0FDF7BFFE01212046FEF796
:1030B000E3FB03A8FDF788FE0298404208B010BD6C
:1030C0002C040020612F000813B59DF810400194D6
:1030D00001240094FFF7E0FE02B010BDF8B5C1F383
:1030E0000A57A7F2FF35132D0A460B46044611DC9A
:1030F000002D2ADB8C461F4929410A422BD04FF470
:1031000000232B41634423EA010300263446194679
:103110002046F8BD332D05DDB5F5806F1ED0114674
:103120002046F8BDA7F213474FF0FF3121FA07F709
:103130003842F4D00122C5F1330502FA05F54619EB
:1031400028BF9B1826EA0706E0E7013501F0004397
:1031500009D00026DAE70028D1D1E0E7024600F0E6
:1031600011F80446DCE743F07F5343F44013002694
:10317000CCE700BFFFFF0F0081F0004102E000BF7D
:1031800083F0004330B54FEA41044FEA430594EA27
:10319000050F08BF90EA020F1FBF54EA000C55EA62
:1031A000020C7FEA645C7FEA655C00F0E2804FEA33
:1031B0005454D4EB5555B8BF6D420CDD2C4480EA15
:1031C000020281EA030382EA000083EA010180EA45
:1031D000020281EA0303362D88BF30BD11F0004F93
:1031E0004FEA01314FF4801C4CEA113102D04042C9
:1031F00061EB410113F0004F4FEA03334CEA133304
:1032000002D0524263EB430394EA050F00F0A7801B
:10321000A4F10104D5F1200E0DDB02FA0EFC22FA16
:1032200005F2801841F1000103FA0EF2801843FA0A
:1032300005F359410EE0A5F120050EF1200E012AFB
:1032400003FA0EFC28BF4CF0020C43FA05F3C01839
:1032500051EBE37101F0004507D54FF0000EDCF1B2
:10326000000C7EEB00006EEB0101B1F5801F1BD35B
:10327000B1F5001F0CD349085FEA30004FEA3C0C5F
:1032800004F101044FEA445212F5800F80F09A8055
:10329000BCF1004F08BF5FEA500C50F1000041EB59
:1032A000045141EA050130BD5FEA4C0C404141EB5D
:1032B000010111F4801FA4F10104E9D191F0000F84
:1032C00004BF01460020B1FA81F308BF2033A3F107
:1032D0000B03B3F120020CDA0C3208DD02F1140CFE
:1032E000C2F10C0201FA0CF021FA02F10CE002F139
:1032F0001402D8BFC2F1200C01FA02F120FA0CFC32
:10330000DCBF41EA0C019040E41AA2BF01EB04517A
:10331000294330BD6FEA04041F3C1CDA0C340EDC78
:1033200004F11404C4F1200220FA04F001FA02F3BB
:1033300040EA030021FA04F345EA030130BDC4F179
:103340000C04C4F1200220FA02F001FA04F340EA6E
:103350000300294630BD21FA04F0294630BD94F01F
:10336000000F83F4801306BF81F480110134013D06
:103370004EE77FEA645C18BF7FEA655C29D094EA77
:10338000050F08BF90EA020F05D054EA000C04BFF5
:103390001946104630BD91EA030F1EBF00210020E0
:1033A00030BD5FEA545C05D14000494128BF41F07F
:1033B000004130BD14F580043CBF01F5801130BDE3
:1033C00001F0004545F0FE4141F470014FF000006E
:1033D00030BD7FEA645C1ABF194610467FEA655C1F
:1033E0001CBF0B46024650EA013406BF52EA0335C1
:1033F00091EA030F41F4002130BD00BF90F0000FAF
:1034000004BF0021704730B54FF4806404F13204EA
:103410004FF000054FF0000150E700BF90F0000FA3
:1034200004BF0021704730B54FF4806404F13204CA
:1034300010F0004548BF40424FF000013EE700BF9A
:1034400042004FEAE2014FEA31014FEA02701FBF2A
:1034500012F07F4393F07F4F81F06051704732F05C
:103460007F4208BF704793F07F4F04BF41F40021B3
:10347000704730B54FF4607401F0004521F0004111
:103480001CE700BF50EA010208BF704730B54FF09B
:1034900000050AE050EA010208BF704730B511F09C
:1034A000004502D5404261EB41014FF4806404F1D4
:1034B00032045FEA915C3FF4D8AE4FF003025FEA5A
:1034C000DC0C18BF03325FEADC0C18BF033202EBDE
:1034D000DC02C2F1200300FA03FC20FA02F001FA38
:1034E00003FE40EA0E0021FA02F11444BDE600BFDB
:1034F0004A0011D212F5001211D20DD56FF4787373
:10350000B3EB62520ED44FEAC12343F0004343EAC7
:10351000505323FA02F070474FF00000704750EA12
:10352000013002D14FF0FF3070474FF0000070477C
:1035300080F0004002E000BF81F0004142001FBF68
:103540005FEA410392EA030F7FEA226C7FEA236C71
:103550006AD04FEA1262D2EB1363C1BFD218414066
:1035600048404140B8BF5B42192B88BF704710F0FC
:10357000004F40F4000020F07F4018BF404211F09F
:10358000004F41F4000121F07F4118BF494292EA07
:10359000030F3FD0A2F1010241FA03FC10EB0C0033
:1035A000C3F1200301FA03F100F0004302D54942C0
:1035B00060EB4000B0F5000F13D3B0F1807F06D36D
:1035C00040084FEA310102F10102FE2A51D2B1F165
:1035D000004F40EBC25008BF20F0010040EA03005A
:1035E0007047490040EB000010F4000FA2F1010207
:1035F000EDD1B0FA80FCACF1080CB2EB0C0200FA91
:103600000CF0AABF00EBC25052421843BCBFD040DE
:103610001843704792F0000F81F4000106BF80F458
:1036200000000132013BB5E74FEA41037FEA226C1B
:1036300018BF7FEA236C21D092EA030F04D092F0E6
:10364000000F08BF0846704790EA010F1CBF00201A
:10365000704712F07F4F04D1400028BF40F0004077
:10366000704712F100723CBF00F50000704700F097
:10367000004343F0FE4040F4000070477FEA2262BE
:1036800016BF08467FEA23630146420206BF5FEA8F
:10369000412390EA010F40F4800070474FF000038F
:1036A00004E000BF10F0004348BF40425FEA000C56
:1036B00008BF704743F0964301464FF000001CE0FE
:1036C00050EA010208BF70474FF000030AE000BF54
:1036D00050EA010208BF704711F0004302D5404292
:1036E00061EB41015FEA010C02BF84460146002004
:1036F00043F0B64308BFA3F18053A3F50003BCFA1F
:103700008CF2083AA3EBC25310DB01FA02FC6344CB
:1037100000FA02FCC2F12002BCF1004F20FA02F2D2
:1037200043EB020008BF20F00100704702F12002C5
:1037300001FA02FCC2F1200250EA4C0021FA02F226
:1037400043EB020008BF20EADC7070474FF0FF0C2B
:103750001CEAD0521EBF1CEAD15392EA0C0F93EA26
:103760000C0F6FD01A4480EA010C400218BF5FEAC8
:1037700041211ED04FF0006343EA501043EA51113B
:10378000A0FB01310CF00040B1F5000F3EBF490035
:1037900041EAD3715B0040EA010062F17F02FD2A39
:1037A0001DD8B3F1004F40EBC25008BF20F001001C
:1037B000704790F0000F0CF0004C08BF49024CEA33
:1037C000502040EA51207F3AC2BFD2F1FF0340EAC5
:1037D000C250704740F400004FF00003013A5DDC36
:1037E00012F1190FDCBF00F000407047C2F1000277
:1037F000410021FA02F1C2F1200200FA02FC5FEA64
:10380000310040F1000053EA4C0308BF20EADC70AD
:10381000704792F0000F00F0004C02BF400010F41F
:10382000000F013AF9D040EA0C0093F0000F01F0CC
:10383000004C02BF490011F4000F013BF9D041EAEE
:103840000C018FE70CEAD15392EA0C0F18BF93EAF0
:103850000C0F0AD030F0004C18BF31F0004CD8D11A
:1038600080EA010000F00040704790F0000F17BFA1
:1038700090F0004F084691F0000F91F0004F14D0E7
:1038800092EA0C0F01D142020FD193EA0C0F03D13F
:103890004B0218BF084608D180EA010000F0004042
:1038A00040F0FE4040F40000704740F0FE4040F41D
:1038B000400070474FF0FF0C1CEAD0521EBF1CEABC
:1038C000D15392EA0C0F93EA0C0F69D0A2EB0302DA
:1038D00080EA010C49024FEA402037D04FF0805374
:1038E00043EA111143EA10130CF000408B4238BF39
:1038F0005B0042F17D024FF4000C8B4224BF5B1A47
:1039000040EA0C00B3EB510F24BFA3EB510340EA94
:103910005C00B3EB910F24BFA3EB910340EA9C0042
:10392000B3EBD10F24BFA3EBD10340EADC001B01B2
:1039300018BF5FEA1C1CE0D1FD2A3FF650AF8B4256
:1039400040EBC25008BF20F0010070470CF0004C63
:103950004CEA50207F32C2BFD2F1FF0340EAC2508E
:10396000704740F400004FF00003013A37E792F04F
:10397000000F00F0004C02BF400010F4000F013AAD
:10398000F9D040EA0C0093F0000F01F0004C02BFA8
:10399000490011F4000F013BF9D041EA0C0195E711
:1039A0000CEAD15392EA0C0F08D142027FF47DAFAA
:1039B00093EA0C0F7FF470AF084676E793EA0C0F9A
:1039C00004D14B023FF44CAF08466EE730F0004C98
:1039D00018BF31F0004CCAD130F000427FF45CAF28
:1039E00031F000437FF43CAF5FE700BF4FF0FF3C96
:1039F00006E000BF4FF0010C02E000BF4FF0010CE9
:103A00004DF804CD4FEA40024FEA41037FEA226CB1
:103A100018BF7FEA236C11D001B052EA530C18BFD3
:103A200090EA010F58BFB2EB030088BFC81738BF38
:103A30006FEAE17018BF40F0010070477FEA226C26
:103A400002D15FEA402C05D17FEA236CE4D15FEA22
:103A5000412CE1D05DF8040B704700BF8446084656
:103A60006146FFE70FB5FFF7C9FF002848BF10F117
:103A7000000F0FBD4DF808EDFFF7F4FF0CBF01205C
:103A800000205DF808FB00BF4DF808EDFFF7EAFFE6
:103A900034BF012000205DF808FB00BF4DF808EDA1
:103AA000FFF7E0FF94BF012000205DF808FB00BF96
:103AB0004DF808EDFFF7D2FF94BF012000205DF81C
:103AC00008FB00BF4DF808EDFFF7C8FF34BF012029
:103AD00000205DF808FB00BF70B50D4E0D4CA41B17
:103AE000A4100025A54209D10B4E0C4CFCF760FB3D
:103AF000A41BA4100025A54205D170BD56F82530A1
:103B000098470135EEE756F8253098470135F2E73A
:103B1000C0580008C0580008C0580008C058000825
:103B2000D0F8EC0070470000044B054A1B681B6A84
:103B3000002B08BF1346D3F8EC007047500200205A
:103B4000B402002082B001B901A942B14BB113788F
:103B50000B601278101C18BF012002B0704710468D
:103B6000FBE76FF00100F8E710B5431E0A449142ED
:103B700000D110BD11F8014B03F8014FF7E70244E3
:103B80000346934200D1704703F8011BF9E7000098
:103B90000FB40A4B13B51C6824B1A36913B92046AE
:103BA00000F028FB05AB049AA1680193204600F0C1
:103BB000E7FC02B0BDE8104004B07047500200209E
:103BC00070B50E46054618B183690BB900F012FBBB
:103BD000AB69AC6813B9284600F00CFB234B9C4240
:103BE00017D16C68A3891B071DD52369DBB1013E82
:103BF000A36816F8011F013BA360E9B9002B2EDA78
:103C000022460A21284600F037F9013011D00A2057
:103C100011E0174B9C4201D1AC68E3E7154B9C4285
:103C200008BFEC68DEE72146284600F085F9002849
:103C3000DDD04FF0FF3070BD002B04DAA2699A424C
:103C400006DC0A2904D023685A1C22601970CFE7C9
:103C50002246284600F010F90130C9D1E9E723686F
:103C60000A205A1C22601870E5E700BF4C58000873
:103C70006C5800082C580008024B01461868FFF7E2
:103C80009FBF00BF5002002010F8012B11F8013B2C
:103C9000012A28BF9A42F7D0D01A7047034613F87A
:103CA000012B002AFBD1181A01387047134B2DE95C
:103CB000F0411D68AC6D06460F46B4B9502000F0C7
:103CC00087FBA865C0E90044C0E90244C0E9044498
:103CD000C0E90A44C0E90C44C0E90E44C0E91044FC
:103CE000C0E91244846104774462AA6D39463046C3
:103CF0000123BDE8F04100F003B800BF50020020EE
:103D0000F0B518B9106808B9F0BD204604460F4652
:103D100014F8015B17F8016B1EB96DB915602846E0
:103D2000F2E7B542F6D1002BEFD114600370EBE758
:103D30002B460DE026B91C4623460F4613F8015BBF
:103D400017F8016BB542F5D1002DF1D0002121709B
:103D50001360D9E72DE9F0478046894692461E4612
:103D60000F463D46089815F8014BFFF7D9FE204451
:103D7000437813F0080332D12D2C32D17C78BD1C4E
:103D80000122002E5DD0102E09D1302C07D12B78C6
:103D900003F0DF03582B4FD16C7810260235002A30
:103DA00014BF4FF000416FF000410027B1FBF6FC5B
:103DB000384606FB1C1EA4F13003092B17D81C46FD
:103DC000A64223DD7B1C07D084451CD301D1A64528
:103DD00019DB00FB0640012715F8014BEBE72F46E6
:103DE000BFE72B2C04BFBD1C7C781A46C9E7A4F1A1
:103DF0004103192B01D8373CE2E7A4F16103192BE9
:103E000004D8573CDCE74FF0FF37E5E77B1C08D1CF
:103E10002223C8F800300846BAF1000F07D1BDE8E8
:103E2000F08702B14042BAF1000FF8D00FB105F1AE
:103E3000FF39CAF80090F2E73024002EAFD10826EF
:103E4000ADE7302CA3D00A26A9E70000084B37B510
:103E50001C68084D236A002B08BF2B4600931346AD
:103E60000A4601462046FFF775FF03B030BD00BF8C
:103E700050020020B4020020F8B50E461446054654
:103E800018B183690BB900F0B5F9214B9C422AD1D6
:103E90006C68A369A360A3891A072ED5236963B34D
:103EA00023692068C01A6369F6B28342374604DC8E
:103EB0002146284600F034F928BBA368013BA360E3
:103EC00023685A1C22601E7063690130834204D04B
:103ED000A389DB0719D50A2E17D12146284600F001
:103EE0001FF990B10FE00B4B9C4201D1AC68D0E7B9
:103EF000094B9C4208BFEC68CBE72146284600F0FE
:103F00001BF80028CCD04FF0FF373846F8BD00BF73
:103F10004C5800086C5800082C58000849B1FF2A7A
:103F200085BF8A2303600A704FF0FF3098BF0120DD
:103F30007047084670470000324B70B51D68064652
:103F40000C4625B1AB6913B9284600F053F92E4B46
:103F50009C420FD16C68B4F90C309AB215072CD47E
:103F6000D00611D40922326043F04003A3814FF000
:103F7000FF303EE0254B9C4201D1AC68EBE7244B7F
:103F80009C4208BFEC68E6E7510712D5616B41B16E
:103F900004F14403994202D0304600F021FA002394
:103FA0006363A38923F02403A3810023636023694F
:103FB0002360A38943F00803A38123694BB9A38934
:103FC00003F42073B3F5007F03D02146304600F0A0
:103FD000BFF9A28912F001030CD00023A36063692A
:103FE0005B42A361236953B9B4F90C3013F080002C
:103FF000BAD170BD920758BF6369A360F2E7002091
:10400000F7E700BF500200204C5800086C58000829
:104010002C5800088A892DE9F041054610070C4606
:1040200058D44B68002B05DC0B6C002B02DC002005
:10403000BDE8F081E66A002EF9D0002312F4805228
:104040002F68216A2B6032D0606DA3895A0705D58D
:104050006368C01A636B0BB1236CC01A002302465D
:10406000E66A216A2846B047431CA38906D129681D
:104070001D2948D8294ACA40D60744D50022626083
:10408000D9042269226004D5421C01D12B6803B9EE
:104090006065616B2F600029C9D004F14403994227
:1040A00002D0284600F09CF900206063C0E701239D
:1040B0002846B047411CC8D12B68002BC5D01D2B0A
:1040C00001D0162B01D12F60B1E7A38943F0400343
:1040D000A381ADE70F69002FA9D093070E6808BF31
:1040E0004B690F6018BF0023A6EB07088B60B8F17F
:1040F000000F9CDD43463A46216AA66A2846B0472F
:10410000002806DCA38943F04003A3814FF0FF3071
:104110008EE70744A8EB0008E9E700BF0100402054
:1041200038B50B6905460C46DBB118B183690BB98C
:1041300000F060F80C4B9C4209D16C68B4F90C306B
:104140007BB121462846BDE83840FFF763BF074BE7
:104150009C4201D1AC68F1E7054B9C4208BFEC687A
:10416000ECE7002038BD00BF4C5800086C58000830
:104170002C580008002310B50446C0E900338360C2
:1041800081814366C281C0E90433836119460822F4
:104190005C30FFF7F4FC054B6362054BA362054BF3
:1041A000E362054B2462236310BD00BFBD4A0008D3
:1041B000DF4A0008174B00083B4B0008014900F09C
:1041C00085B800BF2141000870B54A1E68255543D7
:1041D0000E4605F1740100F051F9044640B100218A
:1041E000C0E900160C30A06005F16802FFF7C7FCBB
:1041F000204670BD836910B5044633BBC0E9123355
:104200000365124B124A1B688262984204BF012365
:10421000836100F01FF86060204600F01BF8A0608A
:10422000204600F017F80022E06004216068FFF7E4
:10423000A1FF01220921A068FFF79CFF02221221A1
:10424000E068FFF797FF0123A36110BD2057000826
:10425000BD410008F8B51B4B1E68B369074613B98A
:104260003046FFF7C7FF4836D6E90134013B03D596
:10427000336833B13668F7E7B4F90C506DB1683480
:10428000F4E704213846FFF79FFF30600028F1D1A2
:104290000C233B6004462046F8BD0B4B6566C4E921
:1042A0000055A560C4E90335C4E90555082229462F
:1042B00004F15C00FFF763FCC4E90D55C4E9125535
:1042C000E9E700BF205700080100FFFF2DE9F84390
:1042D0008046894600F14804002614B93046BDE8FE
:1042E000F883D4E90175013F01D52468F5E7AB896E
:1042F000012B07D9B5F90E30013303D029464046CA
:10430000C84706436835EEE770B50E46B1F90E10A2
:10431000002996B014461D4607DA00232B60B389A6
:104320001A0610D44FF480630EE06A46FBF774FF60
:104330000028F2DB019A02F47042A2F500535A42BF
:104340005A412A60EEE740230020236016B070BD7A
:104350008B8973B59D0706460C4607D504F14703C4
:10436000236023610123636102B070BD01AB6A4623
:10437000FFF7CAFF00990546304600F07FF848B9BC
:10438000B4F90C309A05EFD423F0030343F0020391
:10439000A381E3E70D4BB362A389206043F0800360
:1043A000A381009B6361019B20615BB1B4F90E1096
:1043B0003046FBF736FF28B1A38923F0030343F00F
:1043C0000103A381A3891D43A581CDE7BD41000859
:1043D000024B0146186800F051B800BF500200209F
:1043E00038B50546002945D051F8043C0C1F002B78
:1043F000B8BFE41800F0FCFB1F4A1368104633B93D
:10440000636014602846BDE8384000F0F2BBA34268
:104410000CD921686218934204BF1A685B68636014
:1044200004BF521822600460ECE713465A680AB1D0
:10443000A242FAD919685818A0420BD12068014449
:10444000581882421960DDD1106852685A600144E0
:104450001960D7E702D90C232B60D3E72068211815
:104460008A4204BF11685268626004BF0918216063
:104470005C60C7E738BD00BF7C15002070B5CD1C5F
:1044800025F0030508350C2D38BF0C25002D0646F8
:1044900001DBA94203D90C233360002070BD00F07A
:1044A000A7FB214A1468214691B9204C23681BB907
:1044B0003046FBF781FE206029463046FBF77CFE44
:1044C000431C24D10C233360304600F092FBE4E718
:1044D0000B685B1B18D40B2B0FD90B60CD50CC187D
:1044E000304600F086FB04F10B00231D20F007008E
:1044F000C31AD3D05A42E250D0E78C424B6816BF61
:10450000636013600C46EBE70C464968CCE7C41CBB
:1045100024F00304A04205D0211A3046FBF74CFEDC
:104520000130CFD02560DBE77C150020801500200E
:104530009368013B002B10B4936007DA9469A3429F
:1045400001DB0A2902D110BCFFF796BC1368581C86
:1045500010601970084610BC7047F8B506460F4643
:104560001446D518AC4201D1002007E03A4614F8B1
:10457000011B3046FFF7DCFF431CF3D1F8BD000000
:104580002DE9F04F0C469DB017461D46064618B162
:1045900083690BB9FFF72EFE7C4B9C4258D174689F
:1045A000A38918075ED52369002B5BD000230993EC
:1045B00020238DF8293030238DF82A3003954FF0D1
:1045C000010BB846454615F8013B0BB1252B54D1DC
:1045D000B8EB070A0BD053463A4621463046FFF760
:1045E000BCFF013000F0C280099B5344099398F846
:1045F0000030002B00F0BA8000234FF0FF32CDE9ED
:104600000523049307938DF853301A93A846052287
:1046100018F8011B5E4800F09BFA049B78BBD90692
:1046200044BF20228DF853201A0744BF2B228DF857
:1046300053202A782A2A2AD0079AA84600200A2539
:10464000414611F8013B303B092B69D960B324E0A6
:10465000504B9C4201D1B468A2E74F4B9C4208BF2B
:10466000F4689DE721463046FFF766FC00289DD0A0
:104670004FF0FF301DB0BDE8F08FA846A2E7444AD6
:10468000801A0BFA00F0184304904546BEE7039ADF
:10469000111D12680391002A01DB079204E05242C7
:1046A00043F002030792049398F800302E2B0ED1AA
:1046B00098F801302A2B38D1039B1A1D1B680392EE
:1046C000002BB8BF4FF0FF3308F102080593334DBC
:1046D00098F800100322284600F03AFA40B140232F
:1046E000401B03FA00F0049B034308F10108049304
:1046F00098F800102A488DF82810062208F10107C2
:1047000000F026FA002837D0264B1BBB039B07334B
:1047100023F0070308330393099B4B44099350E7A5
:1047200005FB0232012088468AE7002308F10108D0
:10473000059319460A25404610F8012B303A092AFC
:1047400003D9002BC3D00591C1E705FB012101234B
:104750008046F0E703AB00932246134B04A9304692
:10476000AFF30080B0F1FF3F8146D5D1A3895B064E
:104770003FF57EAF09987DE703AB009322460A4BD5
:1047800004A9304600F088F8ECE700BF4C58000858
:104790008C5800086C5800082C58000892580008E3
:1047A00096580008000000005B4500082DE9F0471E
:1047B00091461F468A680B69DDF820809342B8BF96
:1047C0001346C9F8003091F8432006460C4612B152
:1047D0000133C9F800302368990642BFD9F8003088
:1047E0000233C9F80030256815F0060507D104F139
:1047F000190AE368D9F800209B1AAB4228DC94F828
:1048000043302268003318BF012392062DD404F1EF
:10481000430239463046C047013020D02368E5685E
:10482000D9F8002003F00603042B08BFAD1AA368D3
:1048300022690CBF25EAE57500259342C4BF9B1A87
:10484000ED184FF000091A344D451AD1002008E048
:104850000123524639463046C047013003D14FF05C
:10486000FF30BDE8F0870135C3E7E1185A1C30205E
:1048700081F84300224494F8451082F84310023333
:10488000C5E70123224639463046C0470130E6D00D
:1048900009F10109D8E700002DE9F04301F1430CCB
:1048A0000C46097E85B06E291746064698460C9A36
:1048B00000F0B38022D8632936D00AD8002900F04E
:1048C000B980582900F0838004F1420584F8421031
:1048D00032E0642901D06929F6D120681368050601
:1048E00003F104012AD51B681160002B03DA2D2285
:1048F0005B4284F843206F480A2239E0732900F0B4
:104900009D8008D86F2920D07029DDD1236843F01D
:104910002003236003E0752917D07829D4D17823A8
:1049200084F84530644855E01368191D1B68116010
:1049300004F1420584F8423001238CE01B681160C9
:1049400010F0400F18BF1BB2CFE713682568181D81
:104950001060280601D51B6802E06806FBD51B889D
:1049600054486F2914BF0A220822002184F84310FA
:104970006568A560002DC0F29580216821F00401D2
:104980002160002B3DD1002D40F08E806546082A25
:104990000BD12368DB0708D5236962689A42DEBF22
:1049A000302305F8013C05F1FF35ACEB050323612D
:1049B000CDF800803B4603AA21463046FFF7F6FEBD
:1049C00001304DD14FF0FF3005B0BDE8F0833948DC
:1049D00084F84510136821681D1D1B6815600A06C0
:1049E0000BD5CA0744BF41F0200121601BB92268E2
:1049F00022F0200222601022B7E74D0648BF9BB28A
:104A0000EFE76546B3FBF2F102FB1133C35C05F837
:104A1000013D0B460029F5D1B9E7136825686169A6
:104A2000181D106028061B6801D5196002E06A068F
:104A3000FBD51980002323616546B9E71368191D6A
:104A400011601D6862680021284600F081F808B1F5
:104A5000401B606063682361002384F84330A7E74C
:104A600023692A4639463046C0470130AAD0236818
:104A70009B0713D4E068039B9842B8BF1846A3E78E
:104A800001234A4639463046C04701309AD00135A5
:104A9000E368039A9B1AAB42F2DCEBE7002504F1D2
:104AA0001909F5E7002BACD1037884F8423004F102
:104AB00042056CE79D580008AE58000810B50C463A
:104AC000B1F90E10FBF796FB0028ABBF636DA3890D
:104AD0001B1823F48053ACBF6365A38110BD2DE97F
:104AE000F0411F468B89DB0505460C46164605D569
:104AF00002230022B1F90E10FBF789FBA389B4F958
:104B00000E1023F48053A38132463B462846BDE86D
:104B1000F041FBF773BB10B50C46B1F90E10FBF773
:104B200076FB431CA38915BF606523F4805343F4CF
:104B30008053A38118BFA38110BDB1F90E10FBF7FC
:104B400061BB000000000000000000000000000049
:104B500001F0FF01102A2BDB10F0070F08D010F82E
:104B6000013B013A8B422DD010F0070F42B3F6D132
:104B7000F0B441EA012141EA014122F007047FF04B
:104B800000070023F0E80256083C85EA010586EAA2
:104B9000010685FA47F5A3FA87F586FA47F6A5FADE
:104BA00087F68EB9EED1F0BC01F0FF0102F00702EA
:104BB00032B110F8013B013A83EA010313B1F8D195
:104BC0000020704701387047002D06BF3546033876
:104BD000073815F0010F07D1013015F4807F02BFAF
:104BE000013015F4C03F0130F0BC0138704700BF00
:104BF00070477047425553204641554C5420484118
:104C00004E444C4552004445425547204D4F4E209E
:104C100048414E444C45520044554D4D5920484161
:104C20004E444C4552000A49535220737461636BE1
:104C3000206F766572666C6F77656400537461638C
:104C40006B20706F696E74657220636F727275701D
:104C50007465642C20726573657420746F20746FA2
:104C600070206F6620737461636B000A436F6E740B
:104C7000657874206265666F72652068617264662B
:104C800061756C743A0020202072303A203078250B
:104C900030386C780A20202072313A203078253064
:104CA000386C780A20202072323A2030782530384B
:104CB0006C780A20202072333A2030782530386C06
:104CC000780A0020207231323A2030782530386C52
:104CD000780A2020206C723A2030782530386C78A1
:104CE0000A20202070633A2030782530386C780A0A
:104CF00020207073723A2030782530386C780A0A98
:104D0000004653522F4641523A0020434653523AEE
:104D10002030782530386C780A0020484653523AC3
:104D20002030782530386C780A0020444653523AB7
:104D30002030782530386C780A0020414653523AAA
:104D40002030782530386C780A0020424641523AAB
:104D50002030782530386C780A004D4D4641523A63
:104D60002030782530386C780A004D69736300452F
:104D700058435F5245543A2030782530386C780AD1
:104D800000417474656D7074696E6720746F207271
:104D900065636F6E73747275637420737461746588
:104DA00020666F7220646562756767696E672E2E74
:104DB0002E00496E204744423A0A20207365742031
:104DC0002470633D3078256C780A20206672616D0E
:104DD0006520300A202062740A000A495352207369
:104DE0007461636B206F766572666C6F77656420A3
:104DF0006279206174206C6561737420256420627F
:104E0000797465732E0A0048415244204641554C3E
:104E1000542048414E444C4552004D454D204D4193
:104E20004E4147452048414E444C4552004E4D4965
:104E30002048414E444C4552005553414745204679
:104E400041554C542048414E444C4552000000000E
:104E5000004800400000040005080048040800481D
:104E6000070700270050004000001000020C004817
:104E70000C080048080800356370752F73746D3393
:104E8000325F636F6D6D6F6E2F7065726970682F22
:104E9000756172742E63004641494C45442041536C
:104EA00053455254494F4E2E002A2A2A2052494F28
:104EB00054206B65726E656C2070616E69633A0A8E
:104EC00025730A0A002A2A2A2068616C7465642EF8
:104ED0000A0A006D61696E28293A205468697320B6
:104EE00069732052494F5421202856657273696FA7
:104EF0006E3A20554E4B4E4F574E20286275696CC6
:104F0000646469723A202F686F6D652F76616772ED
:104F1000616E742F52494F5429290A0069646C65E7
:104F2000006D61696E00636F72652F7468726561F0
:104F3000642E630025733A2575203D3E20005F51A5
:104F40007374617465006E616D6500097069642039
:104F50007C20252D3231737C20252D397351207C06
:104F600020707269207C20737461636B202028207C
:104F70007573656429207C206261736520616464B7
:104F80007220207C2063757272656E742020202050
:104F9000200A000920202D207C206973725F737421
:104FA00061636B2020202020202020202020207CD6
:104FB000202D20202020202020202D207C2020207B
:104FC0002D207C20253669202825356929207C2044
:104FD00025313070207C20253130700A00092533BE
:104FE0006869207C20252D323073207C20252D38C7
:104FF0007320252E3173207C20253369207C2025C9
:105000003669202825356929207C202531307020FB
:105010007C2025313070200A007C0053554D00095A
:1050200025357320252D3231737C25313373253698
:1050300073202536692028253569290A00000000DB
:105040006C500008745000087D500008865000081D
:105050008C500008945000089D500008A65000088D
:10506000AF500008B7500008BF50000873746F704D
:1050700070656400736C656570696E6700626C20B2
:105080006D7574657800626C20727800626C2073B4
:10509000656E6400626C207265706C7900626C20D1
:1050A000616E79666C00626C20616C6C666C00628B
:1050B0006C206D626F780072756E6E696E6700703D
:1050C000656E64696E670002020000000000004027
:1050D000FFFFFFFF01000000001C0000000C00406B
:1050E000FFFFFFFF0800000000320000D11400089D
:1050F000E1140008FD14000857656C636F6D6520AE
:10510000746F2052494F5421005B4C6F52615D20F7
:105110002D2053656E64696E67206D736720776913
:10512000746820636F756E7465722025690A005B70
:105130004750535D202D20436F6F726473202566A6
:10514000204E2C20256620450A005B4750535D20E9
:105150002D204E6F20666978202D206E6F20636FA2
:105160006F72640A005B4C6F52615D202D20436FAB
:105170006D6D616E6420636F6D706C657465642025
:10518000696E20256C69206D730A005B4C6F52615B
:105190005D202D20436F6D6D616E6420636F6D70B7
:1051A0006C65746564207375636365737366756C91
:1051B0006C790A005B4C6F52615D202D20436F6D4E
:1051C0006D616E6420636F6D706C657465642077CB
:1051D000697468206572726F720A005B4C6F52616D
:1051E0005D202D20436F6D6D616E642074696D6567
:1051F00064206F75740A005B5379735D202D2073F2
:105200006C65707420756E74696C20256C750A006D
:105210005B4C6F52615D202D206D6F64656D206366
:105220006F6D6D616E6420636F6D706C6574656425
:10523000202873756363657373203D202569290AEF
:10524000005B4C6F52615D202D206D6F64656D2099
:1052500072657475726E2066696C65206461746134
:105260002066696C65202569206F66667365742009
:10527000256C692073697A6520256C6920627566E2
:105280006665722025700A005B4C6F52615D202DAF
:10529000206D6F64656D2077726974652066696C36
:1052A0006520646174612066696C65202569206FE2
:1052B000666673657420256C692073697A6520259C
:1052C0006C69206275666665722025700A004572F9
:1052D000726F723A20454F504E4F545355505020E4
:1052E0005B25645D0A004572726F723A2045494E33
:1052F00056414C205B25645D0A004572726F723A1C
:105300002045414741494E205B25645D0A004572B6
:10531000726F723A20454E58494F205B25645D0AF2
:10532000004572726F723A2045494F205B25645DDB
:105330000A004572726F723A204554494D45444FF8
:105340005554205B25645D0A004572726F723A20E5
:10535000556E6B6E6F776E206572726F72205B2573
:10536000645D0A005B4750535D202D2053656E74C9
:10537000656E63653D25730A002D3100AC5300084E
:105380000708004801000000B75300080704004860
:1053900001000000C15300080E0400480100000095
:1053A000CA5300080D080048080000004C4431288A
:1053B000677265656E29004C443228626C756529F8
:1053C000004C4433287265642900423128557365C6
:1053D0007220627574746F6E29007454636664661B
:1053E000646666446664005061727365206572721B
:1053F0006F72202D204C3132350A00506172736576
:10540000206572726F72202D204C3135330A0050A6
:1054100061727365206572726F72202D204C313875
:10542000330A005061727365206572726F72202DAD
:10543000204C3139360A00506172736520657272F2
:105440006F72202D204C3139390A0050617273651A
:10545000206572726F72202D204C3230370A005056
:1054600061727365206572726F72202D204C323329
:10547000330A005061727365206572726F72202D5D
:10548000204C3235350A00506172736520657272A6
:105490006F72202D204C3236300A005061727365D5
:1054A000206572726F72202D204C3236350A005002
:1054B00061727365206572726F72202D204C3238D4
:1054C000330A005061727365206572726F72202D0D
:1054D000204C3330390A0050617273652065727256
:1054E0006F72202D204C3334350A00524D43004753
:1054F00047410047534100474C4C00475354004735
:10550000535600565447005A444100740070726567
:105510007620636F6D6D616E64207374696C6C20AE
:105520006163746976650A002121212074696D65C3
:105530006F75742C20756E6C6F636B696E670A00F3
:105540006F7373375F6D6F64656D5F7278002121D3
:10555000212077616B657570207265717565737454
:105560006564206279206D6F64656D0A0072656301
:105570006569766564207265737020776974682048
:10558000756E6578706563746564207461675F69C2
:105590006420282569207673202569290A002F6850
:1055A0006F6D652F76616772616E742F72696F74AB
:1055B0002D6F7373372D6D6F64656D2F647269760F
:1055C0006572732F6F7373375F6D6F64656D2F6DC9
:1055D0006F64656D2E63007265636569766564202E
:1055E000726573702066726F6D3A200A00636F6D8A
:1055F0006D616E6420776974682074616720256925
:1056000020636F6D706C657465640A00736B6970FC
:1056100000666F756E64206865616465722C207029
:1056200061796C6F61642073697A65203D2025691A
:105630000A00212121206D6F64656D2077616B6503
:1056400075700A00212121206D6F64656D207265DF
:105650006C656173650A003E202569206279746576
:10566000730A002F686F6D652F76616772616E74C3
:105670002F72696F742D6F7373372D6D6F64656D45
:105680002F647269766572732F6F7373375F6D6FF6
:1056900064656D2F616C702E63002F686F6D652FD0
:1056A00076616772616E742F72696F742D6F737398
:1056B000372D6D6F64656D2F647269766572732F17
:1056C0006F7373375F6D6F64656D2F6669666F2EDC
:1056D00063000000392B0008632B000881000000E4
:1056E000392B00081D2B0008450000006370752F42
:1056F00073746D33325F636F6D6D6F6E2F70657293
:105700006970682F6932635F312E63007379732F7C
:105710007874696D65722F7874696D65722E630097
:1057200054020020504F53495800002020202020D0
:105730002020202028282828282020202020202041
:105740002020202020202020202020881010101031
:105750001010101010101010101010040404040485
:1057600004040404041010101010101041414141B1
:105770004141010101010101010101010101010199
:1057800001010101010110101010101042424242AB
:105790004242020202020202020202020202020269
:1057A000020202020202101010102000000000008D
:1057B00000000000000000000000000000000000E9
:1057C00000000000000000000000000000000000D9
:1057D00000000000000000000000000000000000C9
:1057E00000000000000000000000000000000000B9
:1057F00000000000000000000000000000000000A9
:105800000000000000000000000000000000000098
:105810000000000000000000000000000000000088
:105820000000000000000000000000000000000078
:105830000000000000000000000000000000000068
:105840000000000000000000000000000000000058
:105850000000000000000000000000000000000048
:105860000000000000000000000000000000000038
:105870000000000000000000000000000000000028
:10588000000000000000000000000000232D302B6D
:105890002000686C4C006566674546470030313231
:1058A0003334353637383941424344454600303188
:1058B00032333435363738396162636465660000E7
:1058C00088150020FC0400204000000000000000BB
:1058D00000000000000000001C4F0008214F0008DD
:1058E000F316F6C0EEA3A2C5760B2D40EB4E3E8B11
:1058F000EBFD83121F6209950C2D2FD3D9928DF0E9
:105900002D1901260000000000010000FFFFFFFF2D
:1059100054020020000000004C5800086C58000899
:105920002C580008000000000000000000000000EB
:105930000000000000000000000000000000000067
:105940000000000000000000000000000000000057
:105950000000000000000000000000000000000047
:105960000000000000000000000000000000000037
:1059700000000000430000000000000000000000E4
:105980000000000000000000000000000000000017
:1059900000000000430000000000000000000000C4
:1059A00000000000000000000000000000000000F7
:1059B00000000000430000000000000000000000A4
:1059C00000000000000000000000000000000000D7
:1059D0000000000043000000000000000000000084
:1059E00000000000000000000000000000000000B7
:1059F0000000000043000000000000000000000064
:105A00000000000000000000000000000000000096
:105A10000000000043000000000000000000000043
:105A20000000000000000000000000000000000076
:105A30000000000043000000000000000000000023
:105A40000000000000000000000000000000000056
:105A5000000000001D3F0008453B0008000000005A
:105A60002A570008B04D0008D24E0008D24E000858
:105A7000D24E0008D24E0008D24E0008D24E000886
:105A8000D24E0008D24E0008D24E0008FFFFFFFFA2
:105A9000FFFFFFFFFFFFFFFFFFFF0000010041537B
:105AA0004349490000000000000000000000000021
:105AB0000000000000000000000000000000415352
:105AC0004349490000000000000000000000000001
:105AD00000000000000000000000000000000000C6
